{
  "_format": "hh-sol-artifact-1",
  "contractName": "MintableTokenMock",
  "sourceName": "contracts/mocks/token/ERC20/MintableTokenMock.sol",
  "abi": [
    {
      "inputs": [
        {
          "internalType": "string",
          "name": "tokenName",
          "type": "string"
        },
        {
          "internalType": "string",
          "name": "tokenSymbol",
          "type": "string"
        },
        {
          "internalType": "uint8",
          "name": "tokenDecimals",
          "type": "uint8"
        },
        {
          "internalType": "contract IForwarderRegistry",
          "name": "forwarderRegistry",
          "type": "address"
        }
      ],
      "stateMutability": "nonpayable",
      "type": "constructor"
    },
    {
      "anonymous": false,
      "inputs": [
        {
          "indexed": true,
          "internalType": "address",
          "name": "owner",
          "type": "address"
        },
        {
          "indexed": true,
          "internalType": "address",
          "name": "spender",
          "type": "address"
        },
        {
          "indexed": false,
          "internalType": "uint256",
          "name": "value",
          "type": "uint256"
        }
      ],
      "name": "Approval",
      "type": "event"
    },
    {
      "anonymous": false,
      "inputs": [
        {
          "indexed": true,
          "internalType": "address",
          "name": "previousOwner",
          "type": "address"
        },
        {
          "indexed": true,
          "internalType": "address",
          "name": "newOwner",
          "type": "address"
        }
      ],
      "name": "OwnershipTransferred",
      "type": "event"
    },
    {
      "anonymous": false,
      "inputs": [
        {
          "indexed": false,
          "internalType": "bytes32",
          "name": "role",
          "type": "bytes32"
        },
        {
          "indexed": false,
          "internalType": "address",
          "name": "account",
          "type": "address"
        },
        {
          "indexed": false,
          "internalType": "address",
          "name": "operator",
          "type": "address"
        }
      ],
      "name": "RoleGranted",
      "type": "event"
    },
    {
      "anonymous": false,
      "inputs": [
        {
          "indexed": false,
          "internalType": "bytes32",
          "name": "role",
          "type": "bytes32"
        },
        {
          "indexed": false,
          "internalType": "address",
          "name": "account",
          "type": "address"
        },
        {
          "indexed": false,
          "internalType": "address",
          "name": "operator",
          "type": "address"
        }
      ],
      "name": "RoleRevoked",
      "type": "event"
    },
    {
      "anonymous": false,
      "inputs": [
        {
          "indexed": true,
          "internalType": "address",
          "name": "from",
          "type": "address"
        },
        {
          "indexed": true,
          "internalType": "address",
          "name": "to",
          "type": "address"
        },
        {
          "indexed": false,
          "internalType": "uint256",
          "name": "value",
          "type": "uint256"
        }
      ],
      "name": "Transfer",
      "type": "event"
    },
    {
      "inputs": [],
      "name": "DOMAIN_SEPARATOR",
      "outputs": [
        {
          "internalType": "bytes32",
          "name": "",
          "type": "bytes32"
        }
      ],
      "stateMutability": "view",
      "type": "function"
    },
    {
      "inputs": [],
      "name": "MINTER_ROLE",
      "outputs": [
        {
          "internalType": "bytes32",
          "name": "",
          "type": "bytes32"
        }
      ],
      "stateMutability": "view",
      "type": "function"
    },
    {
      "inputs": [],
      "name": "__msgData",
      "outputs": [
        {
          "internalType": "bytes",
          "name": "",
          "type": "bytes"
        }
      ],
      "stateMutability": "view",
      "type": "function"
    },
    {
      "inputs": [
        {
          "internalType": "address",
          "name": "owner",
          "type": "address"
        },
        {
          "internalType": "address",
          "name": "spender",
          "type": "address"
        }
      ],
      "name": "allowance",
      "outputs": [
        {
          "internalType": "uint256",
          "name": "value",
          "type": "uint256"
        }
      ],
      "stateMutability": "view",
      "type": "function"
    },
    {
      "inputs": [
        {
          "internalType": "address",
          "name": "spender",
          "type": "address"
        },
        {
          "internalType": "uint256",
          "name": "value",
          "type": "uint256"
        }
      ],
      "name": "approve",
      "outputs": [
        {
          "internalType": "bool",
          "name": "result",
          "type": "bool"
        }
      ],
      "stateMutability": "nonpayable",
      "type": "function"
    },
    {
      "inputs": [
        {
          "internalType": "address",
          "name": "owner",
          "type": "address"
        }
      ],
      "name": "balanceOf",
      "outputs": [
        {
          "internalType": "uint256",
          "name": "balance",
          "type": "uint256"
        }
      ],
      "stateMutability": "view",
      "type": "function"
    },
    {
      "inputs": [
        {
          "internalType": "address[]",
          "name": "owners",
          "type": "address[]"
        },
        {
          "internalType": "uint256[]",
          "name": "values",
          "type": "uint256[]"
        }
      ],
      "name": "batchBurnFrom",
      "outputs": [
        {
          "internalType": "bool",
          "name": "",
          "type": "bool"
        }
      ],
      "stateMutability": "nonpayable",
      "type": "function"
    },
    {
      "inputs": [
        {
          "internalType": "address[]",
          "name": "recipients",
          "type": "address[]"
        },
        {
          "internalType": "uint256[]",
          "name": "values",
          "type": "uint256[]"
        }
      ],
      "name": "batchMint",
      "outputs": [],
      "stateMutability": "nonpayable",
      "type": "function"
    },
    {
      "inputs": [
        {
          "internalType": "address[]",
          "name": "recipients",
          "type": "address[]"
        },
        {
          "internalType": "uint256[]",
          "name": "values",
          "type": "uint256[]"
        }
      ],
      "name": "batchTransfer",
      "outputs": [
        {
          "internalType": "bool",
          "name": "",
          "type": "bool"
        }
      ],
      "stateMutability": "nonpayable",
      "type": "function"
    },
    {
      "inputs": [
        {
          "internalType": "address",
          "name": "from",
          "type": "address"
        },
        {
          "internalType": "address[]",
          "name": "recipients",
          "type": "address[]"
        },
        {
          "internalType": "uint256[]",
          "name": "values",
          "type": "uint256[]"
        }
      ],
      "name": "batchTransferFrom",
      "outputs": [
        {
          "internalType": "bool",
          "name": "",
          "type": "bool"
        }
      ],
      "stateMutability": "nonpayable",
      "type": "function"
    },
    {
      "inputs": [
        {
          "internalType": "uint256",
          "name": "value",
          "type": "uint256"
        }
      ],
      "name": "burn",
      "outputs": [
        {
          "internalType": "bool",
          "name": "",
          "type": "bool"
        }
      ],
      "stateMutability": "nonpayable",
      "type": "function"
    },
    {
      "inputs": [
        {
          "internalType": "address",
          "name": "from",
          "type": "address"
        },
        {
          "internalType": "uint256",
          "name": "value",
          "type": "uint256"
        }
      ],
      "name": "burnFrom",
      "outputs": [
        {
          "internalType": "bool",
          "name": "",
          "type": "bool"
        }
      ],
      "stateMutability": "nonpayable",
      "type": "function"
    },
    {
      "inputs": [],
      "name": "decimals",
      "outputs": [
        {
          "internalType": "uint8",
          "name": "",
          "type": "uint8"
        }
      ],
      "stateMutability": "view",
      "type": "function"
    },
    {
      "inputs": [
        {
          "internalType": "address",
          "name": "spender",
          "type": "address"
        },
        {
          "internalType": "uint256",
          "name": "subtractedValue",
          "type": "uint256"
        }
      ],
      "name": "decreaseAllowance",
      "outputs": [
        {
          "internalType": "bool",
          "name": "result",
          "type": "bool"
        }
      ],
      "stateMutability": "nonpayable",
      "type": "function"
    },
    {
      "inputs": [],
      "name": "forwarderRegistry",
      "outputs": [
        {
          "internalType": "contract IForwarderRegistry",
          "name": "",
          "type": "address"
        }
      ],
      "stateMutability": "view",
      "type": "function"
    },
    {
      "inputs": [
        {
          "internalType": "bytes32",
          "name": "role",
          "type": "bytes32"
        },
        {
          "internalType": "address",
          "name": "account",
          "type": "address"
        }
      ],
      "name": "grantRole",
      "outputs": [],
      "stateMutability": "nonpayable",
      "type": "function"
    },
    {
      "inputs": [
        {
          "internalType": "bytes32",
          "name": "role",
          "type": "bytes32"
        },
        {
          "internalType": "address",
          "name": "account",
          "type": "address"
        }
      ],
      "name": "hasRole",
      "outputs": [
        {
          "internalType": "bool",
          "name": "",
          "type": "bool"
        }
      ],
      "stateMutability": "view",
      "type": "function"
    },
    {
      "inputs": [
        {
          "internalType": "address",
          "name": "spender",
          "type": "address"
        },
        {
          "internalType": "uint256",
          "name": "addedValue",
          "type": "uint256"
        }
      ],
      "name": "increaseAllowance",
      "outputs": [
        {
          "internalType": "bool",
          "name": "result",
          "type": "bool"
        }
      ],
      "stateMutability": "nonpayable",
      "type": "function"
    },
    {
      "inputs": [
        {
          "internalType": "address",
          "name": "forwarder",
          "type": "address"
        }
      ],
      "name": "isTrustedForwarder",
      "outputs": [
        {
          "internalType": "bool",
          "name": "",
          "type": "bool"
        }
      ],
      "stateMutability": "view",
      "type": "function"
    },
    {
      "inputs": [
        {
          "internalType": "address",
          "name": "to",
          "type": "address"
        },
        {
          "internalType": "uint256",
          "name": "value",
          "type": "uint256"
        }
      ],
      "name": "mint",
      "outputs": [],
      "stateMutability": "nonpayable",
      "type": "function"
    },
    {
      "inputs": [],
      "name": "name",
      "outputs": [
        {
          "internalType": "string",
          "name": "",
          "type": "string"
        }
      ],
      "stateMutability": "view",
      "type": "function"
    },
    {
      "inputs": [
        {
          "internalType": "address",
          "name": "owner",
          "type": "address"
        }
      ],
      "name": "nonces",
      "outputs": [
        {
          "internalType": "uint256",
          "name": "",
          "type": "uint256"
        }
      ],
      "stateMutability": "view",
      "type": "function"
    },
    {
      "inputs": [],
      "name": "owner",
      "outputs": [
        {
          "internalType": "address",
          "name": "",
          "type": "address"
        }
      ],
      "stateMutability": "view",
      "type": "function"
    },
    {
      "inputs": [
        {
          "internalType": "address",
          "name": "owner",
          "type": "address"
        },
        {
          "internalType": "address",
          "name": "spender",
          "type": "address"
        },
        {
          "internalType": "uint256",
          "name": "value",
          "type": "uint256"
        },
        {
          "internalType": "uint256",
          "name": "deadline",
          "type": "uint256"
        },
        {
          "internalType": "uint8",
          "name": "v",
          "type": "uint8"
        },
        {
          "internalType": "bytes32",
          "name": "r",
          "type": "bytes32"
        },
        {
          "internalType": "bytes32",
          "name": "s",
          "type": "bytes32"
        }
      ],
      "name": "permit",
      "outputs": [],
      "stateMutability": "nonpayable",
      "type": "function"
    },
    {
      "inputs": [
        {
          "internalType": "address[]",
          "name": "accounts",
          "type": "address[]"
        },
        {
          "internalType": "contract IERC20[]",
          "name": "tokens",
          "type": "address[]"
        },
        {
          "internalType": "uint256[]",
          "name": "amounts",
          "type": "uint256[]"
        }
      ],
      "name": "recoverERC20s",
      "outputs": [],
      "stateMutability": "nonpayable",
      "type": "function"
    },
    {
      "inputs": [
        {
          "internalType": "address[]",
          "name": "accounts",
          "type": "address[]"
        },
        {
          "internalType": "contract IERC721[]",
          "name": "contracts",
          "type": "address[]"
        },
        {
          "internalType": "uint256[]",
          "name": "tokenIds",
          "type": "uint256[]"
        }
      ],
      "name": "recoverERC721s",
      "outputs": [],
      "stateMutability": "nonpayable",
      "type": "function"
    },
    {
      "inputs": [
        {
          "internalType": "address payable[]",
          "name": "accounts",
          "type": "address[]"
        },
        {
          "internalType": "uint256[]",
          "name": "amounts",
          "type": "uint256[]"
        }
      ],
      "name": "recoverETH",
      "outputs": [],
      "stateMutability": "nonpayable",
      "type": "function"
    },
    {
      "inputs": [
        {
          "internalType": "bytes32",
          "name": "role",
          "type": "bytes32"
        }
      ],
      "name": "renounceRole",
      "outputs": [],
      "stateMutability": "nonpayable",
      "type": "function"
    },
    {
      "inputs": [
        {
          "internalType": "bytes32",
          "name": "role",
          "type": "bytes32"
        },
        {
          "internalType": "address",
          "name": "account",
          "type": "address"
        }
      ],
      "name": "revokeRole",
      "outputs": [],
      "stateMutability": "nonpayable",
      "type": "function"
    },
    {
      "inputs": [
        {
          "internalType": "address",
          "name": "to",
          "type": "address"
        },
        {
          "internalType": "uint256",
          "name": "value",
          "type": "uint256"
        },
        {
          "internalType": "bytes",
          "name": "data",
          "type": "bytes"
        }
      ],
      "name": "safeTransfer",
      "outputs": [
        {
          "internalType": "bool",
          "name": "",
          "type": "bool"
        }
      ],
      "stateMutability": "nonpayable",
      "type": "function"
    },
    {
      "inputs": [
        {
          "internalType": "address",
          "name": "from",
          "type": "address"
        },
        {
          "internalType": "address",
          "name": "to",
          "type": "address"
        },
        {
          "internalType": "uint256",
          "name": "value",
          "type": "uint256"
        },
        {
          "internalType": "bytes",
          "name": "data",
          "type": "bytes"
        }
      ],
      "name": "safeTransferFrom",
      "outputs": [
        {
          "internalType": "bool",
          "name": "",
          "type": "bool"
        }
      ],
      "stateMutability": "nonpayable",
      "type": "function"
    },
    {
      "inputs": [
        {
          "internalType": "string",
          "name": "uri",
          "type": "string"
        }
      ],
      "name": "setTokenURI",
      "outputs": [],
      "stateMutability": "nonpayable",
      "type": "function"
    },
    {
      "inputs": [
        {
          "internalType": "bytes4",
          "name": "interfaceId",
          "type": "bytes4"
        }
      ],
      "name": "supportsInterface",
      "outputs": [
        {
          "internalType": "bool",
          "name": "",
          "type": "bool"
        }
      ],
      "stateMutability": "view",
      "type": "function"
    },
    {
      "inputs": [],
      "name": "symbol",
      "outputs": [
        {
          "internalType": "string",
          "name": "",
          "type": "string"
        }
      ],
      "stateMutability": "view",
      "type": "function"
    },
    {
      "inputs": [],
      "name": "tokenURI",
      "outputs": [
        {
          "internalType": "string",
          "name": "",
          "type": "string"
        }
      ],
      "stateMutability": "view",
      "type": "function"
    },
    {
      "inputs": [],
      "name": "totalSupply",
      "outputs": [
        {
          "internalType": "uint256",
          "name": "supply",
          "type": "uint256"
        }
      ],
      "stateMutability": "view",
      "type": "function"
    },
    {
      "inputs": [
        {
          "internalType": "address",
          "name": "to",
          "type": "address"
        },
        {
          "internalType": "uint256",
          "name": "value",
          "type": "uint256"
        }
      ],
      "name": "transfer",
      "outputs": [
        {
          "internalType": "bool",
          "name": "result",
          "type": "bool"
        }
      ],
      "stateMutability": "nonpayable",
      "type": "function"
    },
    {
      "inputs": [
        {
          "internalType": "address",
          "name": "from",
          "type": "address"
        },
        {
          "internalType": "address",
          "name": "to",
          "type": "address"
        },
        {
          "internalType": "uint256",
          "name": "value",
          "type": "uint256"
        }
      ],
      "name": "transferFrom",
      "outputs": [
        {
          "internalType": "bool",
          "name": "result",
          "type": "bool"
        }
      ],
      "stateMutability": "nonpayable",
      "type": "function"
    },
    {
      "inputs": [
        {
          "internalType": "address",
          "name": "newOwner",
          "type": "address"
        }
      ],
      "name": "transferOwnership",
      "outputs": [],
      "stateMutability": "nonpayable",
      "type": "function"
    }
  ],
  "bytecode": "0x60a06040523480156200001157600080fd5b506040516200516938038062005169833981016040819052620000349162000561565b83838383808033868686620000536200015160201b62000f131760201c565b620000858383836200006f620001b560201b62000f771760201c565b620001eb60201b62000fa517909392919060201c565b505050620000b681620000a26200025a60201b620010241760201c565b6200028a60201b620010521790919060201c565b50620000cc6200030860201b620011081760201c565b620000e16200032d60201b620011381760201c565b620000f66200035060201b620011661760201c565b6200010b6200037360201b620011941760201c565b620001206200039660201b620011c21760201c565b62000135620003b960201b620011f01760201c565b6001600160a01b03166080525062000782975050505050505050565b600062000168620003dc60201b6200121a1760201c565b90506200018e6336372b0760e01b6001836200040c60201b62001248179092919060201c565b620001b2634e83a8c360e11b6001836200040c60201b62001248179092919060201c565b50565b600080620001e560017f335df4119bbb04f056b33eba33b826d3529129e458faf6daa9924b5a8f3b6a8262000605565b92915050565b83620001f88482620006b6565b5060018401620002098382620006b6565b5060028401805460ff191660ff83161790556200025463a219a02560e01b60016200023f620003dc602090811b6200121a17901c565b6200040c60201b62001248179092919060201c565b50505050565b600080620001e560017fc9ed16f33ab3a66c84bfd83099ccb2a8845871e2e1c1928f63797152f0fd54cd62000605565b6001600160a01b03811615620002e15781546001600160a01b0319166001600160a01b03821690811783556040516000907f8be0079c531659141344cd1fd0a4f28419497f9722a3daafe3b4186f6b6457e0908290a35b620003046307f5828d60e41b60016200023f620003dc60201b6200121a1760201c565b5050565b6200032b6303c130d960e41b60016200023f620003dc60201b6200121a1760201c565b565b6200032b634ec7fbed60e11b60016200023f620003dc60201b6200121a1760201c565b6200032b6353f41a9760e01b60016200023f620003dc60201b6200121a1760201c565b6200032b63602993f360e11b60016200023f620003dc60201b6200121a1760201c565b6200032b63144b1f0f60e11b60016200023f620003dc60201b6200121a1760201c565b6200032b6320c07ed160e01b60016200023f620003dc60201b6200121a1760201c565b600080620001e560017fca9d3e17f264b0f3984e2634e94adb37fa3e6a8103f06aeae6fa59e21c769f5e62000605565b600160e01b6001600160e01b03198316016200046e5760405162461bcd60e51b815260206004820152601f60248201527f496e74657266616365446574656374696f6e3a2077726f6e672076616c756500604482015260640160405180910390fd5b6001600160e01b03199190911660009081526020929092526040909120805460ff1916911515919091179055565b634e487b7160e01b600052604160045260246000fd5b600082601f830112620004c457600080fd5b81516001600160401b0380821115620004e157620004e16200049c565b604051601f8301601f19908116603f011681019082821181831017156200050c576200050c6200049c565b816040528381526020925086838588010111156200052957600080fd5b600091505b838210156200054d57858201830151818301840152908201906200052e565b600093810190920192909252949350505050565b600080600080608085870312156200057857600080fd5b84516001600160401b03808211156200059057600080fd5b6200059e88838901620004b2565b95506020870151915080821115620005b557600080fd5b50620005c487828801620004b2565b935050604085015160ff81168114620005dc57600080fd5b60608601519092506001600160a01b0381168114620005fa57600080fd5b939692955090935050565b81810381811115620001e557634e487b7160e01b600052601160045260246000fd5b600181811c908216806200063c57607f821691505b6020821081036200065d57634e487b7160e01b600052602260045260246000fd5b50919050565b601f821115620006b157600081815260208120601f850160051c810160208610156200068c5750805b601f850160051c820191505b81811015620006ad5782815560010162000698565b5050505b505050565b81516001600160401b03811115620006d257620006d26200049c565b620006ea81620006e3845462000627565b8462000663565b602080601f831160018114620007225760008415620007095750858301515b600019600386901b1c1916600185901b178555620006ad565b600085815260208120601f198616915b82811015620007535788860151825594840194600190910190840162000732565b5085821015620007725787850151600019600388901b60f8161c191681555b5050505050600190811b01905550565b6080516149a8620007c1600039600081816103400152818161043601528181613741015281816137c90152818161387c01526138ba01526149a86000f3fe608060405234801561001057600080fd5b50600436106102ad5760003560e01c806373c8a9581161017b578063b88d4fde116100d8578063dd62ed3e1161008c578063eb79554911610071578063eb795549146105da578063f2fde38b146105ed578063f7ba94bd1461060057600080fd5b8063dd62ed3e146105b4578063e0df5b6f146105c757600080fd5b8063d505accf116100bd578063d505accf14610567578063d53913931461057a578063d547741f146105a157600080fd5b8063b88d4fde14610541578063c3666c361461055457600080fd5b80638da5cb5b1161012f57806395d89b411161011457806395d89b4114610513578063a457c2d71461051b578063a9059cbb1461052e57600080fd5b80638da5cb5b146104f857806391d148541461050057600080fd5b80637ecebe00116101605780637ecebe00146104bf57806388d695b2146104d25780638bb9c5bf146104e557600080fd5b806373c8a9581461049957806379cc6790146104ac57600080fd5b806331e66e1e1161022957806342966c68116101dd578063572b6c05116101c2578063572b6c0514610426578063685731071461047357806370a082311461048657600080fd5b806342966c68146104005780634885b2541461041357600080fd5b8063395093511161020e57806339509351146103d25780633c130d90146103e557806340c10f19146103ed57600080fd5b806331e66e1e146103b45780633644e515146103ca57600080fd5b80631b9a7529116102805780632b4c9f16116102655780632b4c9f161461033e5780632f2ff15d14610385578063313ce5671461039a57600080fd5b80631b9a75291461031857806323b872dd1461032b57600080fd5b806301ffc9a7146102b257806306fdde03146102da578063095ea7b3146102ef57806318160ddd14610302575b600080fd5b6102c56102c0366004613f43565b610613565b60405190151581526020015b60405180910390f35b6102e261062d565b6040516102d19190613fce565b6102c56102fd366004614003565b610644565b61030a61066c565b6040519081526020016102d1565b6102c561032636600461407b565b610680565b6102c56103393660046140e7565b6106af565b7f00000000000000000000000000000000000000000000000000000000000000005b60405173ffffffffffffffffffffffffffffffffffffffff90911681526020016102d1565b610398610393366004614128565b6106da565b005b6103a2610713565b60405160ff90911681526020016102d1565b6103bc61072a565b6040516102d1929190614158565b61030a61073d565b6102c56103e0366004614003565b610747565b6102e2610766565b6103986103fb366004614003565b610773565b6102c561040e3660046141a5565b6107c6565b6102c56104213660046141be565b6107eb565b6102c5610434366004614241565b7f000000000000000000000000000000000000000000000000000000000000000073ffffffffffffffffffffffffffffffffffffffff90811691161490565b61039861048136600461407b565b61081c565b61030a610494366004614241565b6108c6565b6103986104a736600461425e565b6108fe565b6102c56104ba366004614003565b610a2e565b61030a6104cd366004614241565b610a4d565b6102c56104e036600461407b565b610a5b565b6103986104f33660046141a5565b610a7e565b610360610a9c565b6102c561050e366004614128565b610ac3565b6102e2610b0e565b6102c5610529366004614003565b610b20565b6102c561053c366004614003565b610b3f565b6102c561054f36600461433a565b610b5e565b61039861056236600461425e565b610b83565b61039861057536600461439c565b610d28565b61030a7f6d696e746572000000000000000000000000000000000000000000000000000081565b6103986105af366004614128565b610d4f565b61030a6105c2366004614413565b610d7d565b6103986105d5366004614441565b610dc8565b6102c56105e8366004614483565b610de7565b6103986105fb366004614241565b610e0a565b61039861060e36600461407b565b610e25565b60006106278261062161121a565b90611354565b92915050565b606061063f61063a610f77565b61142e565b905090565b60006106636106516114c4565b848461065b6114ce565b9291906114fc565b50600192915050565b600061063f6106796114ce565b6002015490565b60006106a361068d6114c4565b868686866106996114ce565b94939291906115eb565b5060015b949350505050565b60006106d06106bc6114c4565b8585856106c76114ce565b9392919061182d565b5060019392505050565b60006106e46114c4565b90506106f8816106f2611024565b9061187f565b61070e838383610706611902565b929190611930565b505050565b600061063f610720610f77565b6002015460ff1690565b366000610735611a06565b915091509091565b600061063f611a11565b60006106636107546114c4565b848461075e6114ce565b929190611aac565b606061063f61063a611c78565b6107ae7f6d696e746572000000000000000000000000000000000000000000000000000061079f6114c4565b6107a7611902565b9190611ca6565b6107c282826107bb6114ce565b9190611d52565b5050565b60006107e36107d36114c4565b836107dc6114ce565b9190611ecc565b506001919050565b60006108106107f86114c4565b87878787876108056114ce565b959493929190611fe2565b50600195945050505050565b6108487f6d696e746572000000000000000000000000000000000000000000000000000061079f6114c4565b6108c0848480806020026020016040519081016040528093929190818152602001838360200280828437600092019190915250506040805160208088028281018201909352878252909350879250869182918501908490808284376000920191909152506108b992506114ce915050565b9190612428565b50505050565b6000610627826108d46114ce565b9073ffffffffffffffffffffffffffffffffffffffff166000908152602091909152604090205490565b6109116109096114c4565b6106f2611024565b84838114801561092057508082145b61098b576040517f08c379a000000000000000000000000000000000000000000000000000000000815260206004820152601d60248201527f5265636f766572793a20696e636f6e73697374656e742061727261797300000060448201526064015b60405180910390fd5b60005b818114610a2457610a1c8888838181106109aa576109aa6144d3565b90506020020160208101906109bf9190614241565b8585848181106109d1576109d16144d3565b905060200201358888858181106109ea576109ea6144d3565b90506020020160208101906109ff9190614241565b73ffffffffffffffffffffffffffffffffffffffff1691906126fe565b60010161098e565b5050505050505050565b6000610663610a3b6114c4565b8484610a456114ce565b92919061278b565b6000610627826108d46127d5565b60006106a3610a686114c4565b86868686610a746114ce565b9493929190612803565b610a99610a896114c4565b82610a92611902565b9190612be5565b50565b600061063f610aa9611024565b5473ffffffffffffffffffffffffffffffffffffffff1690565b6000610b078383610ad2611902565b60009283526020908152604080842073ffffffffffffffffffffffffffffffffffffffff909316845291905290205460ff1690565b9392505050565b606061063f610b1b610f77565b612c89565b6000610663610b2d6114c4565b8484610b376114ce565b929190612c9a565b6000610663610b4c6114c4565b8484610b566114ce565b929190612dec565b6000610810610b6b6114c4565b8787878787610b786114ce565b959493929190612fcd565b610b8e6109096114c4565b848381148015610b9d57508082145b610c03576040517f08c379a000000000000000000000000000000000000000000000000000000000815260206004820152601d60248201527f5265636f766572793a20696e636f6e73697374656e74206172726179730000006044820152606401610982565b60005b818114610a2457858582818110610c1f57610c1f6144d3565b9050602002016020810190610c349190614241565b73ffffffffffffffffffffffffffffffffffffffff166323b872dd308a8a85818110610c6257610c626144d3565b9050602002016020810190610c779190614241565b878786818110610c8957610c896144d3565b6040517fffffffff0000000000000000000000000000000000000000000000000000000060e088901b16815273ffffffffffffffffffffffffffffffffffffffff958616600482015294909316602485015250602090910201356044820152606401600060405180830381600087803b158015610d0557600080fd5b505af1158015610d19573d6000803e3d6000fd5b50505050806001019050610c06565b610d4687878787878787610d3a6127d5565b9695949392919061303a565b50505050505050565b6000610d596114c4565b9050610d67816106f2611024565b61070e838383610d75611902565b929190613336565b6000610b078383610d8c6114ce565b919073ffffffffffffffffffffffffffffffffffffffff9182166000908152600193909301602090815260408085209290931684525290205490565b610dd36109096114c4565b6107c28282610de0611c78565b9190613400565b60006106a3610df46114c4565b86868686610e006114ce565b949392919061340c565b610a99610e156114c4565b82610e1e611024565b9190613478565b610e306109096114c4565b82818114610e9a576040517f08c379a000000000000000000000000000000000000000000000000000000000815260206004820152601d60248201527f5265636f766572793a20696e636f6e73697374656e74206172726179730000006044820152606401610982565b60005b818114610f0b57610f03848483818110610eb957610eb96144d3565b90506020020135878784818110610ed257610ed26144d3565b9050602002016020810190610ee79190614241565b73ffffffffffffffffffffffffffffffffffffffff16906135a4565b600101610e9d565b505050505050565b6000610f1d61121a565b9050610f4b817f36372b07000000000000000000000000000000000000000000000000000000006001611248565b610a99817f9d075186000000000000000000000000000000000000000000000000000000006001611248565b60008061062760017f335df4119bbb04f056b33eba33b826d3529129e458faf6daa9924b5a8f3b6a82614502565b83610fb08482614604565b5060018401610fbf8382614604565b506002840180547fffffffffffffffffffffffffffffffffffffffffffffffffffffffffffffff001660ff83161790556108c07fa219a02500000000000000000000000000000000000000000000000000000000600161101d61121a565b9190611248565b60008061062760017fc9ed16f33ab3a66c84bfd83099ccb2a8845871e2e1c1928f63797152f0fd54cd614502565b73ffffffffffffffffffffffffffffffffffffffff8116156110da5781547fffffffffffffffffffffffff00000000000000000000000000000000000000001673ffffffffffffffffffffffffffffffffffffffff821690811783556040516000907f8be0079c531659141344cd1fd0a4f28419497f9722a3daafe3b4186f6b6457e0908290a35b6107c27f7f5828d000000000000000000000000000000000000000000000000000000000600161101d61121a565b6111367f3c130d9000000000000000000000000000000000000000000000000000000000600161101d61121a565b565b6111367f9d8ff7da00000000000000000000000000000000000000000000000000000000600161101d61121a565b6111367f53f41a9700000000000000000000000000000000000000000000000000000000600161101d61121a565b6111367fc05327e600000000000000000000000000000000000000000000000000000000600161101d61121a565b6111367f28963e1e00000000000000000000000000000000000000000000000000000000600161101d61121a565b6111367f20c07ed100000000000000000000000000000000000000000000000000000000600161101d5b60008061062760017fca9d3e17f264b0f3984e2634e94adb37fa3e6a8103f06aeae6fa59e21c769f5e614502565b7c01000000000000000000000000000000000000000000000000000000007fffffffff000000000000000000000000000000000000000000000000000000008316016112f0576040517f08c379a000000000000000000000000000000000000000000000000000000000815260206004820152601f60248201527f496e74657266616365446574656374696f6e3a2077726f6e672076616c7565006044820152606401610982565b7fffffffff00000000000000000000000000000000000000000000000000000000919091166000908152602092909252604090912080547fffffffffffffffffffffffffffffffffffffffffffffffffffffffffffffff0016911515919091179055565b60007c01000000000000000000000000000000000000000000000000000000007fffffffff000000000000000000000000000000000000000000000000000000008316016113a457506000610627565b7ffe003659000000000000000000000000000000000000000000000000000000007fffffffff000000000000000000000000000000000000000000000000000000008316016113f557506001610627565b507fffffffff00000000000000000000000000000000000000000000000000000000166000908152602091909152604090205460ff1690565b606081600001805461143f9061456b565b80601f016020809104026020016040519081016040528092919081815260200182805461146b9061456b565b80156114b85780601f1061148d576101008083540402835291602001916114b8565b820191906000526020600020905b81548152906001019060200180831161149b57829003601f168201915b50505050509050919050565b600061063f6136fe565b60008061062760017f1da92899d3da68bf9787824388a37ea2bfa79780bcef91b9716c390eec8ecbef614502565b73ffffffffffffffffffffffffffffffffffffffff8216611579576040517f08c379a000000000000000000000000000000000000000000000000000000000815260206004820152601d60248201527f45524332303a20617070726f76616c20746f20616464726573732830290000006044820152606401610982565b73ffffffffffffffffffffffffffffffffffffffff838116600081815260018701602090815260408083209487168084529482529182902085905590518481527f8c5be1e5ebec7d5bd14f71427d1e84f3dd0314c0f7b2291e5b200ac8c7c3b92591015b60405180910390a350505050565b82818114611655576040517f08c379a000000000000000000000000000000000000000000000000000000000815260206004820152601a60248201527f45524332303a20696e636f6e73697374656e74206172726179730000000000006044820152606401610982565b806000036116635750610f0b565b6000805b828114611811576000878783818110611682576116826144d3565b90506020020160208101906116979190614241565b905060008686848181106116ad576116ad6144d3565b9050602002013590508973ffffffffffffffffffffffffffffffffffffffff168273ffffffffffffffffffffffffffffffffffffffff16146116f5576116f58b838c84612c9a565b80156117b95773ffffffffffffffffffffffffffffffffffffffff8216600090815260208c9052604090205481810381811061178d576040517f08c379a000000000000000000000000000000000000000000000000000000000815260206004820152601b60248201527f45524332303a20696e73756666696369656e742062616c616e636500000000006044820152606401610982565b73ffffffffffffffffffffffffffffffffffffffff8416600090815260208e9052604090205550928301925b60405181815260009073ffffffffffffffffffffffffffffffffffffffff8416907fddf252ad1be2c89b69c2b068fc378daa952ba7f163c4a11628f55a4df523b3ef9060200160405180910390a35050600101611667565b508015610a245760028801805482900390555050505050505050565b8373ffffffffffffffffffffffffffffffffffffffff168373ffffffffffffffffffffffffffffffffffffffff161461186c5761186c85848684612c9a565b61187885848484612dec565b5050505050565b815473ffffffffffffffffffffffffffffffffffffffff8281169116146107c2576040517f08c379a000000000000000000000000000000000000000000000000000000000815260206004820152601860248201527f4f776e6572736869703a206e6f7420746865206f776e657200000000000000006044820152606401610982565b60008061062760017fc8827d3282af6f37b64c3e9e6f3ac9df286ab0bb0fccd6f8661bf19adb368b23614502565b60008381526020858152604080832073ffffffffffffffffffffffffffffffffffffffff8616845290915290205460ff166108c05760008381526020858152604080832073ffffffffffffffffffffffffffffffffffffffff8681168086529184529382902080547fffffffffffffffffffffffffffffffffffffffffffffffffffffffffffffff00166001179055815187815292830152918316918101919091527f2f8788117e7eff1d82e926ec794901d17c78024a50270940304540a733656f0d906060015b60405180910390a150505050565b366000610735613845565b6000467f8b73c3c69bb8fe3d512ecc4cf759cc79239f7b179b0ffacaa9a75d522b39400f611a4061063a610f77565b80516020918201206040805192830193909352918101919091527fc89efdaa54c0f20c7adf612882df0950f5a951637e0307cdcb4c672f298b8bc66060820152608081018290523060a082015260c0016040516020818303038152906040528051906020012091505090565b73ffffffffffffffffffffffffffffffffffffffff8216611b29576040517f08c379a000000000000000000000000000000000000000000000000000000000815260206004820152601d60248201527f45524332303a20617070726f76616c20746f20616464726573732830290000006044820152606401610982565b73ffffffffffffffffffffffffffffffffffffffff80841660009081526001860160209081526040808320938616835292905220548115611c0a57808201818111611bd0576040517f08c379a000000000000000000000000000000000000000000000000000000000815260206004820152601960248201527f45524332303a20616c6c6f77616e6365206f766572666c6f77000000000000006044820152606401610982565b73ffffffffffffffffffffffffffffffffffffffff8086166000908152600188016020908152604080832093881683529290522081905590505b8273ffffffffffffffffffffffffffffffffffffffff168473ffffffffffffffffffffffffffffffffffffffff167f8c5be1e5ebec7d5bd14f71427d1e84f3dd0314c0f7b2291e5b200ac8c7c3b92583604051611c6991815260200190565b60405180910390a35050505050565b60008061062760017ff41bf6a5db26bffdfab174dcf66b31fbba8fdb7e3db040721ce1e62d61839ceb614502565b60008281526020848152604080832073ffffffffffffffffffffffffffffffffffffffff8516845290915290205460ff1661070e57611ce4826139af565b604051602001611cf4919061471e565b604080517fffffffffffffffffffffffffffffffffffffffffffffffffffffffffffffffe0818403018152908290527f08c379a000000000000000000000000000000000000000000000000000000000825261098291600401613fce565b73ffffffffffffffffffffffffffffffffffffffff8216611dcf576040517f08c379a000000000000000000000000000000000000000000000000000000000815260206004820152601960248201527f45524332303a206d696e7420746f2061646472657373283029000000000000006044820152606401610982565b8015611e78576002830154818101818111611e46576040517f08c379a000000000000000000000000000000000000000000000000000000000815260206004820152601660248201527f45524332303a20737570706c79206f766572666c6f77000000000000000000006044820152606401610982565b60028501555073ffffffffffffffffffffffffffffffffffffffff821660009081526020849052604090208054820190555b60405181815273ffffffffffffffffffffffffffffffffffffffff8316906000907fddf252ad1be2c89b69c2b068fc378daa952ba7f163c4a11628f55a4df523b3ef906020015b60405180910390a3505050565b8015611f975773ffffffffffffffffffffffffffffffffffffffff8216600090815260208490526040902054818103818110611f64576040517f08c379a000000000000000000000000000000000000000000000000000000000815260206004820152601b60248201527f45524332303a20696e73756666696369656e742062616c616e636500000000006044820152606401610982565b73ffffffffffffffffffffffffffffffffffffffff84166000908152602086905260409020555060028301805482900390555b60405181815260009073ffffffffffffffffffffffffffffffffffffffff8416907fddf252ad1be2c89b69c2b068fc378daa952ba7f163c4a11628f55a4df523b3ef90602001611ebf565b8281811461204c576040517f08c379a000000000000000000000000000000000000000000000000000000000815260206004820152601a60248201527f45524332303a20696e636f6e73697374656e74206172726179730000000000006044820152606401610982565b8060000361205a5750610d46565b73ffffffffffffffffffffffffffffffffffffffff86166000908152602089905260408120549080805b84811461233057600089898381811061209f5761209f6144d3565b90506020020160208101906120b49190614241565b905073ffffffffffffffffffffffffffffffffffffffff8116612133576040517f08c379a000000000000000000000000000000000000000000000000000000000815260206004820152601d60248201527f45524332303a207472616e7366657220746f20616464726573732830290000006044820152606401610982565b6000888884818110612147576121476144d3565b905060200201359050806000146122bf578481018581116121c4576040517f08c379a000000000000000000000000000000000000000000000000000000000815260206004820152601660248201527f45524332303a2076616c756573206f766572666c6f77000000000000000000006044820152606401610982565b8095508273ffffffffffffffffffffffffffffffffffffffff168d73ffffffffffffffffffffffffffffffffffffffff161461224e57818f60000160008573ffffffffffffffffffffffffffffffffffffffff1673ffffffffffffffffffffffffffffffffffffffff168152602001908152602001600020600082825401925050819055506122bd565b868211156122b8576040517f08c379a000000000000000000000000000000000000000000000000000000000815260206004820152601b60248201527f45524332303a20696e73756666696369656e742062616c616e636500000000006044820152606401610982565b938101935b505b8173ffffffffffffffffffffffffffffffffffffffff168c73ffffffffffffffffffffffffffffffffffffffff167fddf252ad1be2c89b69c2b068fc378daa952ba7f163c4a11628f55a4df523b3ef8360405161231e91815260200190565b60405180910390a35050600101612084565b5081158015906123405750808214155b156123dc578183038381106123b1576040517f08c379a000000000000000000000000000000000000000000000000000000000815260206004820152601b60248201527f45524332303a20696e73756666696369656e742062616c616e636500000000006044820152606401610982565b73ffffffffffffffffffffffffffffffffffffffff8a16600090815260208d90526040902090820190555b8973ffffffffffffffffffffffffffffffffffffffff168973ffffffffffffffffffffffffffffffffffffffff161461241b5761241b8b8a8c85612c9a565b5050505050505050505050565b815181518114612494576040517f08c379a000000000000000000000000000000000000000000000000000000000815260206004820152601a60248201527f45524332303a20696e636f6e73697374656e74206172726179730000000000006044820152606401610982565b806000036124a25750505050565b6000805b8281146126795760008582815181106124c1576124c16144d3565b60200260200101519050600073ffffffffffffffffffffffffffffffffffffffff168173ffffffffffffffffffffffffffffffffffffffff1603612561576040517f08c379a000000000000000000000000000000000000000000000000000000000815260206004820152601960248201527f45524332303a206d696e7420746f2061646472657373283029000000000000006044820152606401610982565b6000858381518110612575576125756144d3565b6020026020010151905080600014612621578381018481116125f3576040517f08c379a000000000000000000000000000000000000000000000000000000000815260206004820152601660248201527f45524332303a2076616c756573206f766572666c6f77000000000000000000006044820152606401610982565b73ffffffffffffffffffffffffffffffffffffffff8316600090815260208a90526040902080548301905593505b60405181815273ffffffffffffffffffffffffffffffffffffffff8316906000907fddf252ad1be2c89b69c2b068fc378daa952ba7f163c4a11628f55a4df523b3ef9060200160405180910390a350506001016124a6565b5080156118785760028501548181018181116126f1576040517f08c379a000000000000000000000000000000000000000000000000000000000815260206004820152601660248201527f45524332303a20737570706c79206f766572666c6f77000000000000000000006044820152606401610982565b6002870155505050505050565b6040805173ffffffffffffffffffffffffffffffffffffffff8416602482015260448082018490528251808303909101815260649091019091526020810180517bffffffffffffffffffffffffffffffffffffffffffffffffffffffff167fa9059cbb0000000000000000000000000000000000000000000000000000000017905261070e908490613b41565b8273ffffffffffffffffffffffffffffffffffffffff168273ffffffffffffffffffffffffffffffffffffffff16146127ca576127ca84838584612c9a565b6108c0848383611ecc565b60008061062760017f93fe0ff7226b064a4a8f0b09910762afb4bc2441835792c021ffd78cd513011e614502565b8281811461286d576040517f08c379a000000000000000000000000000000000000000000000000000000000815260206004820152601a60248201527f45524332303a20696e636f6e73697374656e74206172726179730000000000006044820152606401610982565b8060000361287b5750610f0b565b73ffffffffffffffffffffffffffffffffffffffff86166000908152602088905260408120549080805b848114612b2d5760008989838181106128c0576128c06144d3565b90506020020160208101906128d59190614241565b905073ffffffffffffffffffffffffffffffffffffffff8116612954576040517f08c379a000000000000000000000000000000000000000000000000000000000815260206004820152601d60248201527f45524332303a207472616e7366657220746f20616464726573732830290000006044820152606401610982565b6000888884818110612968576129686144d3565b90506020020135905080600014612abc578481018581116129e5576040517f08c379a000000000000000000000000000000000000000000000000000000000815260206004820152601660248201527f45524332303a2076616c756573206f766572666c6f77000000000000000000006044820152606401610982565b8095508273ffffffffffffffffffffffffffffffffffffffff168d73ffffffffffffffffffffffffffffffffffffffff1614612a4b5773ffffffffffffffffffffffffffffffffffffffff8316600090815260208f905260409020805483019055612aba565b86821115612ab5576040517f08c379a000000000000000000000000000000000000000000000000000000000815260206004820152601b60248201527f45524332303a20696e73756666696369656e742062616c616e636500000000006044820152606401610982565b938101935b505b8173ffffffffffffffffffffffffffffffffffffffff168c73ffffffffffffffffffffffffffffffffffffffff167fddf252ad1be2c89b69c2b068fc378daa952ba7f163c4a11628f55a4df523b3ef83604051612b1b91815260200190565b60405180910390a350506001016128a5565b508115801590612b3d5750808214155b15612bd957818303838110612bae576040517f08c379a000000000000000000000000000000000000000000000000000000000815260206004820152601b60248201527f45524332303a20696e73756666696369656e742062616c616e636500000000006044820152606401610982565b73ffffffffffffffffffffffffffffffffffffffff8a16600090815260208c90526040902090820190555b50505050505050505050565b612bf0838284611ca6565b60008181526020848152604080832073ffffffffffffffffffffffffffffffffffffffff86168085529083529281902080547fffffffffffffffffffffffffffffffffffffffffffffffffffffffffffffff0016905580518481529182018390528101919091527ff6391f5c32d9c69d2a47ea670b442974b53935d1edc7fd64eb21e047a839171b9060600160405180910390a1505050565b606081600101805461143f9061456b565b73ffffffffffffffffffffffffffffffffffffffff8216612d17576040517f08c379a000000000000000000000000000000000000000000000000000000000815260206004820152601d60248201527f45524332303a20617070726f76616c20746f20616464726573732830290000006044820152606401610982565b73ffffffffffffffffffffffffffffffffffffffff80841660009081526001860160209081526040808320938616835292905220547fffffffffffffffffffffffffffffffffffffffffffffffffffffffffffffffff8114801590612d7b57508115155b15611c0a57818103818110611bd0576040517f08c379a000000000000000000000000000000000000000000000000000000000815260206004820152601d60248201527f45524332303a20696e73756666696369656e7420616c6c6f77616e63650000006044820152606401610982565b73ffffffffffffffffffffffffffffffffffffffff8216612e69576040517f08c379a000000000000000000000000000000000000000000000000000000000815260206004820152601d60248201527f45524332303a207472616e7366657220746f20616464726573732830290000006044820152606401610982565b8015612f6e5773ffffffffffffffffffffffffffffffffffffffff8316600090815260208590526040902054818103818110612f01576040517f08c379a000000000000000000000000000000000000000000000000000000000815260206004820152601b60248201527f45524332303a20696e73756666696369656e742062616c616e636500000000006044820152606401610982565b8373ffffffffffffffffffffffffffffffffffffffff168573ffffffffffffffffffffffffffffffffffffffff1614612f6b5773ffffffffffffffffffffffffffffffffffffffff8086166000908152602088905260408082208490559186168152208054840190555b50505b8173ffffffffffffffffffffffffffffffffffffffff168373ffffffffffffffffffffffffffffffffffffffff167fddf252ad1be2c89b69c2b068fc378daa952ba7f163c4a11628f55a4df523b3ef836040516115dd91815260200190565b612fda878787878761182d565b73ffffffffffffffffffffffffffffffffffffffff84163b15610d4657610d468686868686868080601f016020809104026020016040519081016040528093929190818152602001838380828437600092019190915250613c4d92505050565b73ffffffffffffffffffffffffffffffffffffffff87166130b7576040517f08c379a000000000000000000000000000000000000000000000000000000000815260206004820152601d60248201527f45524332303a207065726d69742066726f6d20616464726573732830290000006044820152606401610982565b83421115613121576040517f08c379a000000000000000000000000000000000000000000000000000000000815260206004820152601560248201527f45524332303a2065787069726564207065726d697400000000000000000000006044820152606401610982565b73ffffffffffffffffffffffffffffffffffffffff878116600081815260208b8152604080832080546001810190915581517f6e71edae12b1b97f4d1f60370fef10105fa2faae0126114a169c64845d6126c98185015280830195909552948b166060850152608084018a905260a084019490945260c08084018990528451808503909101815260e090930190935281519190920120906131c0611a11565b6040517f19010000000000000000000000000000000000000000000000000000000000006020820152602281019190915260428101839052606201604080517fffffffffffffffffffffffffffffffffffffffffffffffffffffffffffffffe08184030181528282528051602091820120600080855291840180845281905260ff89169284019290925260608301879052608083018690529092509060019060a0016020604051602081039080840390855afa158015613284573d6000803e3d6000fd5b5050506020604051035190508973ffffffffffffffffffffffffffffffffffffffff168173ffffffffffffffffffffffffffffffffffffffff1614613325576040517f08c379a000000000000000000000000000000000000000000000000000000000815260206004820152601560248201527f45524332303a20696e76616c6964207065726d697400000000000000000000006044820152606401610982565b505050610a2487878761065b6114ce565b60008381526020858152604080832073ffffffffffffffffffffffffffffffffffffffff8616845290915290205460ff16156108c05760008381526020858152604080832073ffffffffffffffffffffffffffffffffffffffff8681168086529184529382902080547fffffffffffffffffffffffffffffffffffffffffffffffffffffffffffffff00169055815187815292830152918316918101919091527ff6391f5c32d9c69d2a47ea670b442974b53935d1edc7fd64eb21e047a839171b906060016119f8565b826108c082848361478a565b61341886868686612dec565b73ffffffffffffffffffffffffffffffffffffffff84163b15610f0b57610f0b8586868686868080601f016020809104026020016040519081016040528093929190818152602001838380828437600092019190915250613c4d92505050565b825473ffffffffffffffffffffffffffffffffffffffff90811690831681146134fd576040517f08c379a000000000000000000000000000000000000000000000000000000000815260206004820152601860248201527f4f776e6572736869703a206e6f7420746865206f776e657200000000000000006044820152606401610982565b8173ffffffffffffffffffffffffffffffffffffffff168173ffffffffffffffffffffffffffffffffffffffff16146108c05783547fffffffffffffffffffffffff00000000000000000000000000000000000000001673ffffffffffffffffffffffffffffffffffffffff8381169182178655604051908316907f8be0079c531659141344cd1fd0a4f28419497f9722a3daafe3b4186f6b6457e090600090a350505050565b8047101561360e576040517f08c379a000000000000000000000000000000000000000000000000000000000815260206004820152601d60248201527f416464726573733a20696e73756666696369656e742062616c616e63650000006044820152606401610982565b60008273ffffffffffffffffffffffffffffffffffffffff168260405160006040518083038185875af1925050503d8060008114613668576040519150601f19603f3d011682016040523d82523d6000602084013e61366d565b606091505b505090508061070e576040517f08c379a000000000000000000000000000000000000000000000000000000000815260206004820152603a60248201527f416464726573733a20756e61626c6520746f2073656e642076616c75652c207260448201527f6563697069656e74206d617920686176652072657665727465640000000000006064820152608401610982565b60003332148061370e5750601836105b1561371857503390565b7fffffffffffffffffffffffffffffffffffffffffffffffffffffffffffffffec36013560601c7f000000000000000000000000000000000000000000000000000000000000000073ffffffffffffffffffffffffffffffffffffffff1633148061383457506040517f8929a8ca00000000000000000000000000000000000000000000000000000000815273ffffffffffffffffffffffffffffffffffffffff82811660048301523360248301527f00000000000000000000000000000000000000000000000000000000000000001690638929a8ca90604401602060405180830381865afa158015613810573d6000803e3d6000fd5b505050506040513d601f19601f8201168201806040525081019061383491906148a4565b1561383e57919050565b3391505090565b366000333214806138565750601836105b156138645750600091369150565b3373ffffffffffffffffffffffffffffffffffffffff7f0000000000000000000000000000000000000000000000000000000000000000161480613999575073ffffffffffffffffffffffffffffffffffffffff7f000000000000000000000000000000000000000000000000000000000000000016638929a8ca367fffffffffffffffffffffffffffffffffffffffffffffffffffffffffffffffec013560601c6040517fffffffff0000000000000000000000000000000000000000000000000000000060e084901b16815273ffffffffffffffffffffffffffffffffffffffff9091166004820152336024820152604401602060405180830381865afa158015613975573d6000803e3d6000fd5b505050506040513d601f19601f8201168201806040525081019061399991906148a4565b156139a657610735613d73565b50600091369150565b606060008290036139ce57505060408051602081019091526000815290565b6000826040516020016139e391815260200190565b604080517fffffffffffffffffffffffffffffffffffffffffffffffffffffffffffffffe08184030181529190529050601f5b818181518110613a2857613a286144d3565b01602001517fff0000000000000000000000000000000000000000000000000000000000000016600003613a7d577fffffffffffffffffffffffffffffffffffffffffffffffffffffffffffffffff01613a16565b60008160010167ffffffffffffffff811115613a9b57613a9b61453c565b6040519080825280601f01601f191660200182016040528015613ac5576020820181803683370190505b50905060005b828111613b3857838181518110613ae457613ae46144d3565b602001015160f81c60f81b828281518110613b0157613b016144d3565b60200101907effffffffffffffffffffffffffffffffffffffffffffffffffffffffffffff1916908160001a905350600101613acb565b50949350505050565b6000613ba3826040518060400160405280602081526020017f5361666545524332303a206c6f772d6c6576656c2063616c6c206661696c65648152508573ffffffffffffffffffffffffffffffffffffffff16613da49092919063ffffffff16565b80519091501561070e5780806020019051810190613bc191906148a4565b61070e576040517f08c379a000000000000000000000000000000000000000000000000000000000815260206004820152602a60248201527f5361666545524332303a204552433230206f7065726174696f6e20646964206e60448201527f6f742073756363656564000000000000000000000000000000000000000000006064820152608401610982565b6040517f4fc35859000000000000000000000000000000000000000000000000000000008082529073ffffffffffffffffffffffffffffffffffffffff851690634fc3585990613ca79089908990889088906004016148c6565b6020604051808303816000875af1158015613cc6573d6000803e3d6000fd5b505050506040513d601f19601f82011682018060405250810190613cea919061490f565b7fffffffff000000000000000000000000000000000000000000000000000000001614611878576040517f08c379a000000000000000000000000000000000000000000000000000000000815260206004820152601d60248201527f45524332303a2073616665207472616e736665722072656a65637465640000006044820152606401610982565b3660006107357fffffffffffffffffffffffffffffffffffffffffffffffffffffffffffffffec830182848161492c565b60606106a78484600085856000808673ffffffffffffffffffffffffffffffffffffffff168587604051613dd89190614956565b60006040518083038185875af1925050503d8060008114613e15576040519150601f19603f3d011682016040523d82523d6000602084013e613e1a565b606091505b5091509150613e2b87838387613e36565b979650505050505050565b60608315613ecc578251600003613ec55773ffffffffffffffffffffffffffffffffffffffff85163b613ec5576040517f08c379a000000000000000000000000000000000000000000000000000000000815260206004820152601d60248201527f416464726573733a2063616c6c20746f206e6f6e2d636f6e74726163740000006044820152606401610982565b50816106a7565b6106a78383815115613ee15781518083602001fd5b806040517f08c379a00000000000000000000000000000000000000000000000000000000081526004016109829190613fce565b7fffffffff0000000000000000000000000000000000000000000000000000000081168114610a9957600080fd5b600060208284031215613f5557600080fd5b8135610b0781613f15565b60005b83811015613f7b578181015183820152602001613f63565b50506000910152565b60008151808452613f9c816020860160208601613f60565b601f017fffffffffffffffffffffffffffffffffffffffffffffffffffffffffffffffe0169290920160200192915050565b602081526000610b076020830184613f84565b73ffffffffffffffffffffffffffffffffffffffff81168114610a9957600080fd5b6000806040838503121561401657600080fd5b823561402181613fe1565b946020939093013593505050565b60008083601f84011261404157600080fd5b50813567ffffffffffffffff81111561405957600080fd5b6020830191508360208260051b850101111561407457600080fd5b9250929050565b6000806000806040858703121561409157600080fd5b843567ffffffffffffffff808211156140a957600080fd5b6140b58883890161402f565b909650945060208701359150808211156140ce57600080fd5b506140db8782880161402f565b95989497509550505050565b6000806000606084860312156140fc57600080fd5b833561410781613fe1565b9250602084013561411781613fe1565b929592945050506040919091013590565b6000806040838503121561413b57600080fd5b82359150602083013561414d81613fe1565b809150509250929050565b60208152816020820152818360408301376000818301604090810191909152601f9092017fffffffffffffffffffffffffffffffffffffffffffffffffffffffffffffffe0160101919050565b6000602082840312156141b757600080fd5b5035919050565b6000806000806000606086880312156141d657600080fd5b85356141e181613fe1565b9450602086013567ffffffffffffffff808211156141fe57600080fd5b61420a89838a0161402f565b9096509450604088013591508082111561422357600080fd5b506142308882890161402f565b969995985093965092949392505050565b60006020828403121561425357600080fd5b8135610b0781613fe1565b6000806000806000806060878903121561427757600080fd5b863567ffffffffffffffff8082111561428f57600080fd5b61429b8a838b0161402f565b909850965060208901359150808211156142b457600080fd5b6142c08a838b0161402f565b909650945060408901359150808211156142d957600080fd5b506142e689828a0161402f565b979a9699509497509295939492505050565b60008083601f84011261430a57600080fd5b50813567ffffffffffffffff81111561432257600080fd5b60208301915083602082850101111561407457600080fd5b60008060008060006080868803121561435257600080fd5b853561435d81613fe1565b9450602086013561436d81613fe1565b935060408601359250606086013567ffffffffffffffff81111561439057600080fd5b614230888289016142f8565b600080600080600080600060e0888a0312156143b757600080fd5b87356143c281613fe1565b965060208801356143d281613fe1565b95506040880135945060608801359350608088013560ff811681146143f657600080fd5b9699959850939692959460a0840135945060c09093013592915050565b6000806040838503121561442657600080fd5b823561443181613fe1565b9150602083013561414d81613fe1565b6000806020838503121561445457600080fd5b823567ffffffffffffffff81111561446b57600080fd5b614477858286016142f8565b90969095509350505050565b6000806000806060858703121561449957600080fd5b84356144a481613fe1565b935060208501359250604085013567ffffffffffffffff8111156144c757600080fd5b6140db878288016142f8565b7f4e487b7100000000000000000000000000000000000000000000000000000000600052603260045260246000fd5b81810381811115610627577f4e487b7100000000000000000000000000000000000000000000000000000000600052601160045260246000fd5b7f4e487b7100000000000000000000000000000000000000000000000000000000600052604160045260246000fd5b600181811c9082168061457f57607f821691505b6020821081036145b8577f4e487b7100000000000000000000000000000000000000000000000000000000600052602260045260246000fd5b50919050565b601f82111561070e57600081815260208120601f850160051c810160208610156145e55750805b601f850160051c820191505b81811015610f0b578281556001016145f1565b815167ffffffffffffffff81111561461e5761461e61453c565b6146328161462c845461456b565b846145be565b602080601f831160018114614685576000841561464f5750858301515b7fffffffffffffffffffffffffffffffffffffffffffffffffffffffffffffffff600386901b1c1916600185901b178555610f0b565b6000858152602081207fffffffffffffffffffffffffffffffffffffffffffffffffffffffffffffffe08616915b828110156146d2578886015182559484019460019091019084016146b3565b508582101561470e57878501517fffffffffffffffffffffffffffffffffffffffffffffffffffffffffffffffff600388901b60f8161c191681555b5050505050600190811b01905550565b7f416363657373436f6e74726f6c3a206d697373696e6720270000000000000000815260008251614756816018850160208701613f60565b7f2720726f6c6500000000000000000000000000000000000000000000000000006018939091019283015250601e01919050565b67ffffffffffffffff8311156147a2576147a261453c565b6147b6836147b0835461456b565b836145be565b6000601f84116001811461480857600085156147d25750838201355b7fffffffffffffffffffffffffffffffffffffffffffffffffffffffffffffffff600387901b1c1916600186901b178355611878565b6000838152602090207fffffffffffffffffffffffffffffffffffffffffffffffffffffffffffffffe0861690835b828110156148575786850135825560209485019460019092019101614837565b5086821015614892577fffffffffffffffffffffffffffffffffffffffffffffffffffffffffffffffff60f88860031b161c19848701351681555b505060018560011b0183555050505050565b6000602082840312156148b657600080fd5b81518015158114610b0757600080fd5b600073ffffffffffffffffffffffffffffffffffffffff8087168352808616602084015250836040830152608060608301526149056080830184613f84565b9695505050505050565b60006020828403121561492157600080fd5b8151610b0781613f15565b6000808585111561493c57600080fd5b8386111561494957600080fd5b5050820193919092039150565b60008251614968818460208701613f60565b919091019291505056fea26469706673582212201f7598e28bde130ab4206fa45bdc422542db2579f89b7b34e6b0116d2813e4ff64736f6c63430008110033",
  "linkReferences": {},
  "deployedLinkReferences": {}
}