{
  "_format": "hh-sol-artifact-1",
  "contractName": "MintableToken",
  "sourceName": "contracts/token/ERC20/MintableToken.sol",
  "abi": [
    {
      "inputs": [
        {
          "internalType": "string",
          "name": "tokenName",
          "type": "string"
        },
        {
          "internalType": "string",
          "name": "tokenSymbol",
          "type": "string"
        },
        {
          "internalType": "uint8",
          "name": "tokenDecimals",
          "type": "uint8"
        },
        {
          "internalType": "contract IForwarderRegistry",
          "name": "forwarderRegistry",
          "type": "address"
        }
      ],
      "stateMutability": "nonpayable",
      "type": "constructor"
    },
    {
      "anonymous": false,
      "inputs": [
        {
          "indexed": true,
          "internalType": "address",
          "name": "owner",
          "type": "address"
        },
        {
          "indexed": true,
          "internalType": "address",
          "name": "spender",
          "type": "address"
        },
        {
          "indexed": false,
          "internalType": "uint256",
          "name": "value",
          "type": "uint256"
        }
      ],
      "name": "Approval",
      "type": "event"
    },
    {
      "anonymous": false,
      "inputs": [
        {
          "indexed": true,
          "internalType": "address",
          "name": "previousOwner",
          "type": "address"
        },
        {
          "indexed": true,
          "internalType": "address",
          "name": "newOwner",
          "type": "address"
        }
      ],
      "name": "OwnershipTransferred",
      "type": "event"
    },
    {
      "anonymous": false,
      "inputs": [
        {
          "indexed": false,
          "internalType": "bytes32",
          "name": "role",
          "type": "bytes32"
        },
        {
          "indexed": false,
          "internalType": "address",
          "name": "account",
          "type": "address"
        },
        {
          "indexed": false,
          "internalType": "address",
          "name": "operator",
          "type": "address"
        }
      ],
      "name": "RoleGranted",
      "type": "event"
    },
    {
      "anonymous": false,
      "inputs": [
        {
          "indexed": false,
          "internalType": "bytes32",
          "name": "role",
          "type": "bytes32"
        },
        {
          "indexed": false,
          "internalType": "address",
          "name": "account",
          "type": "address"
        },
        {
          "indexed": false,
          "internalType": "address",
          "name": "operator",
          "type": "address"
        }
      ],
      "name": "RoleRevoked",
      "type": "event"
    },
    {
      "anonymous": false,
      "inputs": [
        {
          "indexed": true,
          "internalType": "address",
          "name": "from",
          "type": "address"
        },
        {
          "indexed": true,
          "internalType": "address",
          "name": "to",
          "type": "address"
        },
        {
          "indexed": false,
          "internalType": "uint256",
          "name": "value",
          "type": "uint256"
        }
      ],
      "name": "Transfer",
      "type": "event"
    },
    {
      "inputs": [],
      "name": "DOMAIN_SEPARATOR",
      "outputs": [
        {
          "internalType": "bytes32",
          "name": "",
          "type": "bytes32"
        }
      ],
      "stateMutability": "view",
      "type": "function"
    },
    {
      "inputs": [],
      "name": "MINTER_ROLE",
      "outputs": [
        {
          "internalType": "bytes32",
          "name": "",
          "type": "bytes32"
        }
      ],
      "stateMutability": "view",
      "type": "function"
    },
    {
      "inputs": [
        {
          "internalType": "address",
          "name": "owner",
          "type": "address"
        },
        {
          "internalType": "address",
          "name": "spender",
          "type": "address"
        }
      ],
      "name": "allowance",
      "outputs": [
        {
          "internalType": "uint256",
          "name": "value",
          "type": "uint256"
        }
      ],
      "stateMutability": "view",
      "type": "function"
    },
    {
      "inputs": [
        {
          "internalType": "address",
          "name": "spender",
          "type": "address"
        },
        {
          "internalType": "uint256",
          "name": "value",
          "type": "uint256"
        }
      ],
      "name": "approve",
      "outputs": [
        {
          "internalType": "bool",
          "name": "result",
          "type": "bool"
        }
      ],
      "stateMutability": "nonpayable",
      "type": "function"
    },
    {
      "inputs": [
        {
          "internalType": "address",
          "name": "owner",
          "type": "address"
        }
      ],
      "name": "balanceOf",
      "outputs": [
        {
          "internalType": "uint256",
          "name": "balance",
          "type": "uint256"
        }
      ],
      "stateMutability": "view",
      "type": "function"
    },
    {
      "inputs": [
        {
          "internalType": "address[]",
          "name": "owners",
          "type": "address[]"
        },
        {
          "internalType": "uint256[]",
          "name": "values",
          "type": "uint256[]"
        }
      ],
      "name": "batchBurnFrom",
      "outputs": [
        {
          "internalType": "bool",
          "name": "",
          "type": "bool"
        }
      ],
      "stateMutability": "nonpayable",
      "type": "function"
    },
    {
      "inputs": [
        {
          "internalType": "address[]",
          "name": "recipients",
          "type": "address[]"
        },
        {
          "internalType": "uint256[]",
          "name": "values",
          "type": "uint256[]"
        }
      ],
      "name": "batchMint",
      "outputs": [],
      "stateMutability": "nonpayable",
      "type": "function"
    },
    {
      "inputs": [
        {
          "internalType": "address[]",
          "name": "recipients",
          "type": "address[]"
        },
        {
          "internalType": "uint256[]",
          "name": "values",
          "type": "uint256[]"
        }
      ],
      "name": "batchTransfer",
      "outputs": [
        {
          "internalType": "bool",
          "name": "",
          "type": "bool"
        }
      ],
      "stateMutability": "nonpayable",
      "type": "function"
    },
    {
      "inputs": [
        {
          "internalType": "address",
          "name": "from",
          "type": "address"
        },
        {
          "internalType": "address[]",
          "name": "recipients",
          "type": "address[]"
        },
        {
          "internalType": "uint256[]",
          "name": "values",
          "type": "uint256[]"
        }
      ],
      "name": "batchTransferFrom",
      "outputs": [
        {
          "internalType": "bool",
          "name": "",
          "type": "bool"
        }
      ],
      "stateMutability": "nonpayable",
      "type": "function"
    },
    {
      "inputs": [
        {
          "internalType": "uint256",
          "name": "value",
          "type": "uint256"
        }
      ],
      "name": "burn",
      "outputs": [
        {
          "internalType": "bool",
          "name": "",
          "type": "bool"
        }
      ],
      "stateMutability": "nonpayable",
      "type": "function"
    },
    {
      "inputs": [
        {
          "internalType": "address",
          "name": "from",
          "type": "address"
        },
        {
          "internalType": "uint256",
          "name": "value",
          "type": "uint256"
        }
      ],
      "name": "burnFrom",
      "outputs": [
        {
          "internalType": "bool",
          "name": "",
          "type": "bool"
        }
      ],
      "stateMutability": "nonpayable",
      "type": "function"
    },
    {
      "inputs": [],
      "name": "decimals",
      "outputs": [
        {
          "internalType": "uint8",
          "name": "",
          "type": "uint8"
        }
      ],
      "stateMutability": "view",
      "type": "function"
    },
    {
      "inputs": [
        {
          "internalType": "address",
          "name": "spender",
          "type": "address"
        },
        {
          "internalType": "uint256",
          "name": "subtractedValue",
          "type": "uint256"
        }
      ],
      "name": "decreaseAllowance",
      "outputs": [
        {
          "internalType": "bool",
          "name": "result",
          "type": "bool"
        }
      ],
      "stateMutability": "nonpayable",
      "type": "function"
    },
    {
      "inputs": [],
      "name": "forwarderRegistry",
      "outputs": [
        {
          "internalType": "contract IForwarderRegistry",
          "name": "",
          "type": "address"
        }
      ],
      "stateMutability": "view",
      "type": "function"
    },
    {
      "inputs": [
        {
          "internalType": "bytes32",
          "name": "role",
          "type": "bytes32"
        },
        {
          "internalType": "address",
          "name": "account",
          "type": "address"
        }
      ],
      "name": "grantRole",
      "outputs": [],
      "stateMutability": "nonpayable",
      "type": "function"
    },
    {
      "inputs": [
        {
          "internalType": "bytes32",
          "name": "role",
          "type": "bytes32"
        },
        {
          "internalType": "address",
          "name": "account",
          "type": "address"
        }
      ],
      "name": "hasRole",
      "outputs": [
        {
          "internalType": "bool",
          "name": "",
          "type": "bool"
        }
      ],
      "stateMutability": "view",
      "type": "function"
    },
    {
      "inputs": [
        {
          "internalType": "address",
          "name": "spender",
          "type": "address"
        },
        {
          "internalType": "uint256",
          "name": "addedValue",
          "type": "uint256"
        }
      ],
      "name": "increaseAllowance",
      "outputs": [
        {
          "internalType": "bool",
          "name": "result",
          "type": "bool"
        }
      ],
      "stateMutability": "nonpayable",
      "type": "function"
    },
    {
      "inputs": [
        {
          "internalType": "address",
          "name": "forwarder",
          "type": "address"
        }
      ],
      "name": "isTrustedForwarder",
      "outputs": [
        {
          "internalType": "bool",
          "name": "",
          "type": "bool"
        }
      ],
      "stateMutability": "view",
      "type": "function"
    },
    {
      "inputs": [
        {
          "internalType": "address",
          "name": "to",
          "type": "address"
        },
        {
          "internalType": "uint256",
          "name": "value",
          "type": "uint256"
        }
      ],
      "name": "mint",
      "outputs": [],
      "stateMutability": "nonpayable",
      "type": "function"
    },
    {
      "inputs": [],
      "name": "name",
      "outputs": [
        {
          "internalType": "string",
          "name": "",
          "type": "string"
        }
      ],
      "stateMutability": "view",
      "type": "function"
    },
    {
      "inputs": [
        {
          "internalType": "address",
          "name": "owner",
          "type": "address"
        }
      ],
      "name": "nonces",
      "outputs": [
        {
          "internalType": "uint256",
          "name": "",
          "type": "uint256"
        }
      ],
      "stateMutability": "view",
      "type": "function"
    },
    {
      "inputs": [],
      "name": "owner",
      "outputs": [
        {
          "internalType": "address",
          "name": "",
          "type": "address"
        }
      ],
      "stateMutability": "view",
      "type": "function"
    },
    {
      "inputs": [
        {
          "internalType": "address",
          "name": "owner",
          "type": "address"
        },
        {
          "internalType": "address",
          "name": "spender",
          "type": "address"
        },
        {
          "internalType": "uint256",
          "name": "value",
          "type": "uint256"
        },
        {
          "internalType": "uint256",
          "name": "deadline",
          "type": "uint256"
        },
        {
          "internalType": "uint8",
          "name": "v",
          "type": "uint8"
        },
        {
          "internalType": "bytes32",
          "name": "r",
          "type": "bytes32"
        },
        {
          "internalType": "bytes32",
          "name": "s",
          "type": "bytes32"
        }
      ],
      "name": "permit",
      "outputs": [],
      "stateMutability": "nonpayable",
      "type": "function"
    },
    {
      "inputs": [
        {
          "internalType": "address[]",
          "name": "accounts",
          "type": "address[]"
        },
        {
          "internalType": "contract IERC20[]",
          "name": "tokens",
          "type": "address[]"
        },
        {
          "internalType": "uint256[]",
          "name": "amounts",
          "type": "uint256[]"
        }
      ],
      "name": "recoverERC20s",
      "outputs": [],
      "stateMutability": "nonpayable",
      "type": "function"
    },
    {
      "inputs": [
        {
          "internalType": "address[]",
          "name": "accounts",
          "type": "address[]"
        },
        {
          "internalType": "contract IERC721[]",
          "name": "contracts",
          "type": "address[]"
        },
        {
          "internalType": "uint256[]",
          "name": "tokenIds",
          "type": "uint256[]"
        }
      ],
      "name": "recoverERC721s",
      "outputs": [],
      "stateMutability": "nonpayable",
      "type": "function"
    },
    {
      "inputs": [
        {
          "internalType": "address payable[]",
          "name": "accounts",
          "type": "address[]"
        },
        {
          "internalType": "uint256[]",
          "name": "amounts",
          "type": "uint256[]"
        }
      ],
      "name": "recoverETH",
      "outputs": [],
      "stateMutability": "nonpayable",
      "type": "function"
    },
    {
      "inputs": [
        {
          "internalType": "bytes32",
          "name": "role",
          "type": "bytes32"
        }
      ],
      "name": "renounceRole",
      "outputs": [],
      "stateMutability": "nonpayable",
      "type": "function"
    },
    {
      "inputs": [
        {
          "internalType": "bytes32",
          "name": "role",
          "type": "bytes32"
        },
        {
          "internalType": "address",
          "name": "account",
          "type": "address"
        }
      ],
      "name": "revokeRole",
      "outputs": [],
      "stateMutability": "nonpayable",
      "type": "function"
    },
    {
      "inputs": [
        {
          "internalType": "address",
          "name": "to",
          "type": "address"
        },
        {
          "internalType": "uint256",
          "name": "value",
          "type": "uint256"
        },
        {
          "internalType": "bytes",
          "name": "data",
          "type": "bytes"
        }
      ],
      "name": "safeTransfer",
      "outputs": [
        {
          "internalType": "bool",
          "name": "",
          "type": "bool"
        }
      ],
      "stateMutability": "nonpayable",
      "type": "function"
    },
    {
      "inputs": [
        {
          "internalType": "address",
          "name": "from",
          "type": "address"
        },
        {
          "internalType": "address",
          "name": "to",
          "type": "address"
        },
        {
          "internalType": "uint256",
          "name": "value",
          "type": "uint256"
        },
        {
          "internalType": "bytes",
          "name": "data",
          "type": "bytes"
        }
      ],
      "name": "safeTransferFrom",
      "outputs": [
        {
          "internalType": "bool",
          "name": "",
          "type": "bool"
        }
      ],
      "stateMutability": "nonpayable",
      "type": "function"
    },
    {
      "inputs": [
        {
          "internalType": "string",
          "name": "uri",
          "type": "string"
        }
      ],
      "name": "setTokenURI",
      "outputs": [],
      "stateMutability": "nonpayable",
      "type": "function"
    },
    {
      "inputs": [
        {
          "internalType": "bytes4",
          "name": "interfaceId",
          "type": "bytes4"
        }
      ],
      "name": "supportsInterface",
      "outputs": [
        {
          "internalType": "bool",
          "name": "",
          "type": "bool"
        }
      ],
      "stateMutability": "view",
      "type": "function"
    },
    {
      "inputs": [],
      "name": "symbol",
      "outputs": [
        {
          "internalType": "string",
          "name": "",
          "type": "string"
        }
      ],
      "stateMutability": "view",
      "type": "function"
    },
    {
      "inputs": [],
      "name": "tokenURI",
      "outputs": [
        {
          "internalType": "string",
          "name": "",
          "type": "string"
        }
      ],
      "stateMutability": "view",
      "type": "function"
    },
    {
      "inputs": [],
      "name": "totalSupply",
      "outputs": [
        {
          "internalType": "uint256",
          "name": "supply",
          "type": "uint256"
        }
      ],
      "stateMutability": "view",
      "type": "function"
    },
    {
      "inputs": [
        {
          "internalType": "address",
          "name": "to",
          "type": "address"
        },
        {
          "internalType": "uint256",
          "name": "value",
          "type": "uint256"
        }
      ],
      "name": "transfer",
      "outputs": [
        {
          "internalType": "bool",
          "name": "result",
          "type": "bool"
        }
      ],
      "stateMutability": "nonpayable",
      "type": "function"
    },
    {
      "inputs": [
        {
          "internalType": "address",
          "name": "from",
          "type": "address"
        },
        {
          "internalType": "address",
          "name": "to",
          "type": "address"
        },
        {
          "internalType": "uint256",
          "name": "value",
          "type": "uint256"
        }
      ],
      "name": "transferFrom",
      "outputs": [
        {
          "internalType": "bool",
          "name": "result",
          "type": "bool"
        }
      ],
      "stateMutability": "nonpayable",
      "type": "function"
    },
    {
      "inputs": [
        {
          "internalType": "address",
          "name": "newOwner",
          "type": "address"
        }
      ],
      "name": "transferOwnership",
      "outputs": [],
      "stateMutability": "nonpayable",
      "type": "function"
    }
  ],
  "bytecode": "0x60a06040523480156200001157600080fd5b5060405162004ef238038062004ef2833981016040819052620000349162000559565b8080338686866200004f6200014960201b62000ecf1760201c565b620000818383836200006b620001ad60201b62000f331760201c565b620001e360201b62000f6117909392919060201c565b505050620000b2816200009e6200025260201b62000fe01760201c565b6200028260201b6200100e1790919060201c565b50620000c86200030060201b620010c41760201c565b620000dd6200032560201b620010f41760201c565b620000f26200034860201b620011221760201c565b620001076200036b60201b620011501760201c565b6200011c6200038e60201b6200117e1760201c565b62000131620003b160201b620011ac1760201c565b6001600160a01b0316608052506200077a9350505050565b600062000160620003d460201b620011d61760201c565b9050620001866336372b0760e01b6001836200040460201b62001204179092919060201c565b620001aa634e83a8c360e11b6001836200040460201b62001204179092919060201c565b50565b600080620001dd60017f335df4119bbb04f056b33eba33b826d3529129e458faf6daa9924b5a8f3b6a82620005fd565b92915050565b83620001f08482620006ae565b5060018401620002018382620006ae565b5060028401805460ff191660ff83161790556200024c63a219a02560e01b600162000237620003d4602090811b620011d617901c565b6200040460201b62001204179092919060201c565b50505050565b600080620001dd60017fc9ed16f33ab3a66c84bfd83099ccb2a8845871e2e1c1928f63797152f0fd54cd620005fd565b6001600160a01b03811615620002d95781546001600160a01b0319166001600160a01b03821690811783556040516000907f8be0079c531659141344cd1fd0a4f28419497f9722a3daafe3b4186f6b6457e0908290a35b620002fc6307f5828d60e41b600162000237620003d460201b620011d61760201c565b5050565b620003236303c130d960e41b600162000237620003d460201b620011d61760201c565b565b62000323634ec7fbed60e11b600162000237620003d460201b620011d61760201c565b620003236353f41a9760e01b600162000237620003d460201b620011d61760201c565b6200032363602993f360e11b600162000237620003d460201b620011d61760201c565b6200032363144b1f0f60e11b600162000237620003d460201b620011d61760201c565b620003236320c07ed160e01b600162000237620003d460201b620011d61760201c565b600080620001dd60017fca9d3e17f264b0f3984e2634e94adb37fa3e6a8103f06aeae6fa59e21c769f5e620005fd565b600160e01b6001600160e01b0319831601620004665760405162461bcd60e51b815260206004820152601f60248201527f496e74657266616365446574656374696f6e3a2077726f6e672076616c756500604482015260640160405180910390fd5b6001600160e01b03199190911660009081526020929092526040909120805460ff1916911515919091179055565b634e487b7160e01b600052604160045260246000fd5b600082601f830112620004bc57600080fd5b81516001600160401b0380821115620004d957620004d962000494565b604051601f8301601f19908116603f0116810190828211818310171562000504576200050462000494565b816040528381526020925086838588010111156200052157600080fd5b600091505b8382101562000545578582018301518183018401529082019062000526565b600093810190920192909252949350505050565b600080600080608085870312156200057057600080fd5b84516001600160401b03808211156200058857600080fd5b6200059688838901620004aa565b95506020870151915080821115620005ad57600080fd5b50620005bc87828801620004aa565b935050604085015160ff81168114620005d457600080fd5b60608601519092506001600160a01b0381168114620005f257600080fd5b939692955090935050565b81810381811115620001dd57634e487b7160e01b600052601160045260246000fd5b600181811c908216806200063457607f821691505b6020821081036200065557634e487b7160e01b600052602260045260246000fd5b50919050565b601f821115620006a957600081815260208120601f850160051c81016020861015620006845750805b601f850160051c820191505b81811015620006a55782815560010162000690565b5050505b505050565b81516001600160401b03811115620006ca57620006ca62000494565b620006e281620006db84546200061f565b846200065b565b602080601f8311600181146200071a5760008415620007015750858301515b600019600386901b1c1916600185901b178555620006a5565b600085815260208120601f198616915b828110156200074b578886015182559484019460019091019084016200072a565b50858210156200076a5787850151600019600388901b60f8161c191681555b5050505050600190811b01905550565b608051614747620007ab6000396000818161032501528181610405015281816136f2015261377a01526147476000f3fe608060405234801561001057600080fd5b50600436106102925760003560e01c806379cc679011610160578063b88d4fde116100d8578063dd62ed3e1161008c578063eb79554911610071578063eb795549146105a9578063f2fde38b146105bc578063f7ba94bd146105cf57600080fd5b8063dd62ed3e14610583578063e0df5b6f1461059657600080fd5b8063d505accf116100bd578063d505accf14610536578063d539139314610549578063d547741f1461057057600080fd5b8063b88d4fde14610510578063c3666c361461052357600080fd5b80638da5cb5b1161012f57806395d89b411161011457806395d89b41146104e2578063a457c2d7146104ea578063a9059cbb146104fd57600080fd5b80638da5cb5b146104c757806391d14854146104cf57600080fd5b806379cc67901461047b5780637ecebe001461048e57806388d695b2146104a15780638bb9c5bf146104b457600080fd5b80633644e5151161020e5780634885b254116101c257806368573107116101a7578063685731071461044257806370a082311461045557806373c8a9581461046857600080fd5b80634885b254146103e2578063572b6c05146103f557600080fd5b80633c130d90116101f35780633c130d90146103b457806340c10f19146103bc57806342966c68146103cf57600080fd5b80633644e5151461039957806339509351146103a157600080fd5b80631b9a7529116102655780632b4c9f161161024a5780632b4c9f16146103235780632f2ff15d1461036a578063313ce5671461037f57600080fd5b80631b9a7529146102fd57806323b872dd1461031057600080fd5b806301ffc9a71461029757806306fdde03146102bf578063095ea7b3146102d457806318160ddd146102e7575b600080fd5b6102aa6102a5366004613d59565b6105e2565b60405190151581526020015b60405180910390f35b6102c76105fc565b6040516102b69190613de4565b6102aa6102e2366004613e19565b610613565b6102ef61063b565b6040519081526020016102b6565b6102aa61030b366004613e91565b61064f565b6102aa61031e366004613efd565b61067e565b7f00000000000000000000000000000000000000000000000000000000000000005b60405173ffffffffffffffffffffffffffffffffffffffff90911681526020016102b6565b61037d610378366004613f3e565b6106a9565b005b6103876106e2565b60405160ff90911681526020016102b6565b6102ef6106f9565b6102aa6103af366004613e19565b610703565b6102c7610722565b61037d6103ca366004613e19565b61072f565b6102aa6103dd366004613f6e565b610782565b6102aa6103f0366004613f87565b6107a7565b6102aa61040336600461400a565b7f000000000000000000000000000000000000000000000000000000000000000073ffffffffffffffffffffffffffffffffffffffff90811691161490565b61037d610450366004613e91565b6107d8565b6102ef61046336600461400a565b610882565b61037d610476366004614027565b6108ba565b6102aa610489366004613e19565b6109ea565b6102ef61049c36600461400a565b610a09565b6102aa6104af366004613e91565b610a17565b61037d6104c2366004613f6e565b610a3a565b610345610a58565b6102aa6104dd366004613f3e565b610a7f565b6102c7610aca565b6102aa6104f8366004613e19565b610adc565b6102aa61050b366004613e19565b610afb565b6102aa61051e366004614103565b610b1a565b61037d610531366004614027565b610b3f565b61037d610544366004614165565b610ce4565b6102ef7f6d696e746572000000000000000000000000000000000000000000000000000081565b61037d61057e366004613f3e565b610d0b565b6102ef6105913660046141dc565b610d39565b61037d6105a436600461420a565b610d84565b6102aa6105b736600461424c565b610da3565b61037d6105ca36600461400a565b610dc6565b61037d6105dd366004613e91565b610de1565b60006105f6826105f06111d6565b90611310565b92915050565b606061060e610609610f33565b6113ea565b905090565b6000610632610620611480565b848461062a61148a565b9291906114b8565b50600192915050565b600061060e61064861148a565b6002015490565b600061067261065c611480565b8686868661066861148a565b94939291906115a7565b5060015b949350505050565b600061069f61068b611480565b85858561069661148a565b939291906117e9565b5060019392505050565b60006106b3611480565b90506106c7816106c1610fe0565b9061183b565b6106dd8383836106d56118be565b9291906118ec565b505050565b600061060e6106ef610f33565b6002015460ff1690565b600061060e6119c2565b6000610632610710611480565b848461071a61148a565b929190611a5d565b606061060e610609611c29565b61076a7f6d696e746572000000000000000000000000000000000000000000000000000061075b611480565b6107636118be565b9190611c57565b61077e828261077761148a565b9190611d03565b5050565b600061079f61078f611480565b8361079861148a565b9190611e7d565b506001919050565b60006107cc6107b4611480565b87878787876107c161148a565b959493929190611f93565b50600195945050505050565b6108047f6d696e746572000000000000000000000000000000000000000000000000000061075b611480565b61087c84848080602002602001604051908101604052809392919081815260200183836020028082843760009201919091525050604080516020808802828101820190935287825290935087925086918291850190849080828437600092019190915250610875925061148a915050565b91906123d9565b50505050565b60006105f68261089061148a565b9073ffffffffffffffffffffffffffffffffffffffff166000908152602091909152604090205490565b6108cd6108c5611480565b6106c1610fe0565b8483811480156108dc57508082145b610947576040517f08c379a000000000000000000000000000000000000000000000000000000000815260206004820152601d60248201527f5265636f766572793a20696e636f6e73697374656e742061727261797300000060448201526064015b60405180910390fd5b60005b8181146109e0576109d88888838181106109665761096661429c565b905060200201602081019061097b919061400a565b85858481811061098d5761098d61429c565b905060200201358888858181106109a6576109a661429c565b90506020020160208101906109bb919061400a565b73ffffffffffffffffffffffffffffffffffffffff1691906126af565b60010161094a565b5050505050505050565b60006106326109f7611480565b8484610a0161148a565b92919061273c565b60006105f682610890612786565b6000610672610a24611480565b86868686610a3061148a565b94939291906127b4565b610a55610a45611480565b82610a4e6118be565b9190612b96565b50565b600061060e610a65610fe0565b5473ffffffffffffffffffffffffffffffffffffffff1690565b6000610ac38383610a8e6118be565b60009283526020908152604080842073ffffffffffffffffffffffffffffffffffffffff909316845291905290205460ff1690565b9392505050565b606061060e610ad7610f33565b612c3a565b6000610632610ae9611480565b8484610af361148a565b929190612c4b565b6000610632610b08611480565b8484610b1261148a565b929190612d9d565b60006107cc610b27611480565b8787878787610b3461148a565b959493929190612f7e565b610b4a6108c5611480565b848381148015610b5957508082145b610bbf576040517f08c379a000000000000000000000000000000000000000000000000000000000815260206004820152601d60248201527f5265636f766572793a20696e636f6e73697374656e7420617272617973000000604482015260640161093e565b60005b8181146109e057858582818110610bdb57610bdb61429c565b9050602002016020810190610bf0919061400a565b73ffffffffffffffffffffffffffffffffffffffff166323b872dd308a8a85818110610c1e57610c1e61429c565b9050602002016020810190610c33919061400a565b878786818110610c4557610c4561429c565b6040517fffffffff0000000000000000000000000000000000000000000000000000000060e088901b16815273ffffffffffffffffffffffffffffffffffffffff958616600482015294909316602485015250602090910201356044820152606401600060405180830381600087803b158015610cc157600080fd5b505af1158015610cd5573d6000803e3d6000fd5b50505050806001019050610bc2565b610d0287878787878787610cf6612786565b96959493929190612feb565b50505050505050565b6000610d15611480565b9050610d23816106c1610fe0565b6106dd838383610d316118be565b9291906132e7565b6000610ac38383610d4861148a565b919073ffffffffffffffffffffffffffffffffffffffff9182166000908152600193909301602090815260408085209290931684525290205490565b610d8f6108c5611480565b61077e8282610d9c611c29565b91906133b1565b6000610672610db0611480565b86868686610dbc61148a565b94939291906133bd565b610a55610dd1611480565b82610dda610fe0565b9190613429565b610dec6108c5611480565b82818114610e56576040517f08c379a000000000000000000000000000000000000000000000000000000000815260206004820152601d60248201527f5265636f766572793a20696e636f6e73697374656e7420617272617973000000604482015260640161093e565b60005b818114610ec757610ebf848483818110610e7557610e7561429c565b90506020020135878784818110610e8e57610e8e61429c565b9050602002016020810190610ea3919061400a565b73ffffffffffffffffffffffffffffffffffffffff1690613555565b600101610e59565b505050505050565b6000610ed96111d6565b9050610f07817f36372b07000000000000000000000000000000000000000000000000000000006001611204565b610a55817f9d075186000000000000000000000000000000000000000000000000000000006001611204565b6000806105f660017f335df4119bbb04f056b33eba33b826d3529129e458faf6daa9924b5a8f3b6a826142cb565b83610f6c84826143cd565b5060018401610f7b83826143cd565b506002840180547fffffffffffffffffffffffffffffffffffffffffffffffffffffffffffffff001660ff831617905561087c7fa219a025000000000000000000000000000000000000000000000000000000006001610fd96111d6565b9190611204565b6000806105f660017fc9ed16f33ab3a66c84bfd83099ccb2a8845871e2e1c1928f63797152f0fd54cd6142cb565b73ffffffffffffffffffffffffffffffffffffffff8116156110965781547fffffffffffffffffffffffff00000000000000000000000000000000000000001673ffffffffffffffffffffffffffffffffffffffff821690811783556040516000907f8be0079c531659141344cd1fd0a4f28419497f9722a3daafe3b4186f6b6457e0908290a35b61077e7f7f5828d0000000000000000000000000000000000000000000000000000000006001610fd96111d6565b6110f27f3c130d90000000000000000000000000000000000000000000000000000000006001610fd96111d6565b565b6110f27f9d8ff7da000000000000000000000000000000000000000000000000000000006001610fd96111d6565b6110f27f53f41a97000000000000000000000000000000000000000000000000000000006001610fd96111d6565b6110f27fc05327e6000000000000000000000000000000000000000000000000000000006001610fd96111d6565b6110f27f28963e1e000000000000000000000000000000000000000000000000000000006001610fd96111d6565b6110f27f20c07ed1000000000000000000000000000000000000000000000000000000006001610fd95b6000806105f660017fca9d3e17f264b0f3984e2634e94adb37fa3e6a8103f06aeae6fa59e21c769f5e6142cb565b7c01000000000000000000000000000000000000000000000000000000007fffffffff000000000000000000000000000000000000000000000000000000008316016112ac576040517f08c379a000000000000000000000000000000000000000000000000000000000815260206004820152601f60248201527f496e74657266616365446574656374696f6e3a2077726f6e672076616c756500604482015260640161093e565b7fffffffff00000000000000000000000000000000000000000000000000000000919091166000908152602092909252604090912080547fffffffffffffffffffffffffffffffffffffffffffffffffffffffffffffff0016911515919091179055565b60007c01000000000000000000000000000000000000000000000000000000007fffffffff00000000000000000000000000000000000000000000000000000000831601611360575060006105f6565b7ffe003659000000000000000000000000000000000000000000000000000000007fffffffff000000000000000000000000000000000000000000000000000000008316016113b1575060016105f6565b507fffffffff00000000000000000000000000000000000000000000000000000000166000908152602091909152604090205460ff1690565b60608160000180546113fb90614334565b80601f016020809104026020016040519081016040528092919081815260200182805461142790614334565b80156114745780601f1061144957610100808354040283529160200191611474565b820191906000526020600020905b81548152906001019060200180831161145757829003601f168201915b50505050509050919050565b600061060e6136af565b6000806105f660017f1da92899d3da68bf9787824388a37ea2bfa79780bcef91b9716c390eec8ecbef6142cb565b73ffffffffffffffffffffffffffffffffffffffff8216611535576040517f08c379a000000000000000000000000000000000000000000000000000000000815260206004820152601d60248201527f45524332303a20617070726f76616c20746f2061646472657373283029000000604482015260640161093e565b73ffffffffffffffffffffffffffffffffffffffff838116600081815260018701602090815260408083209487168084529482529182902085905590518481527f8c5be1e5ebec7d5bd14f71427d1e84f3dd0314c0f7b2291e5b200ac8c7c3b92591015b60405180910390a350505050565b82818114611611576040517f08c379a000000000000000000000000000000000000000000000000000000000815260206004820152601a60248201527f45524332303a20696e636f6e73697374656e7420617272617973000000000000604482015260640161093e565b8060000361161f5750610ec7565b6000805b8281146117cd57600087878381811061163e5761163e61429c565b9050602002016020810190611653919061400a565b905060008686848181106116695761166961429c565b9050602002013590508973ffffffffffffffffffffffffffffffffffffffff168273ffffffffffffffffffffffffffffffffffffffff16146116b1576116b18b838c84612c4b565b80156117755773ffffffffffffffffffffffffffffffffffffffff8216600090815260208c90526040902054818103818110611749576040517f08c379a000000000000000000000000000000000000000000000000000000000815260206004820152601b60248201527f45524332303a20696e73756666696369656e742062616c616e63650000000000604482015260640161093e565b73ffffffffffffffffffffffffffffffffffffffff8416600090815260208e9052604090205550928301925b60405181815260009073ffffffffffffffffffffffffffffffffffffffff8416907fddf252ad1be2c89b69c2b068fc378daa952ba7f163c4a11628f55a4df523b3ef9060200160405180910390a35050600101611623565b5080156109e05760028801805482900390555050505050505050565b8373ffffffffffffffffffffffffffffffffffffffff168373ffffffffffffffffffffffffffffffffffffffff16146118285761182885848684612c4b565b61183485848484612d9d565b5050505050565b815473ffffffffffffffffffffffffffffffffffffffff82811691161461077e576040517f08c379a000000000000000000000000000000000000000000000000000000000815260206004820152601860248201527f4f776e6572736869703a206e6f7420746865206f776e65720000000000000000604482015260640161093e565b6000806105f660017fc8827d3282af6f37b64c3e9e6f3ac9df286ab0bb0fccd6f8661bf19adb368b236142cb565b60008381526020858152604080832073ffffffffffffffffffffffffffffffffffffffff8616845290915290205460ff1661087c5760008381526020858152604080832073ffffffffffffffffffffffffffffffffffffffff8681168086529184529382902080547fffffffffffffffffffffffffffffffffffffffffffffffffffffffffffffff00166001179055815187815292830152918316918101919091527f2f8788117e7eff1d82e926ec794901d17c78024a50270940304540a733656f0d906060015b60405180910390a150505050565b6000467f8b73c3c69bb8fe3d512ecc4cf759cc79239f7b179b0ffacaa9a75d522b39400f6119f1610609610f33565b80516020918201206040805192830193909352918101919091527fc89efdaa54c0f20c7adf612882df0950f5a951637e0307cdcb4c672f298b8bc66060820152608081018290523060a082015260c0016040516020818303038152906040528051906020012091505090565b73ffffffffffffffffffffffffffffffffffffffff8216611ada576040517f08c379a000000000000000000000000000000000000000000000000000000000815260206004820152601d60248201527f45524332303a20617070726f76616c20746f2061646472657373283029000000604482015260640161093e565b73ffffffffffffffffffffffffffffffffffffffff80841660009081526001860160209081526040808320938616835292905220548115611bbb57808201818111611b81576040517f08c379a000000000000000000000000000000000000000000000000000000000815260206004820152601960248201527f45524332303a20616c6c6f77616e6365206f766572666c6f7700000000000000604482015260640161093e565b73ffffffffffffffffffffffffffffffffffffffff8086166000908152600188016020908152604080832093881683529290522081905590505b8273ffffffffffffffffffffffffffffffffffffffff168473ffffffffffffffffffffffffffffffffffffffff167f8c5be1e5ebec7d5bd14f71427d1e84f3dd0314c0f7b2291e5b200ac8c7c3b92583604051611c1a91815260200190565b60405180910390a35050505050565b6000806105f660017ff41bf6a5db26bffdfab174dcf66b31fbba8fdb7e3db040721ce1e62d61839ceb6142cb565b60008281526020848152604080832073ffffffffffffffffffffffffffffffffffffffff8516845290915290205460ff166106dd57611c95826137f6565b604051602001611ca591906144e7565b604080517fffffffffffffffffffffffffffffffffffffffffffffffffffffffffffffffe0818403018152908290527f08c379a000000000000000000000000000000000000000000000000000000000825261093e91600401613de4565b73ffffffffffffffffffffffffffffffffffffffff8216611d80576040517f08c379a000000000000000000000000000000000000000000000000000000000815260206004820152601960248201527f45524332303a206d696e7420746f206164647265737328302900000000000000604482015260640161093e565b8015611e29576002830154818101818111611df7576040517f08c379a000000000000000000000000000000000000000000000000000000000815260206004820152601660248201527f45524332303a20737570706c79206f766572666c6f7700000000000000000000604482015260640161093e565b60028501555073ffffffffffffffffffffffffffffffffffffffff821660009081526020849052604090208054820190555b60405181815273ffffffffffffffffffffffffffffffffffffffff8316906000907fddf252ad1be2c89b69c2b068fc378daa952ba7f163c4a11628f55a4df523b3ef906020015b60405180910390a3505050565b8015611f485773ffffffffffffffffffffffffffffffffffffffff8216600090815260208490526040902054818103818110611f15576040517f08c379a000000000000000000000000000000000000000000000000000000000815260206004820152601b60248201527f45524332303a20696e73756666696369656e742062616c616e63650000000000604482015260640161093e565b73ffffffffffffffffffffffffffffffffffffffff84166000908152602086905260409020555060028301805482900390555b60405181815260009073ffffffffffffffffffffffffffffffffffffffff8416907fddf252ad1be2c89b69c2b068fc378daa952ba7f163c4a11628f55a4df523b3ef90602001611e70565b82818114611ffd576040517f08c379a000000000000000000000000000000000000000000000000000000000815260206004820152601a60248201527f45524332303a20696e636f6e73697374656e7420617272617973000000000000604482015260640161093e565b8060000361200b5750610d02565b73ffffffffffffffffffffffffffffffffffffffff86166000908152602089905260408120549080805b8481146122e15760008989838181106120505761205061429c565b9050602002016020810190612065919061400a565b905073ffffffffffffffffffffffffffffffffffffffff81166120e4576040517f08c379a000000000000000000000000000000000000000000000000000000000815260206004820152601d60248201527f45524332303a207472616e7366657220746f2061646472657373283029000000604482015260640161093e565b60008888848181106120f8576120f861429c565b9050602002013590508060001461227057848101858111612175576040517f08c379a000000000000000000000000000000000000000000000000000000000815260206004820152601660248201527f45524332303a2076616c756573206f766572666c6f7700000000000000000000604482015260640161093e565b8095508273ffffffffffffffffffffffffffffffffffffffff168d73ffffffffffffffffffffffffffffffffffffffff16146121ff57818f60000160008573ffffffffffffffffffffffffffffffffffffffff1673ffffffffffffffffffffffffffffffffffffffff1681526020019081526020016000206000828254019250508190555061226e565b86821115612269576040517f08c379a000000000000000000000000000000000000000000000000000000000815260206004820152601b60248201527f45524332303a20696e73756666696369656e742062616c616e63650000000000604482015260640161093e565b938101935b505b8173ffffffffffffffffffffffffffffffffffffffff168c73ffffffffffffffffffffffffffffffffffffffff167fddf252ad1be2c89b69c2b068fc378daa952ba7f163c4a11628f55a4df523b3ef836040516122cf91815260200190565b60405180910390a35050600101612035565b5081158015906122f15750808214155b1561238d57818303838110612362576040517f08c379a000000000000000000000000000000000000000000000000000000000815260206004820152601b60248201527f45524332303a20696e73756666696369656e742062616c616e63650000000000604482015260640161093e565b73ffffffffffffffffffffffffffffffffffffffff8a16600090815260208d90526040902090820190555b8973ffffffffffffffffffffffffffffffffffffffff168973ffffffffffffffffffffffffffffffffffffffff16146123cc576123cc8b8a8c85612c4b565b5050505050505050505050565b815181518114612445576040517f08c379a000000000000000000000000000000000000000000000000000000000815260206004820152601a60248201527f45524332303a20696e636f6e73697374656e7420617272617973000000000000604482015260640161093e565b806000036124535750505050565b6000805b82811461262a5760008582815181106124725761247261429c565b60200260200101519050600073ffffffffffffffffffffffffffffffffffffffff168173ffffffffffffffffffffffffffffffffffffffff1603612512576040517f08c379a000000000000000000000000000000000000000000000000000000000815260206004820152601960248201527f45524332303a206d696e7420746f206164647265737328302900000000000000604482015260640161093e565b60008583815181106125265761252661429c565b60200260200101519050806000146125d2578381018481116125a4576040517f08c379a000000000000000000000000000000000000000000000000000000000815260206004820152601660248201527f45524332303a2076616c756573206f766572666c6f7700000000000000000000604482015260640161093e565b73ffffffffffffffffffffffffffffffffffffffff8316600090815260208a90526040902080548301905593505b60405181815273ffffffffffffffffffffffffffffffffffffffff8316906000907fddf252ad1be2c89b69c2b068fc378daa952ba7f163c4a11628f55a4df523b3ef9060200160405180910390a35050600101612457565b5080156118345760028501548181018181116126a2576040517f08c379a000000000000000000000000000000000000000000000000000000000815260206004820152601660248201527f45524332303a20737570706c79206f766572666c6f7700000000000000000000604482015260640161093e565b6002870155505050505050565b6040805173ffffffffffffffffffffffffffffffffffffffff8416602482015260448082018490528251808303909101815260649091019091526020810180517bffffffffffffffffffffffffffffffffffffffffffffffffffffffff167fa9059cbb000000000000000000000000000000000000000000000000000000001790526106dd908490613988565b8273ffffffffffffffffffffffffffffffffffffffff168273ffffffffffffffffffffffffffffffffffffffff161461277b5761277b84838584612c4b565b61087c848383611e7d565b6000806105f660017f93fe0ff7226b064a4a8f0b09910762afb4bc2441835792c021ffd78cd513011e6142cb565b8281811461281e576040517f08c379a000000000000000000000000000000000000000000000000000000000815260206004820152601a60248201527f45524332303a20696e636f6e73697374656e7420617272617973000000000000604482015260640161093e565b8060000361282c5750610ec7565b73ffffffffffffffffffffffffffffffffffffffff86166000908152602088905260408120549080805b848114612ade5760008989838181106128715761287161429c565b9050602002016020810190612886919061400a565b905073ffffffffffffffffffffffffffffffffffffffff8116612905576040517f08c379a000000000000000000000000000000000000000000000000000000000815260206004820152601d60248201527f45524332303a207472616e7366657220746f2061646472657373283029000000604482015260640161093e565b60008888848181106129195761291961429c565b90506020020135905080600014612a6d57848101858111612996576040517f08c379a000000000000000000000000000000000000000000000000000000000815260206004820152601660248201527f45524332303a2076616c756573206f766572666c6f7700000000000000000000604482015260640161093e565b8095508273ffffffffffffffffffffffffffffffffffffffff168d73ffffffffffffffffffffffffffffffffffffffff16146129fc5773ffffffffffffffffffffffffffffffffffffffff8316600090815260208f905260409020805483019055612a6b565b86821115612a66576040517f08c379a000000000000000000000000000000000000000000000000000000000815260206004820152601b60248201527f45524332303a20696e73756666696369656e742062616c616e63650000000000604482015260640161093e565b938101935b505b8173ffffffffffffffffffffffffffffffffffffffff168c73ffffffffffffffffffffffffffffffffffffffff167fddf252ad1be2c89b69c2b068fc378daa952ba7f163c4a11628f55a4df523b3ef83604051612acc91815260200190565b60405180910390a35050600101612856565b508115801590612aee5750808214155b15612b8a57818303838110612b5f576040517f08c379a000000000000000000000000000000000000000000000000000000000815260206004820152601b60248201527f45524332303a20696e73756666696369656e742062616c616e63650000000000604482015260640161093e565b73ffffffffffffffffffffffffffffffffffffffff8a16600090815260208c90526040902090820190555b50505050505050505050565b612ba1838284611c57565b60008181526020848152604080832073ffffffffffffffffffffffffffffffffffffffff86168085529083529281902080547fffffffffffffffffffffffffffffffffffffffffffffffffffffffffffffff0016905580518481529182018390528101919091527ff6391f5c32d9c69d2a47ea670b442974b53935d1edc7fd64eb21e047a839171b9060600160405180910390a1505050565b60608160010180546113fb90614334565b73ffffffffffffffffffffffffffffffffffffffff8216612cc8576040517f08c379a000000000000000000000000000000000000000000000000000000000815260206004820152601d60248201527f45524332303a20617070726f76616c20746f2061646472657373283029000000604482015260640161093e565b73ffffffffffffffffffffffffffffffffffffffff80841660009081526001860160209081526040808320938616835292905220547fffffffffffffffffffffffffffffffffffffffffffffffffffffffffffffffff8114801590612d2c57508115155b15611bbb57818103818110611b81576040517f08c379a000000000000000000000000000000000000000000000000000000000815260206004820152601d60248201527f45524332303a20696e73756666696369656e7420616c6c6f77616e6365000000604482015260640161093e565b73ffffffffffffffffffffffffffffffffffffffff8216612e1a576040517f08c379a000000000000000000000000000000000000000000000000000000000815260206004820152601d60248201527f45524332303a207472616e7366657220746f2061646472657373283029000000604482015260640161093e565b8015612f1f5773ffffffffffffffffffffffffffffffffffffffff8316600090815260208590526040902054818103818110612eb2576040517f08c379a000000000000000000000000000000000000000000000000000000000815260206004820152601b60248201527f45524332303a20696e73756666696369656e742062616c616e63650000000000604482015260640161093e565b8373ffffffffffffffffffffffffffffffffffffffff168573ffffffffffffffffffffffffffffffffffffffff1614612f1c5773ffffffffffffffffffffffffffffffffffffffff8086166000908152602088905260408082208490559186168152208054840190555b50505b8173ffffffffffffffffffffffffffffffffffffffff168373ffffffffffffffffffffffffffffffffffffffff167fddf252ad1be2c89b69c2b068fc378daa952ba7f163c4a11628f55a4df523b3ef8360405161159991815260200190565b612f8b87878787876117e9565b73ffffffffffffffffffffffffffffffffffffffff84163b15610d0257610d028686868686868080601f016020809104026020016040519081016040528093929190818152602001838380828437600092019190915250613a9492505050565b73ffffffffffffffffffffffffffffffffffffffff8716613068576040517f08c379a000000000000000000000000000000000000000000000000000000000815260206004820152601d60248201527f45524332303a207065726d69742066726f6d2061646472657373283029000000604482015260640161093e565b834211156130d2576040517f08c379a000000000000000000000000000000000000000000000000000000000815260206004820152601560248201527f45524332303a2065787069726564207065726d69740000000000000000000000604482015260640161093e565b73ffffffffffffffffffffffffffffffffffffffff878116600081815260208b8152604080832080546001810190915581517f6e71edae12b1b97f4d1f60370fef10105fa2faae0126114a169c64845d6126c98185015280830195909552948b166060850152608084018a905260a084019490945260c08084018990528451808503909101815260e090930190935281519190920120906131716119c2565b6040517f19010000000000000000000000000000000000000000000000000000000000006020820152602281019190915260428101839052606201604080517fffffffffffffffffffffffffffffffffffffffffffffffffffffffffffffffe08184030181528282528051602091820120600080855291840180845281905260ff89169284019290925260608301879052608083018690529092509060019060a0016020604051602081039080840390855afa158015613235573d6000803e3d6000fd5b5050506020604051035190508973ffffffffffffffffffffffffffffffffffffffff168173ffffffffffffffffffffffffffffffffffffffff16146132d6576040517f08c379a000000000000000000000000000000000000000000000000000000000815260206004820152601560248201527f45524332303a20696e76616c6964207065726d69740000000000000000000000604482015260640161093e565b5050506109e087878761062a61148a565b60008381526020858152604080832073ffffffffffffffffffffffffffffffffffffffff8616845290915290205460ff161561087c5760008381526020858152604080832073ffffffffffffffffffffffffffffffffffffffff8681168086529184529382902080547fffffffffffffffffffffffffffffffffffffffffffffffffffffffffffffff00169055815187815292830152918316918101919091527ff6391f5c32d9c69d2a47ea670b442974b53935d1edc7fd64eb21e047a839171b906060016119b4565b8261087c828483614553565b6133c986868686612d9d565b73ffffffffffffffffffffffffffffffffffffffff84163b15610ec757610ec78586868686868080601f016020809104026020016040519081016040528093929190818152602001838380828437600092019190915250613a9492505050565b825473ffffffffffffffffffffffffffffffffffffffff90811690831681146134ae576040517f08c379a000000000000000000000000000000000000000000000000000000000815260206004820152601860248201527f4f776e6572736869703a206e6f7420746865206f776e65720000000000000000604482015260640161093e565b8173ffffffffffffffffffffffffffffffffffffffff168173ffffffffffffffffffffffffffffffffffffffff161461087c5783547fffffffffffffffffffffffff00000000000000000000000000000000000000001673ffffffffffffffffffffffffffffffffffffffff8381169182178655604051908316907f8be0079c531659141344cd1fd0a4f28419497f9722a3daafe3b4186f6b6457e090600090a350505050565b804710156135bf576040517f08c379a000000000000000000000000000000000000000000000000000000000815260206004820152601d60248201527f416464726573733a20696e73756666696369656e742062616c616e6365000000604482015260640161093e565b60008273ffffffffffffffffffffffffffffffffffffffff168260405160006040518083038185875af1925050503d8060008114613619576040519150601f19603f3d011682016040523d82523d6000602084013e61361e565b606091505b50509050806106dd576040517f08c379a000000000000000000000000000000000000000000000000000000000815260206004820152603a60248201527f416464726573733a20756e61626c6520746f2073656e642076616c75652c207260448201527f6563697069656e74206d61792068617665207265766572746564000000000000606482015260840161093e565b6000333214806136bf5750601836105b156136c957503390565b7fffffffffffffffffffffffffffffffffffffffffffffffffffffffffffffffec36013560601c7f000000000000000000000000000000000000000000000000000000000000000073ffffffffffffffffffffffffffffffffffffffff163314806137e557506040517f8929a8ca00000000000000000000000000000000000000000000000000000000815273ffffffffffffffffffffffffffffffffffffffff82811660048301523360248301527f00000000000000000000000000000000000000000000000000000000000000001690638929a8ca90604401602060405180830381865afa1580156137c1573d6000803e3d6000fd5b505050506040513d601f19601f820116820180604052508101906137e5919061466d565b156137ef57919050565b3391505090565b6060600082900361381557505060408051602081019091526000815290565b60008260405160200161382a91815260200190565b604080517fffffffffffffffffffffffffffffffffffffffffffffffffffffffffffffffe08184030181529190529050601f5b81818151811061386f5761386f61429c565b01602001517fff00000000000000000000000000000000000000000000000000000000000000166000036138c4577fffffffffffffffffffffffffffffffffffffffffffffffffffffffffffffffff0161385d565b60008160010167ffffffffffffffff8111156138e2576138e2614305565b6040519080825280601f01601f19166020018201604052801561390c576020820181803683370190505b50905060005b82811161397f5783818151811061392b5761392b61429c565b602001015160f81c60f81b8282815181106139485761394861429c565b60200101907effffffffffffffffffffffffffffffffffffffffffffffffffffffffffffff1916908160001a905350600101613912565b50949350505050565b60006139ea826040518060400160405280602081526020017f5361666545524332303a206c6f772d6c6576656c2063616c6c206661696c65648152508573ffffffffffffffffffffffffffffffffffffffff16613bba9092919063ffffffff16565b8051909150156106dd5780806020019051810190613a08919061466d565b6106dd576040517f08c379a000000000000000000000000000000000000000000000000000000000815260206004820152602a60248201527f5361666545524332303a204552433230206f7065726174696f6e20646964206e60448201527f6f74207375636365656400000000000000000000000000000000000000000000606482015260840161093e565b6040517f4fc35859000000000000000000000000000000000000000000000000000000008082529073ffffffffffffffffffffffffffffffffffffffff851690634fc3585990613aee90899089908890889060040161468f565b6020604051808303816000875af1158015613b0d573d6000803e3d6000fd5b505050506040513d601f19601f82011682018060405250810190613b3191906146d8565b7fffffffff000000000000000000000000000000000000000000000000000000001614611834576040517f08c379a000000000000000000000000000000000000000000000000000000000815260206004820152601d60248201527f45524332303a2073616665207472616e736665722072656a6563746564000000604482015260640161093e565b60606106768484600085856000808673ffffffffffffffffffffffffffffffffffffffff168587604051613bee91906146f5565b60006040518083038185875af1925050503d8060008114613c2b576040519150601f19603f3d011682016040523d82523d6000602084013e613c30565b606091505b5091509150613c4187838387613c4c565b979650505050505050565b60608315613ce2578251600003613cdb5773ffffffffffffffffffffffffffffffffffffffff85163b613cdb576040517f08c379a000000000000000000000000000000000000000000000000000000000815260206004820152601d60248201527f416464726573733a2063616c6c20746f206e6f6e2d636f6e7472616374000000604482015260640161093e565b5081610676565b6106768383815115613cf75781518083602001fd5b806040517f08c379a000000000000000000000000000000000000000000000000000000000815260040161093e9190613de4565b7fffffffff0000000000000000000000000000000000000000000000000000000081168114610a5557600080fd5b600060208284031215613d6b57600080fd5b8135610ac381613d2b565b60005b83811015613d91578181015183820152602001613d79565b50506000910152565b60008151808452613db2816020860160208601613d76565b601f017fffffffffffffffffffffffffffffffffffffffffffffffffffffffffffffffe0169290920160200192915050565b602081526000610ac36020830184613d9a565b73ffffffffffffffffffffffffffffffffffffffff81168114610a5557600080fd5b60008060408385031215613e2c57600080fd5b8235613e3781613df7565b946020939093013593505050565b60008083601f840112613e5757600080fd5b50813567ffffffffffffffff811115613e6f57600080fd5b6020830191508360208260051b8501011115613e8a57600080fd5b9250929050565b60008060008060408587031215613ea757600080fd5b843567ffffffffffffffff80821115613ebf57600080fd5b613ecb88838901613e45565b90965094506020870135915080821115613ee457600080fd5b50613ef187828801613e45565b95989497509550505050565b600080600060608486031215613f1257600080fd5b8335613f1d81613df7565b92506020840135613f2d81613df7565b929592945050506040919091013590565b60008060408385031215613f5157600080fd5b823591506020830135613f6381613df7565b809150509250929050565b600060208284031215613f8057600080fd5b5035919050565b600080600080600060608688031215613f9f57600080fd5b8535613faa81613df7565b9450602086013567ffffffffffffffff80821115613fc757600080fd5b613fd389838a01613e45565b90965094506040880135915080821115613fec57600080fd5b50613ff988828901613e45565b969995985093965092949392505050565b60006020828403121561401c57600080fd5b8135610ac381613df7565b6000806000806000806060878903121561404057600080fd5b863567ffffffffffffffff8082111561405857600080fd5b6140648a838b01613e45565b9098509650602089013591508082111561407d57600080fd5b6140898a838b01613e45565b909650945060408901359150808211156140a257600080fd5b506140af89828a01613e45565b979a9699509497509295939492505050565b60008083601f8401126140d357600080fd5b50813567ffffffffffffffff8111156140eb57600080fd5b602083019150836020828501011115613e8a57600080fd5b60008060008060006080868803121561411b57600080fd5b853561412681613df7565b9450602086013561413681613df7565b935060408601359250606086013567ffffffffffffffff81111561415957600080fd5b613ff9888289016140c1565b600080600080600080600060e0888a03121561418057600080fd5b873561418b81613df7565b9650602088013561419b81613df7565b95506040880135945060608801359350608088013560ff811681146141bf57600080fd5b9699959850939692959460a0840135945060c09093013592915050565b600080604083850312156141ef57600080fd5b82356141fa81613df7565b91506020830135613f6381613df7565b6000806020838503121561421d57600080fd5b823567ffffffffffffffff81111561423457600080fd5b614240858286016140c1565b90969095509350505050565b6000806000806060858703121561426257600080fd5b843561426d81613df7565b935060208501359250604085013567ffffffffffffffff81111561429057600080fd5b613ef1878288016140c1565b7f4e487b7100000000000000000000000000000000000000000000000000000000600052603260045260246000fd5b818103818111156105f6577f4e487b7100000000000000000000000000000000000000000000000000000000600052601160045260246000fd5b7f4e487b7100000000000000000000000000000000000000000000000000000000600052604160045260246000fd5b600181811c9082168061434857607f821691505b602082108103614381577f4e487b7100000000000000000000000000000000000000000000000000000000600052602260045260246000fd5b50919050565b601f8211156106dd57600081815260208120601f850160051c810160208610156143ae5750805b601f850160051c820191505b81811015610ec7578281556001016143ba565b815167ffffffffffffffff8111156143e7576143e7614305565b6143fb816143f58454614334565b84614387565b602080601f83116001811461444e57600084156144185750858301515b7fffffffffffffffffffffffffffffffffffffffffffffffffffffffffffffffff600386901b1c1916600185901b178555610ec7565b6000858152602081207fffffffffffffffffffffffffffffffffffffffffffffffffffffffffffffffe08616915b8281101561449b5788860151825594840194600190910190840161447c565b50858210156144d757878501517fffffffffffffffffffffffffffffffffffffffffffffffffffffffffffffffff600388901b60f8161c191681555b5050505050600190811b01905550565b7f416363657373436f6e74726f6c3a206d697373696e672027000000000000000081526000825161451f816018850160208701613d76565b7f2720726f6c6500000000000000000000000000000000000000000000000000006018939091019283015250601e01919050565b67ffffffffffffffff83111561456b5761456b614305565b61457f836145798354614334565b83614387565b6000601f8411600181146145d1576000851561459b5750838201355b7fffffffffffffffffffffffffffffffffffffffffffffffffffffffffffffffff600387901b1c1916600186901b178355611834565b6000838152602090207fffffffffffffffffffffffffffffffffffffffffffffffffffffffffffffffe0861690835b828110156146205786850135825560209485019460019092019101614600565b508682101561465b577fffffffffffffffffffffffffffffffffffffffffffffffffffffffffffffffff60f88860031b161c19848701351681555b505060018560011b0183555050505050565b60006020828403121561467f57600080fd5b81518015158114610ac357600080fd5b600073ffffffffffffffffffffffffffffffffffffffff8087168352808616602084015250836040830152608060608301526146ce6080830184613d9a565b9695505050505050565b6000602082840312156146ea57600080fd5b8151610ac381613d2b565b60008251614707818460208701613d76565b919091019291505056fea26469706673582212204a93f18e5def176f4482e90a2ce5f96dabc283e5849f846d005dbe2db3aebb5664736f6c63430008110033",
  "linkReferences": {},
  "deployedLinkReferences": {}
}