{
  "_format": "hh-sol-artifact-1",
  "contractName": "MyContract",
  "sourceName": "contracts/MyContract.sol",
  "abi": [
    {
      "inputs": [
        {
          "internalType": "address",
          "name": "data",
          "type": "address"
        },
        {
          "internalType": "contract IForwarderRegistry",
          "name": "forwarderRegistry",
          "type": "address"
        }
      ],
      "stateMutability": "nonpayable",
      "type": "constructor"
    },
    {
      "inputs": [],
      "name": "FailedCall",
      "type": "error"
    },
    {
      "inputs": [],
      "name": "IllegalInterfaceId",
      "type": "error"
    },
    {
      "inputs": [],
      "name": "InconsistentArrayLengths",
      "type": "error"
    },
    {
      "inputs": [
        {
          "internalType": "address",
          "name": "tokenContract",
          "type": "address"
        }
      ],
      "name": "IncorrectTokenContractType",
      "type": "error"
    },
    {
      "inputs": [
        {
          "internalType": "uint256",
          "name": "balance",
          "type": "uint256"
        },
        {
          "internalType": "uint256",
          "name": "needed",
          "type": "uint256"
        }
      ],
      "name": "InsufficientBalance",
      "type": "error"
    },
    {
      "inputs": [],
      "name": "InvalidZeroData",
      "type": "error"
    },
    {
      "inputs": [
        {
          "internalType": "address",
          "name": "account",
          "type": "address"
        }
      ],
      "name": "NotContractOwner",
      "type": "error"
    },
    {
      "inputs": [
        {
          "internalType": "address",
          "name": "token",
          "type": "address"
        }
      ],
      "name": "SafeERC20FailedOperation",
      "type": "error"
    },
    {
      "anonymous": false,
      "inputs": [
        {
          "indexed": false,
          "internalType": "address",
          "name": "data",
          "type": "address"
        }
      ],
      "name": "DataSet",
      "type": "event"
    },
    {
      "anonymous": false,
      "inputs": [
        {
          "indexed": true,
          "internalType": "address",
          "name": "previousOwner",
          "type": "address"
        },
        {
          "indexed": true,
          "internalType": "address",
          "name": "newOwner",
          "type": "address"
        }
      ],
      "name": "OwnershipTransferred",
      "type": "event"
    },
    {
      "inputs": [],
      "name": "forwarderRegistry",
      "outputs": [
        {
          "internalType": "contract IForwarderRegistry",
          "name": "",
          "type": "address"
        }
      ],
      "stateMutability": "view",
      "type": "function"
    },
    {
      "inputs": [
        {
          "internalType": "address",
          "name": "forwarder",
          "type": "address"
        }
      ],
      "name": "isTrustedForwarder",
      "outputs": [
        {
          "internalType": "bool",
          "name": "",
          "type": "bool"
        }
      ],
      "stateMutability": "view",
      "type": "function"
    },
    {
      "inputs": [],
      "name": "myData",
      "outputs": [
        {
          "internalType": "address",
          "name": "",
          "type": "address"
        }
      ],
      "stateMutability": "view",
      "type": "function"
    },
    {
      "inputs": [],
      "name": "owner",
      "outputs": [
        {
          "internalType": "address",
          "name": "",
          "type": "address"
        }
      ],
      "stateMutability": "view",
      "type": "function"
    },
    {
      "inputs": [
        {
          "internalType": "address[]",
          "name": "accounts",
          "type": "address[]"
        },
        {
          "internalType": "contract IERC20[]",
          "name": "tokens",
          "type": "address[]"
        },
        {
          "internalType": "uint256[]",
          "name": "amounts",
          "type": "uint256[]"
        }
      ],
      "name": "recoverERC20s",
      "outputs": [],
      "stateMutability": "nonpayable",
      "type": "function"
    },
    {
      "inputs": [
        {
          "internalType": "address[]",
          "name": "accounts",
          "type": "address[]"
        },
        {
          "internalType": "contract IERC721[]",
          "name": "contracts",
          "type": "address[]"
        },
        {
          "internalType": "uint256[]",
          "name": "tokenIds",
          "type": "uint256[]"
        }
      ],
      "name": "recoverERC721s",
      "outputs": [],
      "stateMutability": "nonpayable",
      "type": "function"
    },
    {
      "inputs": [
        {
          "internalType": "address payable[]",
          "name": "accounts",
          "type": "address[]"
        },
        {
          "internalType": "uint256[]",
          "name": "amounts",
          "type": "uint256[]"
        }
      ],
      "name": "recoverETH",
      "outputs": [],
      "stateMutability": "nonpayable",
      "type": "function"
    },
    {
      "inputs": [
        {
          "internalType": "address",
          "name": "data",
          "type": "address"
        }
      ],
      "name": "setData",
      "outputs": [],
      "stateMutability": "nonpayable",
      "type": "function"
    },
    {
      "inputs": [
        {
          "internalType": "bytes4",
          "name": "interfaceId",
          "type": "bytes4"
        }
      ],
      "name": "supportsInterface",
      "outputs": [
        {
          "internalType": "bool",
          "name": "",
          "type": "bool"
        }
      ],
      "stateMutability": "view",
      "type": "function"
    },
    {
      "inputs": [
        {
          "internalType": "address",
          "name": "newOwner",
          "type": "address"
        }
      ],
      "name": "transferOwnership",
      "outputs": [],
      "stateMutability": "nonpayable",
      "type": "function"
    }
  ],
  "bytecode": "0x60a060405234801561001057600080fd5b5060405161136038038061136083398101604081905261002f91610218565b8080336100448161003e6100cc565b90610100565b506001600160a01b039081166080528316905061007457604051633da979c160e21b815260040160405180910390fd5b600080546001600160a01b0319166001600160a01b0384169081179091556040519081527f3d38713ec8fb49acced894a52df2f06a371a15960550da9ba0f017cb7d07a8ec9060200160405180910390a15050610273565b6000806100fa60017fc9ed16f33ab3a66c84bfd83099ccb2a8845871e2e1c1928f63797152f0fd54cd610252565b92915050565b6001600160a01b038116156101565781546001600160a01b0319166001600160a01b03821690811783556040516000907f8be0079c531659141344cd1fd0a4f28419497f9722a3daafe3b4186f6b6457e0908290a35b6101726307f5828d60e41b600161016b610176565b91906101a4565b5050565b6000806100fa60017fca9d3e17f264b0f3984e2634e94adb37fa3e6a8103f06aeae6fa59e21c769f5e610252565b600160e01b6001600160e01b03198316016101d2576040516372c683bb60e01b815260040160405180910390fd5b6001600160e01b03199190911660009081526020929092526040909120805460ff1916911515919091179055565b6001600160a01b038116811461021557600080fd5b50565b6000806040838503121561022b57600080fd5b825161023681610200565b602084015190925061024781610200565b809150509250929050565b818103818111156100fa57634e487b7160e01b600052601160045260246000fd5b6080516110be6102a26000396000818160ed0152818161016201528181610ada0152610b6801526110be6000f3fe608060405234801561001057600080fd5b50600436106100be5760003560e01c806373c8a95811610076578063c3666c361161005b578063c3666c36146101cf578063f2fde38b146101e2578063f7ba94bd146101f557600080fd5b806373c8a958146101b45780638da5cb5b146101c757600080fd5b80632bb14104116100a75780632bb1410414610132578063572b6c051461015257806361dfdae61461019f57600080fd5b806301ffc9a7146100c35780632b4c9f16146100eb575b600080fd5b6100d66100d1366004610e12565b610208565b60405190151581526020015b60405180910390f35b7f00000000000000000000000000000000000000000000000000000000000000005b60405173ffffffffffffffffffffffffffffffffffffffff90911681526020016100e2565b60005461010d9073ffffffffffffffffffffffffffffffffffffffff1681565b6100d6610160366004610e7d565b7f000000000000000000000000000000000000000000000000000000000000000073ffffffffffffffffffffffffffffffffffffffff90811691161490565b6101b26101ad366004610e7d565b610222565b005b6101b26101c2366004610ee6565b610301565b61010d610322565b6101b26101dd366004610ee6565b61034e565b6101b26101f0366004610e7d565b610367565b6101b2610203366004610f8c565b610385565b600061021c826102166103a2565b906103d0565b92915050565b73ffffffffffffffffffffffffffffffffffffffff811661026f576040517ff6a5e70400000000000000000000000000000000000000000000000000000000815260040160405180910390fd5b61028861027a6104aa565b6102826104b4565b906104e2565b600080547fffffffffffffffffffffffff00000000000000000000000000000000000000001673ffffffffffffffffffffffffffffffffffffffff83169081179091556040519081527f3d38713ec8fb49acced894a52df2f06a371a15960550da9ba0f017cb7d07a8ec9060200160405180910390a150565b61030c61027a6104aa565b61031a868686868686610556565b505050505050565b600061034961032f6104b4565b5473ffffffffffffffffffffffffffffffffffffffff1690565b905090565b61035961027a6104aa565b61031a868686868686610641565b6103826103726104aa565b8261037b6104b4565b91906108d7565b50565b61039061027a6104aa565b61039c848484846109eb565b50505050565b60008061021c60017fca9d3e17f264b0f3984e2634e94adb37fa3e6a8103f06aeae6fa59e21c769f5e610ffd565b60007c01000000000000000000000000000000000000000000000000000000007fffffffff000000000000000000000000000000000000000000000000000000008316016104205750600061021c565b7ffe003659000000000000000000000000000000000000000000000000000000007fffffffff000000000000000000000000000000000000000000000000000000008316016104715750600161021c565b507fffffffff00000000000000000000000000000000000000000000000000000000166000908152602091909152604090205460ff1690565b6000610349610a97565b60008061021c60017fc9ed16f33ab3a66c84bfd83099ccb2a8845871e2e1c1928f63797152f0fd54cd610ffd565b815473ffffffffffffffffffffffffffffffffffffffff828116911614610552576040517f2ef4875e00000000000000000000000000000000000000000000000000000000815273ffffffffffffffffffffffffffffffffffffffff821660048201526024015b60405180910390fd5b5050565b8483811415806105665750808214155b1561059d576040517f6582533600000000000000000000000000000000000000000000000000000000815260040160405180910390fd5b60005b818110156106375761062f8888838181106105bd576105bd611037565b90506020020160208101906105d29190610e7d565b8585848181106105e4576105e4611037565b905060200201358888858181106105fd576105fd611037565b90506020020160208101906106129190610e7d565b73ffffffffffffffffffffffffffffffffffffffff169190610be4565b6001016105a0565b5050505050505050565b8483811415806106515750808214155b15610688576040517f6582533600000000000000000000000000000000000000000000000000000000815260040160405180910390fd5b60005b818110156106375760008686838181106106a7576106a7611037565b90506020020160208101906106bc9190610e7d565b6040517f01ffc9a70000000000000000000000000000000000000000000000000000000081527f80ac58cd00000000000000000000000000000000000000000000000000000000600482015290915073ffffffffffffffffffffffffffffffffffffffff8216906301ffc9a790602401602060405180830381865afa158015610749573d6000803e3d6000fd5b505050506040513d601f19601f8201168201806040525081019061076d9190611066565b6107bb576040517f986b9f1f00000000000000000000000000000000000000000000000000000000815273ffffffffffffffffffffffffffffffffffffffff82166004820152602401610549565b8686838181106107cd576107cd611037565b90506020020160208101906107e29190610e7d565b73ffffffffffffffffffffffffffffffffffffffff166342842e0e308b8b8681811061081057610810611037565b90506020020160208101906108259190610e7d565b88888781811061083757610837611037565b6040517fffffffff0000000000000000000000000000000000000000000000000000000060e088901b16815273ffffffffffffffffffffffffffffffffffffffff958616600482015294909316602485015250602090910201356044820152606401600060405180830381600087803b1580156108b357600080fd5b505af11580156108c7573d6000803e3d6000fd5b505050505080600101905061068b565b825473ffffffffffffffffffffffffffffffffffffffff9081169083168114610944576040517f2ef4875e00000000000000000000000000000000000000000000000000000000815273ffffffffffffffffffffffffffffffffffffffff84166004820152602401610549565b8173ffffffffffffffffffffffffffffffffffffffff168173ffffffffffffffffffffffffffffffffffffffff161461039c5783547fffffffffffffffffffffffff00000000000000000000000000000000000000001673ffffffffffffffffffffffffffffffffffffffff8381169182178655604051908316907f8be0079c531659141344cd1fd0a4f28419497f9722a3daafe3b4186f6b6457e090600090a350505050565b82818114610a25576040517f6582533600000000000000000000000000000000000000000000000000000000815260040160405180910390fd5b60005b8181101561031a57610a8f848483818110610a4557610a45611037565b90506020020135878784818110610a5e57610a5e611037565b9050602002016020810190610a739190610e7d565b73ffffffffffffffffffffffffffffffffffffffff1690610c76565b600101610a28565b600033321480610aa75750601836105b15610ab157503390565b7fffffffffffffffffffffffffffffffffffffffffffffffffffffffffffffffec36013560601c7f000000000000000000000000000000000000000000000000000000000000000073ffffffffffffffffffffffffffffffffffffffff16331480610bd357506040517f019a202800000000000000000000000000000000000000000000000000000000815273ffffffffffffffffffffffffffffffffffffffff82811660048301523360248301523060448301527f0000000000000000000000000000000000000000000000000000000000000000169063019a202890606401602060405180830381865afa158015610baf573d6000803e3d6000fd5b505050506040513d601f19601f82011682018060405250810190610bd39190611066565b15610bdd57919050565b3391505090565b6040805173ffffffffffffffffffffffffffffffffffffffff8416602482015260448082018490528251808303909101815260649091019091526020810180517bffffffffffffffffffffffffffffffffffffffffffffffffffffffff167fa9059cbb00000000000000000000000000000000000000000000000000000000179052610c71908490610d2c565b505050565b80471015610cb9576040517fcf47918100000000000000000000000000000000000000000000000000000000815247600482015260248101829052604401610549565b6000808373ffffffffffffffffffffffffffffffffffffffff168360405160006040518083038185875af1925050503d8060008114610d14576040519150601f19603f3d011682016040523d82523d6000602084013e610d19565b606091505b50915091508161039c5761039c81610dd0565b600080602060008451602086016000885af180610d4f576040513d6000823e3d81fd5b50506000513d91508115610d67578060011415610d81565b73ffffffffffffffffffffffffffffffffffffffff84163b155b1561039c576040517f5274afe700000000000000000000000000000000000000000000000000000000815273ffffffffffffffffffffffffffffffffffffffff85166004820152602401610549565b805115610de05780518082602001fd5b6040517fd6bda27500000000000000000000000000000000000000000000000000000000815260040160405180910390fd5b600060208284031215610e2457600080fd5b81357fffffffff0000000000000000000000000000000000000000000000000000000081168114610e5457600080fd5b9392505050565b73ffffffffffffffffffffffffffffffffffffffff8116811461038257600080fd5b600060208284031215610e8f57600080fd5b8135610e5481610e5b565b60008083601f840112610eac57600080fd5b50813567ffffffffffffffff811115610ec457600080fd5b6020830191508360208260051b8501011115610edf57600080fd5b9250929050565b60008060008060008060608789031215610eff57600080fd5b863567ffffffffffffffff811115610f1657600080fd5b610f2289828a01610e9a565b909750955050602087013567ffffffffffffffff811115610f4257600080fd5b610f4e89828a01610e9a565b909550935050604087013567ffffffffffffffff811115610f6e57600080fd5b610f7a89828a01610e9a565b979a9699509497509295939492505050565b60008060008060408587031215610fa257600080fd5b843567ffffffffffffffff811115610fb957600080fd5b610fc587828801610e9a565b909550935050602085013567ffffffffffffffff811115610fe557600080fd5b610ff187828801610e9a565b95989497509550505050565b8181038181111561021c577f4e487b7100000000000000000000000000000000000000000000000000000000600052601160045260246000fd5b7f4e487b7100000000000000000000000000000000000000000000000000000000600052603260045260246000fd5b60006020828403121561107857600080fd5b81518015158114610e5457600080fdfea26469706673582212200f380ad921ba5824fa6663dbb884105edfa37c3b5d56370cd1e18a0564134c4d64736f6c634300081c0033",
  "linkReferences": {},
  "deployedLinkReferences": {}
}