{
  "_format": "hh-sol-artifact-1",
  "contractName": "TokenMock",
  "sourceName": "contracts/TokenMock.sol",
  "abi": [
    {
      "inputs": [
        {
          "internalType": "string",
          "name": "tokenName",
          "type": "string"
        },
        {
          "internalType": "string",
          "name": "tokenSymbol",
          "type": "string"
        },
        {
          "internalType": "uint8",
          "name": "tokenDecimals",
          "type": "uint8"
        },
        {
          "internalType": "contract IForwarderRegistry",
          "name": "forwarderRegistry",
          "type": "address"
        }
      ],
      "stateMutability": "nonpayable",
      "type": "constructor"
    },
    {
      "anonymous": false,
      "inputs": [
        {
          "indexed": true,
          "internalType": "address",
          "name": "owner",
          "type": "address"
        },
        {
          "indexed": true,
          "internalType": "address",
          "name": "spender",
          "type": "address"
        },
        {
          "indexed": false,
          "internalType": "uint256",
          "name": "value",
          "type": "uint256"
        }
      ],
      "name": "Approval",
      "type": "event"
    },
    {
      "anonymous": false,
      "inputs": [
        {
          "indexed": true,
          "internalType": "address",
          "name": "previousOwner",
          "type": "address"
        },
        {
          "indexed": true,
          "internalType": "address",
          "name": "newOwner",
          "type": "address"
        }
      ],
      "name": "OwnershipTransferred",
      "type": "event"
    },
    {
      "anonymous": false,
      "inputs": [
        {
          "indexed": false,
          "internalType": "bytes32",
          "name": "role",
          "type": "bytes32"
        },
        {
          "indexed": false,
          "internalType": "address",
          "name": "account",
          "type": "address"
        },
        {
          "indexed": false,
          "internalType": "address",
          "name": "operator",
          "type": "address"
        }
      ],
      "name": "RoleGranted",
      "type": "event"
    },
    {
      "anonymous": false,
      "inputs": [
        {
          "indexed": false,
          "internalType": "bytes32",
          "name": "role",
          "type": "bytes32"
        },
        {
          "indexed": false,
          "internalType": "address",
          "name": "account",
          "type": "address"
        },
        {
          "indexed": false,
          "internalType": "address",
          "name": "operator",
          "type": "address"
        }
      ],
      "name": "RoleRevoked",
      "type": "event"
    },
    {
      "anonymous": false,
      "inputs": [
        {
          "indexed": true,
          "internalType": "address",
          "name": "from",
          "type": "address"
        },
        {
          "indexed": true,
          "internalType": "address",
          "name": "to",
          "type": "address"
        },
        {
          "indexed": false,
          "internalType": "uint256",
          "name": "value",
          "type": "uint256"
        }
      ],
      "name": "Transfer",
      "type": "event"
    },
    {
      "inputs": [],
      "name": "DOMAIN_SEPARATOR",
      "outputs": [
        {
          "internalType": "bytes32",
          "name": "",
          "type": "bytes32"
        }
      ],
      "stateMutability": "view",
      "type": "function"
    },
    {
      "inputs": [],
      "name": "MINTER_ROLE",
      "outputs": [
        {
          "internalType": "bytes32",
          "name": "",
          "type": "bytes32"
        }
      ],
      "stateMutability": "view",
      "type": "function"
    },
    {
      "inputs": [],
      "name": "__msgData",
      "outputs": [
        {
          "internalType": "bytes",
          "name": "",
          "type": "bytes"
        }
      ],
      "stateMutability": "view",
      "type": "function"
    },
    {
      "inputs": [
        {
          "internalType": "address",
          "name": "owner",
          "type": "address"
        },
        {
          "internalType": "address",
          "name": "spender",
          "type": "address"
        }
      ],
      "name": "allowance",
      "outputs": [
        {
          "internalType": "uint256",
          "name": "value",
          "type": "uint256"
        }
      ],
      "stateMutability": "view",
      "type": "function"
    },
    {
      "inputs": [
        {
          "internalType": "address",
          "name": "spender",
          "type": "address"
        },
        {
          "internalType": "uint256",
          "name": "value",
          "type": "uint256"
        }
      ],
      "name": "approve",
      "outputs": [
        {
          "internalType": "bool",
          "name": "result",
          "type": "bool"
        }
      ],
      "stateMutability": "nonpayable",
      "type": "function"
    },
    {
      "inputs": [
        {
          "internalType": "address",
          "name": "owner",
          "type": "address"
        }
      ],
      "name": "balanceOf",
      "outputs": [
        {
          "internalType": "uint256",
          "name": "balance",
          "type": "uint256"
        }
      ],
      "stateMutability": "view",
      "type": "function"
    },
    {
      "inputs": [
        {
          "internalType": "address[]",
          "name": "recipients",
          "type": "address[]"
        },
        {
          "internalType": "uint256[]",
          "name": "values",
          "type": "uint256[]"
        }
      ],
      "name": "batchMint",
      "outputs": [],
      "stateMutability": "nonpayable",
      "type": "function"
    },
    {
      "inputs": [
        {
          "internalType": "address[]",
          "name": "recipients",
          "type": "address[]"
        },
        {
          "internalType": "uint256[]",
          "name": "values",
          "type": "uint256[]"
        }
      ],
      "name": "batchTransfer",
      "outputs": [
        {
          "internalType": "bool",
          "name": "",
          "type": "bool"
        }
      ],
      "stateMutability": "nonpayable",
      "type": "function"
    },
    {
      "inputs": [
        {
          "internalType": "address",
          "name": "from",
          "type": "address"
        },
        {
          "internalType": "address[]",
          "name": "recipients",
          "type": "address[]"
        },
        {
          "internalType": "uint256[]",
          "name": "values",
          "type": "uint256[]"
        }
      ],
      "name": "batchTransferFrom",
      "outputs": [
        {
          "internalType": "bool",
          "name": "",
          "type": "bool"
        }
      ],
      "stateMutability": "nonpayable",
      "type": "function"
    },
    {
      "inputs": [],
      "name": "decimals",
      "outputs": [
        {
          "internalType": "uint8",
          "name": "",
          "type": "uint8"
        }
      ],
      "stateMutability": "view",
      "type": "function"
    },
    {
      "inputs": [
        {
          "internalType": "address",
          "name": "spender",
          "type": "address"
        },
        {
          "internalType": "uint256",
          "name": "subtractedValue",
          "type": "uint256"
        }
      ],
      "name": "decreaseAllowance",
      "outputs": [
        {
          "internalType": "bool",
          "name": "result",
          "type": "bool"
        }
      ],
      "stateMutability": "nonpayable",
      "type": "function"
    },
    {
      "inputs": [],
      "name": "forwarderRegistry",
      "outputs": [
        {
          "internalType": "contract IForwarderRegistry",
          "name": "",
          "type": "address"
        }
      ],
      "stateMutability": "view",
      "type": "function"
    },
    {
      "inputs": [
        {
          "internalType": "bytes32",
          "name": "role",
          "type": "bytes32"
        },
        {
          "internalType": "address",
          "name": "account",
          "type": "address"
        }
      ],
      "name": "grantRole",
      "outputs": [],
      "stateMutability": "nonpayable",
      "type": "function"
    },
    {
      "inputs": [
        {
          "internalType": "bytes32",
          "name": "role",
          "type": "bytes32"
        },
        {
          "internalType": "address",
          "name": "account",
          "type": "address"
        }
      ],
      "name": "hasRole",
      "outputs": [
        {
          "internalType": "bool",
          "name": "",
          "type": "bool"
        }
      ],
      "stateMutability": "view",
      "type": "function"
    },
    {
      "inputs": [
        {
          "internalType": "address",
          "name": "spender",
          "type": "address"
        },
        {
          "internalType": "uint256",
          "name": "addedValue",
          "type": "uint256"
        }
      ],
      "name": "increaseAllowance",
      "outputs": [
        {
          "internalType": "bool",
          "name": "result",
          "type": "bool"
        }
      ],
      "stateMutability": "nonpayable",
      "type": "function"
    },
    {
      "inputs": [
        {
          "internalType": "address",
          "name": "forwarder",
          "type": "address"
        }
      ],
      "name": "isTrustedForwarder",
      "outputs": [
        {
          "internalType": "bool",
          "name": "",
          "type": "bool"
        }
      ],
      "stateMutability": "view",
      "type": "function"
    },
    {
      "inputs": [
        {
          "internalType": "address",
          "name": "to",
          "type": "address"
        },
        {
          "internalType": "uint256",
          "name": "value",
          "type": "uint256"
        }
      ],
      "name": "mint",
      "outputs": [],
      "stateMutability": "nonpayable",
      "type": "function"
    },
    {
      "inputs": [],
      "name": "name",
      "outputs": [
        {
          "internalType": "string",
          "name": "",
          "type": "string"
        }
      ],
      "stateMutability": "view",
      "type": "function"
    },
    {
      "inputs": [
        {
          "internalType": "address",
          "name": "owner",
          "type": "address"
        }
      ],
      "name": "nonces",
      "outputs": [
        {
          "internalType": "uint256",
          "name": "",
          "type": "uint256"
        }
      ],
      "stateMutability": "view",
      "type": "function"
    },
    {
      "inputs": [],
      "name": "owner",
      "outputs": [
        {
          "internalType": "address",
          "name": "",
          "type": "address"
        }
      ],
      "stateMutability": "view",
      "type": "function"
    },
    {
      "inputs": [
        {
          "internalType": "address",
          "name": "owner",
          "type": "address"
        },
        {
          "internalType": "address",
          "name": "spender",
          "type": "address"
        },
        {
          "internalType": "uint256",
          "name": "value",
          "type": "uint256"
        },
        {
          "internalType": "uint256",
          "name": "deadline",
          "type": "uint256"
        },
        {
          "internalType": "uint8",
          "name": "v",
          "type": "uint8"
        },
        {
          "internalType": "bytes32",
          "name": "r",
          "type": "bytes32"
        },
        {
          "internalType": "bytes32",
          "name": "s",
          "type": "bytes32"
        }
      ],
      "name": "permit",
      "outputs": [],
      "stateMutability": "nonpayable",
      "type": "function"
    },
    {
      "inputs": [
        {
          "internalType": "address[]",
          "name": "accounts",
          "type": "address[]"
        },
        {
          "internalType": "contract IERC20[]",
          "name": "tokens",
          "type": "address[]"
        },
        {
          "internalType": "uint256[]",
          "name": "amounts",
          "type": "uint256[]"
        }
      ],
      "name": "recoverERC20s",
      "outputs": [],
      "stateMutability": "nonpayable",
      "type": "function"
    },
    {
      "inputs": [
        {
          "internalType": "address[]",
          "name": "accounts",
          "type": "address[]"
        },
        {
          "internalType": "contract IERC721[]",
          "name": "contracts",
          "type": "address[]"
        },
        {
          "internalType": "uint256[]",
          "name": "tokenIds",
          "type": "uint256[]"
        }
      ],
      "name": "recoverERC721s",
      "outputs": [],
      "stateMutability": "nonpayable",
      "type": "function"
    },
    {
      "inputs": [
        {
          "internalType": "address payable[]",
          "name": "accounts",
          "type": "address[]"
        },
        {
          "internalType": "uint256[]",
          "name": "amounts",
          "type": "uint256[]"
        }
      ],
      "name": "recoverETH",
      "outputs": [],
      "stateMutability": "nonpayable",
      "type": "function"
    },
    {
      "inputs": [
        {
          "internalType": "bytes32",
          "name": "role",
          "type": "bytes32"
        }
      ],
      "name": "renounceRole",
      "outputs": [],
      "stateMutability": "nonpayable",
      "type": "function"
    },
    {
      "inputs": [
        {
          "internalType": "bytes32",
          "name": "role",
          "type": "bytes32"
        },
        {
          "internalType": "address",
          "name": "account",
          "type": "address"
        }
      ],
      "name": "revokeRole",
      "outputs": [],
      "stateMutability": "nonpayable",
      "type": "function"
    },
    {
      "inputs": [
        {
          "internalType": "address",
          "name": "to",
          "type": "address"
        },
        {
          "internalType": "uint256",
          "name": "value",
          "type": "uint256"
        },
        {
          "internalType": "bytes",
          "name": "data",
          "type": "bytes"
        }
      ],
      "name": "safeTransfer",
      "outputs": [
        {
          "internalType": "bool",
          "name": "",
          "type": "bool"
        }
      ],
      "stateMutability": "nonpayable",
      "type": "function"
    },
    {
      "inputs": [
        {
          "internalType": "address",
          "name": "from",
          "type": "address"
        },
        {
          "internalType": "address",
          "name": "to",
          "type": "address"
        },
        {
          "internalType": "uint256",
          "name": "value",
          "type": "uint256"
        },
        {
          "internalType": "bytes",
          "name": "data",
          "type": "bytes"
        }
      ],
      "name": "safeTransferFrom",
      "outputs": [
        {
          "internalType": "bool",
          "name": "",
          "type": "bool"
        }
      ],
      "stateMutability": "nonpayable",
      "type": "function"
    },
    {
      "inputs": [
        {
          "internalType": "string",
          "name": "uri",
          "type": "string"
        }
      ],
      "name": "setTokenURI",
      "outputs": [],
      "stateMutability": "nonpayable",
      "type": "function"
    },
    {
      "inputs": [
        {
          "internalType": "bytes4",
          "name": "interfaceId",
          "type": "bytes4"
        }
      ],
      "name": "supportsInterface",
      "outputs": [
        {
          "internalType": "bool",
          "name": "",
          "type": "bool"
        }
      ],
      "stateMutability": "view",
      "type": "function"
    },
    {
      "inputs": [],
      "name": "symbol",
      "outputs": [
        {
          "internalType": "string",
          "name": "",
          "type": "string"
        }
      ],
      "stateMutability": "view",
      "type": "function"
    },
    {
      "inputs": [],
      "name": "tokenURI",
      "outputs": [
        {
          "internalType": "string",
          "name": "",
          "type": "string"
        }
      ],
      "stateMutability": "view",
      "type": "function"
    },
    {
      "inputs": [],
      "name": "totalSupply",
      "outputs": [
        {
          "internalType": "uint256",
          "name": "supply",
          "type": "uint256"
        }
      ],
      "stateMutability": "view",
      "type": "function"
    },
    {
      "inputs": [
        {
          "internalType": "address",
          "name": "to",
          "type": "address"
        },
        {
          "internalType": "uint256",
          "name": "value",
          "type": "uint256"
        }
      ],
      "name": "transfer",
      "outputs": [
        {
          "internalType": "bool",
          "name": "result",
          "type": "bool"
        }
      ],
      "stateMutability": "nonpayable",
      "type": "function"
    },
    {
      "inputs": [
        {
          "internalType": "address",
          "name": "from",
          "type": "address"
        },
        {
          "internalType": "address",
          "name": "to",
          "type": "address"
        },
        {
          "internalType": "uint256",
          "name": "value",
          "type": "uint256"
        }
      ],
      "name": "transferFrom",
      "outputs": [
        {
          "internalType": "bool",
          "name": "result",
          "type": "bool"
        }
      ],
      "stateMutability": "nonpayable",
      "type": "function"
    },
    {
      "inputs": [
        {
          "internalType": "address",
          "name": "newOwner",
          "type": "address"
        }
      ],
      "name": "transferOwnership",
      "outputs": [],
      "stateMutability": "nonpayable",
      "type": "function"
    }
  ],
  "bytecode": "0x60a06040523480156200001157600080fd5b5060405162004d1b38038062004d1b83398101604081905262000034916200052a565b83838383808033868686620000536200013d60201b62000e221760201c565b620000858383836200006f620001a160201b62000e861760201c565b620001d760201b62000eb417909392919060201c565b505050620000b681620000a26200024660201b62000f331760201c565b6200027660201b62000f611790919060201c565b50620000cc620002f460201b620010171760201c565b620000e16200031960201b620010471760201c565b620000f66200033c60201b620010751760201c565b6200010b6200035f60201b620010a31760201c565b6001600160a01b03166080525062000133935050505062000382602090811b620010d117901c565b505050506200074b565b600062000154620003a560201b620010fb1760201c565b90506200017a6336372b0760e01b600183620003d560201b62001129179092919060201c565b6200019e634e83a8c360e11b600183620003d560201b62001129179092919060201c565b50565b600080620001d160017f335df4119bbb04f056b33eba33b826d3529129e458faf6daa9924b5a8f3b6a82620005ce565b92915050565b83620001e484826200067f565b5060018401620001f583826200067f565b5060028401805460ff191660ff83161790556200024063a219a02560e01b60016200022b620003a5602090811b620010fb17901c565b620003d560201b62001129179092919060201c565b50505050565b600080620001d160017fc9ed16f33ab3a66c84bfd83099ccb2a8845871e2e1c1928f63797152f0fd54cd620005ce565b6001600160a01b03811615620002cd5781546001600160a01b0319166001600160a01b03821690811783556040516000907f8be0079c531659141344cd1fd0a4f28419497f9722a3daafe3b4186f6b6457e0908290a35b620002f06307f5828d60e41b60016200022b620003a560201b620010fb1760201c565b5050565b620003176303c130d960e41b60016200022b620003a560201b620010fb1760201c565b565b62000317634ec7fbed60e11b60016200022b620003a560201b620010fb1760201c565b620003176353f41a9760e01b60016200022b620003a560201b620010fb1760201c565b6200031763602993f360e11b60016200022b620003a560201b620010fb1760201c565b6200031763144b1f0f60e11b60016200022b620003a560201b620010fb1760201c565b600080620001d160017fca9d3e17f264b0f3984e2634e94adb37fa3e6a8103f06aeae6fa59e21c769f5e620005ce565b600160e01b6001600160e01b0319831601620004375760405162461bcd60e51b815260206004820152601f60248201527f496e74657266616365446574656374696f6e3a2077726f6e672076616c756500604482015260640160405180910390fd5b6001600160e01b03199190911660009081526020929092526040909120805460ff1916911515919091179055565b634e487b7160e01b600052604160045260246000fd5b600082601f8301126200048d57600080fd5b81516001600160401b0380821115620004aa57620004aa62000465565b604051601f8301601f19908116603f01168101908282118183101715620004d557620004d562000465565b81604052838152602092508683858801011115620004f257600080fd5b600091505b83821015620005165785820183015181830184015290820190620004f7565b600093810190920192909252949350505050565b600080600080608085870312156200054157600080fd5b84516001600160401b03808211156200055957600080fd5b62000567888389016200047b565b955060208701519150808211156200057e57600080fd5b506200058d878288016200047b565b935050604085015160ff81168114620005a557600080fd5b60608601519092506001600160a01b0381168114620005c357600080fd5b939692955090935050565b81810381811115620001d157634e487b7160e01b600052601160045260246000fd5b600181811c908216806200060557607f821691505b6020821081036200062657634e487b7160e01b600052602260045260246000fd5b50919050565b601f8211156200067a57600081815260208120601f850160051c81016020861015620006555750805b601f850160051c820191505b81811015620006765782815560010162000661565b5050505b505050565b81516001600160401b038111156200069b576200069b62000465565b620006b381620006ac8454620005f0565b846200062c565b602080601f831160018114620006eb5760008415620006d25750858301515b600019600386901b1c1916600185901b17855562000676565b600085815260208120601f198616915b828110156200071c57888601518255948401946001909101908401620006fb565b50858210156200073b5787850151600019600388901b60f8161c191681555b5050505050600190811b01905550565b6080516145916200078a600039600081816102dc015281816103bf01528181613658015281816136e00152818161379301526137d101526145916000f3fe608060405234801561001057600080fd5b506004361061025c5760003560e01c80637ecebe0011610145578063c3666c36116100bd578063dd62ed3e1161008c578063eb79554911610071578063eb79554914610550578063f2fde38b14610563578063f7ba94bd1461057657600080fd5b8063dd62ed3e1461052a578063e0df5b6f1461053d57600080fd5b8063c3666c36146104ca578063d505accf146104dd578063d5391393146104f0578063d547741f1461051757600080fd5b806391d1485411610114578063a457c2d7116100f9578063a457c2d714610491578063a9059cbb146104a4578063b88d4fde146104b757600080fd5b806391d148541461047657806395d89b411461048957600080fd5b80637ecebe001461043557806388d695b2146104485780638bb9c5bf1461045b5780638da5cb5b1461046e57600080fd5b80633644e515116101d85780634885b254116101a7578063685731071161018c57806368573107146103fc57806370a082311461040f57806373c8a9581461042257600080fd5b80634885b2541461039c578063572b6c05146103af57600080fd5b80633644e51514610366578063395093511461036e5780633c130d901461038157806340c10f191461038957600080fd5b806323b872dd1161022f5780632f2ff15d116102145780632f2ff15d14610321578063313ce5671461033657806331e66e1e1461035057600080fd5b806323b872dd146102c75780632b4c9f16146102da57600080fd5b806301ffc9a71461026157806306fdde0314610289578063095ea7b31461029e57806318160ddd146102b1575b600080fd5b61027461026f366004613b2c565b610589565b60405190151581526020015b60405180910390f35b6102916105a3565b6040516102809190613bb7565b6102746102ac366004613bec565b6105ba565b6102b96105e2565b604051908152602001610280565b6102746102d5366004613c18565b6105f6565b7f00000000000000000000000000000000000000000000000000000000000000005b60405173ffffffffffffffffffffffffffffffffffffffff9091168152602001610280565b61033461032f366004613c59565b610621565b005b61033e61065a565b60405160ff9091168152602001610280565b610358610671565b604051610280929190613c89565b6102b9610684565b61027461037c366004613bec565b61068e565b6102916106ad565b610334610397366004613bec565b6106ba565b6102746103aa366004613d22565b61070d565b6102746103bd366004613da5565b7f000000000000000000000000000000000000000000000000000000000000000073ffffffffffffffffffffffffffffffffffffffff90811691161490565b61033461040a366004613dc2565b61073e565b6102b961041d366004613da5565b6107e8565b610334610430366004613e2e565b610820565b6102b9610443366004613da5565b610950565b610274610456366004613dc2565b61095e565b610334610469366004613ec8565b61098d565b6102fc6109ab565b610274610484366004613c59565b6109d2565b610291610a1d565b61027461049f366004613bec565b610a2f565b6102746104b2366004613bec565b610a4e565b6102746104c5366004613f23565b610a6d565b6103346104d8366004613e2e565b610a92565b6103346104eb366004613f85565b610c37565b6102b97f6d696e746572000000000000000000000000000000000000000000000000000081565b610334610525366004613c59565b610c5e565b6102b9610538366004613ffc565b610c8c565b61033461054b36600461402a565b610cd7565b61027461055e36600461406c565b610cf6565b610334610571366004613da5565b610d19565b610334610584366004613dc2565b610d34565b600061059d826105976110fb565b90611235565b92915050565b60606105b56105b0610e86565b61130f565b905090565b60006105d96105c76113a5565b84846105d16113af565b9291906113dd565b50600192915050565b60006105b56105ef6113af565b6002015490565b60006106176106036113a5565b85858561060e6113af565b939291906114cc565b5060019392505050565b600061062b6113a5565b905061063f81610639610f33565b9061151e565b61065583838361064d6115a1565b9291906115cf565b505050565b60006105b5610667610e86565b6002015460ff1690565b36600061067c6116a5565b915091509091565b60006105b56116b0565b60006105d961069b6113a5565b84846106a56113af565b92919061174b565b60606105b56105b0611917565b6106f57f6d696e74657200000000000000000000000000000000000000000000000000006106e66113a5565b6106ee6115a1565b9190611945565b61070982826107026113af565b91906119f1565b5050565b600061073261071a6113a5565b87878787876107276113af565b959493929190611b6a565b50600195945050505050565b61076a7f6d696e74657200000000000000000000000000000000000000000000000000006106e66113a5565b6107e2848480806020026020016040519081016040528093929190818152602001838360200280828437600092019190915250506040805160208088028281018201909352878252909350879250869182918501908490808284376000920191909152506107db92506113af915050565b9190611fb0565b50505050565b600061059d826107f66113af565b9073ffffffffffffffffffffffffffffffffffffffff166000908152602091909152604090205490565b61083361082b6113a5565b610639610f33565b84838114801561084257508082145b6108ad576040517f08c379a000000000000000000000000000000000000000000000000000000000815260206004820152601d60248201527f5265636f766572793a20696e636f6e73697374656e742061727261797300000060448201526064015b60405180910390fd5b60005b8181146109465761093e8888838181106108cc576108cc6140bc565b90506020020160208101906108e19190613da5565b8585848181106108f3576108f36140bc565b9050602002013588888581811061090c5761090c6140bc565b90506020020160208101906109219190613da5565b73ffffffffffffffffffffffffffffffffffffffff169190612286565b6001016108b0565b5050505050505050565b600061059d826107f6612313565b600061098161096b6113a5565b868686866109776113af565b9493929190612341565b5060015b949350505050565b6109a86109986113a5565b826109a16115a1565b9190612723565b50565b60006105b56109b8610f33565b5473ffffffffffffffffffffffffffffffffffffffff1690565b6000610a1683836109e16115a1565b60009283526020908152604080842073ffffffffffffffffffffffffffffffffffffffff909316845291905290205460ff1690565b9392505050565b60606105b5610a2a610e86565b6127c7565b60006105d9610a3c6113a5565b8484610a466113af565b9291906127d8565b60006105d9610a5b6113a5565b8484610a656113af565b92919061292a565b6000610732610a7a6113a5565b8787878787610a876113af565b959493929190612b0b565b610a9d61082b6113a5565b848381148015610aac57508082145b610b12576040517f08c379a000000000000000000000000000000000000000000000000000000000815260206004820152601d60248201527f5265636f766572793a20696e636f6e73697374656e742061727261797300000060448201526064016108a4565b60005b81811461094657858582818110610b2e57610b2e6140bc565b9050602002016020810190610b439190613da5565b73ffffffffffffffffffffffffffffffffffffffff166323b872dd308a8a85818110610b7157610b716140bc565b9050602002016020810190610b869190613da5565b878786818110610b9857610b986140bc565b6040517fffffffff0000000000000000000000000000000000000000000000000000000060e088901b16815273ffffffffffffffffffffffffffffffffffffffff958616600482015294909316602485015250602090910201356044820152606401600060405180830381600087803b158015610c1457600080fd5b505af1158015610c28573d6000803e3d6000fd5b50505050806001019050610b15565b610c5587878787878787610c49612313565b96959493929190612b78565b50505050505050565b6000610c686113a5565b9050610c7681610639610f33565b610655838383610c846115a1565b929190612e74565b6000610a168383610c9b6113af565b919073ffffffffffffffffffffffffffffffffffffffff9182166000908152600193909301602090815260408085209290931684525290205490565b610ce261082b6113a5565b6107098282610cef611917565b9190612f3e565b6000610981610d036113a5565b86868686610d0f6113af565b9493929190612f4a565b6109a8610d246113a5565b82610d2d610f33565b9190612fb6565b610d3f61082b6113a5565b82818114610da9576040517f08c379a000000000000000000000000000000000000000000000000000000000815260206004820152601d60248201527f5265636f766572793a20696e636f6e73697374656e742061727261797300000060448201526064016108a4565b60005b818114610e1a57610e12848483818110610dc857610dc86140bc565b90506020020135878784818110610de157610de16140bc565b9050602002016020810190610df69190613da5565b73ffffffffffffffffffffffffffffffffffffffff16906130e2565b600101610dac565b505050505050565b6000610e2c6110fb565b9050610e5a817f36372b07000000000000000000000000000000000000000000000000000000006001611129565b6109a8817f9d075186000000000000000000000000000000000000000000000000000000006001611129565b60008061059d60017f335df4119bbb04f056b33eba33b826d3529129e458faf6daa9924b5a8f3b6a826140eb565b83610ebf84826141ed565b5060018401610ece83826141ed565b506002840180547fffffffffffffffffffffffffffffffffffffffffffffffffffffffffffffff001660ff83161790556107e27fa219a025000000000000000000000000000000000000000000000000000000006001610f2c6110fb565b9190611129565b60008061059d60017fc9ed16f33ab3a66c84bfd83099ccb2a8845871e2e1c1928f63797152f0fd54cd6140eb565b73ffffffffffffffffffffffffffffffffffffffff811615610fe95781547fffffffffffffffffffffffff00000000000000000000000000000000000000001673ffffffffffffffffffffffffffffffffffffffff821690811783556040516000907f8be0079c531659141344cd1fd0a4f28419497f9722a3daafe3b4186f6b6457e0908290a35b6107097f7f5828d0000000000000000000000000000000000000000000000000000000006001610f2c6110fb565b6110457f3c130d90000000000000000000000000000000000000000000000000000000006001610f2c6110fb565b565b6110457f9d8ff7da000000000000000000000000000000000000000000000000000000006001610f2c6110fb565b6110457f53f41a97000000000000000000000000000000000000000000000000000000006001610f2c6110fb565b6110457fc05327e6000000000000000000000000000000000000000000000000000000006001610f2c6110fb565b6110457f28963e1e000000000000000000000000000000000000000000000000000000006001610f2c5b60008061059d60017fca9d3e17f264b0f3984e2634e94adb37fa3e6a8103f06aeae6fa59e21c769f5e6140eb565b7c01000000000000000000000000000000000000000000000000000000007fffffffff000000000000000000000000000000000000000000000000000000008316016111d1576040517f08c379a000000000000000000000000000000000000000000000000000000000815260206004820152601f60248201527f496e74657266616365446574656374696f6e3a2077726f6e672076616c75650060448201526064016108a4565b7fffffffff00000000000000000000000000000000000000000000000000000000919091166000908152602092909252604090912080547fffffffffffffffffffffffffffffffffffffffffffffffffffffffffffffff0016911515919091179055565b60007c01000000000000000000000000000000000000000000000000000000007fffffffff000000000000000000000000000000000000000000000000000000008316016112855750600061059d565b7ffe003659000000000000000000000000000000000000000000000000000000007fffffffff000000000000000000000000000000000000000000000000000000008316016112d65750600161059d565b507fffffffff00000000000000000000000000000000000000000000000000000000166000908152602091909152604090205460ff1690565b606081600001805461132090614154565b80601f016020809104026020016040519081016040528092919081815260200182805461134c90614154565b80156113995780601f1061136e57610100808354040283529160200191611399565b820191906000526020600020905b81548152906001019060200180831161137c57829003601f168201915b50505050509050919050565b60006105b561323c565b60008061059d60017f1da92899d3da68bf9787824388a37ea2bfa79780bcef91b9716c390eec8ecbef6140eb565b73ffffffffffffffffffffffffffffffffffffffff821661145a576040517f08c379a000000000000000000000000000000000000000000000000000000000815260206004820152601d60248201527f45524332303a20617070726f76616c20746f206164647265737328302900000060448201526064016108a4565b73ffffffffffffffffffffffffffffffffffffffff838116600081815260018701602090815260408083209487168084529482529182902085905590518481527f8c5be1e5ebec7d5bd14f71427d1e84f3dd0314c0f7b2291e5b200ac8c7c3b92591015b60405180910390a350505050565b8373ffffffffffffffffffffffffffffffffffffffff168373ffffffffffffffffffffffffffffffffffffffff161461150b5761150b858486846127d8565b6115178584848461292a565b5050505050565b815473ffffffffffffffffffffffffffffffffffffffff828116911614610709576040517f08c379a000000000000000000000000000000000000000000000000000000000815260206004820152601860248201527f4f776e6572736869703a206e6f7420746865206f776e6572000000000000000060448201526064016108a4565b60008061059d60017fc8827d3282af6f37b64c3e9e6f3ac9df286ab0bb0fccd6f8661bf19adb368b236140eb565b60008381526020858152604080832073ffffffffffffffffffffffffffffffffffffffff8616845290915290205460ff166107e25760008381526020858152604080832073ffffffffffffffffffffffffffffffffffffffff8681168086529184529382902080547fffffffffffffffffffffffffffffffffffffffffffffffffffffffffffffff00166001179055815187815292830152918316918101919091527f2f8788117e7eff1d82e926ec794901d17c78024a50270940304540a733656f0d906060015b60405180910390a150505050565b36600061067c613246565b6000467f8b73c3c69bb8fe3d512ecc4cf759cc79239f7b179b0ffacaa9a75d522b39400f6116df6105b0610e86565b80516020918201206040805192830193909352918101919091527fc89efdaa54c0f20c7adf612882df0950f5a951637e0307cdcb4c672f298b8bc66060820152608081018290523060a082015260c0016040516020818303038152906040528051906020012091505090565b73ffffffffffffffffffffffffffffffffffffffff82166117c8576040517f08c379a000000000000000000000000000000000000000000000000000000000815260206004820152601d60248201527f45524332303a20617070726f76616c20746f206164647265737328302900000060448201526064016108a4565b73ffffffffffffffffffffffffffffffffffffffff808416600090815260018601602090815260408083209386168352929052205481156118a95780820181811161186f576040517f08c379a000000000000000000000000000000000000000000000000000000000815260206004820152601960248201527f45524332303a20616c6c6f77616e6365206f766572666c6f770000000000000060448201526064016108a4565b73ffffffffffffffffffffffffffffffffffffffff8086166000908152600188016020908152604080832093881683529290522081905590505b8273ffffffffffffffffffffffffffffffffffffffff168473ffffffffffffffffffffffffffffffffffffffff167f8c5be1e5ebec7d5bd14f71427d1e84f3dd0314c0f7b2291e5b200ac8c7c3b9258360405161190891815260200190565b60405180910390a35050505050565b60008061059d60017ff41bf6a5db26bffdfab174dcf66b31fbba8fdb7e3db040721ce1e62d61839ceb6140eb565b60008281526020848152604080832073ffffffffffffffffffffffffffffffffffffffff8516845290915290205460ff166106555761198382613251565b6040516020016119939190614307565b604080517fffffffffffffffffffffffffffffffffffffffffffffffffffffffffffffffe0818403018152908290527f08c379a00000000000000000000000000000000000000000000000000000000082526108a491600401613bb7565b73ffffffffffffffffffffffffffffffffffffffff8216611a6e576040517f08c379a000000000000000000000000000000000000000000000000000000000815260206004820152601960248201527f45524332303a206d696e7420746f20616464726573732830290000000000000060448201526064016108a4565b8015611b17576002830154818101818111611ae5576040517f08c379a000000000000000000000000000000000000000000000000000000000815260206004820152601660248201527f45524332303a20737570706c79206f766572666c6f770000000000000000000060448201526064016108a4565b60028501555073ffffffffffffffffffffffffffffffffffffffff821660009081526020849052604090208054820190555b60405181815273ffffffffffffffffffffffffffffffffffffffff8316906000907fddf252ad1be2c89b69c2b068fc378daa952ba7f163c4a11628f55a4df523b3ef9060200160405180910390a3505050565b82818114611bd4576040517f08c379a000000000000000000000000000000000000000000000000000000000815260206004820152601a60248201527f45524332303a20696e636f6e73697374656e742061727261797300000000000060448201526064016108a4565b80600003611be25750610c55565b73ffffffffffffffffffffffffffffffffffffffff86166000908152602089905260408120549080805b848114611eb8576000898983818110611c2757611c276140bc565b9050602002016020810190611c3c9190613da5565b905073ffffffffffffffffffffffffffffffffffffffff8116611cbb576040517f08c379a000000000000000000000000000000000000000000000000000000000815260206004820152601d60248201527f45524332303a207472616e7366657220746f206164647265737328302900000060448201526064016108a4565b6000888884818110611ccf57611ccf6140bc565b90506020020135905080600014611e4757848101858111611d4c576040517f08c379a000000000000000000000000000000000000000000000000000000000815260206004820152601660248201527f45524332303a2076616c756573206f766572666c6f770000000000000000000060448201526064016108a4565b8095508273ffffffffffffffffffffffffffffffffffffffff168d73ffffffffffffffffffffffffffffffffffffffff1614611dd657818f60000160008573ffffffffffffffffffffffffffffffffffffffff1673ffffffffffffffffffffffffffffffffffffffff16815260200190815260200160002060008282540192505081905550611e45565b86821115611e40576040517f08c379a000000000000000000000000000000000000000000000000000000000815260206004820152601b60248201527f45524332303a20696e73756666696369656e742062616c616e6365000000000060448201526064016108a4565b938101935b505b8173ffffffffffffffffffffffffffffffffffffffff168c73ffffffffffffffffffffffffffffffffffffffff167fddf252ad1be2c89b69c2b068fc378daa952ba7f163c4a11628f55a4df523b3ef83604051611ea691815260200190565b60405180910390a35050600101611c0c565b508115801590611ec85750808214155b15611f6457818303838110611f39576040517f08c379a000000000000000000000000000000000000000000000000000000000815260206004820152601b60248201527f45524332303a20696e73756666696369656e742062616c616e6365000000000060448201526064016108a4565b73ffffffffffffffffffffffffffffffffffffffff8a16600090815260208d90526040902090820190555b8973ffffffffffffffffffffffffffffffffffffffff168973ffffffffffffffffffffffffffffffffffffffff1614611fa357611fa38b8a8c856127d8565b5050505050505050505050565b81518151811461201c576040517f08c379a000000000000000000000000000000000000000000000000000000000815260206004820152601a60248201527f45524332303a20696e636f6e73697374656e742061727261797300000000000060448201526064016108a4565b8060000361202a5750505050565b6000805b828114612201576000858281518110612049576120496140bc565b60200260200101519050600073ffffffffffffffffffffffffffffffffffffffff168173ffffffffffffffffffffffffffffffffffffffff16036120e9576040517f08c379a000000000000000000000000000000000000000000000000000000000815260206004820152601960248201527f45524332303a206d696e7420746f20616464726573732830290000000000000060448201526064016108a4565b60008583815181106120fd576120fd6140bc565b60200260200101519050806000146121a95783810184811161217b576040517f08c379a000000000000000000000000000000000000000000000000000000000815260206004820152601660248201527f45524332303a2076616c756573206f766572666c6f770000000000000000000060448201526064016108a4565b73ffffffffffffffffffffffffffffffffffffffff8316600090815260208a90526040902080548301905593505b60405181815273ffffffffffffffffffffffffffffffffffffffff8316906000907fddf252ad1be2c89b69c2b068fc378daa952ba7f163c4a11628f55a4df523b3ef9060200160405180910390a3505060010161202e565b508015611517576002850154818101818111612279576040517f08c379a000000000000000000000000000000000000000000000000000000000815260206004820152601660248201527f45524332303a20737570706c79206f766572666c6f770000000000000000000060448201526064016108a4565b6002870155505050505050565b6040805173ffffffffffffffffffffffffffffffffffffffff8416602482015260448082018490528251808303909101815260649091019091526020810180517bffffffffffffffffffffffffffffffffffffffffffffffffffffffff167fa9059cbb000000000000000000000000000000000000000000000000000000001790526106559084906133e3565b60008061059d60017f93fe0ff7226b064a4a8f0b09910762afb4bc2441835792c021ffd78cd513011e6140eb565b828181146123ab576040517f08c379a000000000000000000000000000000000000000000000000000000000815260206004820152601a60248201527f45524332303a20696e636f6e73697374656e742061727261797300000000000060448201526064016108a4565b806000036123b95750610e1a565b73ffffffffffffffffffffffffffffffffffffffff86166000908152602088905260408120549080805b84811461266b5760008989838181106123fe576123fe6140bc565b90506020020160208101906124139190613da5565b905073ffffffffffffffffffffffffffffffffffffffff8116612492576040517f08c379a000000000000000000000000000000000000000000000000000000000815260206004820152601d60248201527f45524332303a207472616e7366657220746f206164647265737328302900000060448201526064016108a4565b60008888848181106124a6576124a66140bc565b905060200201359050806000146125fa57848101858111612523576040517f08c379a000000000000000000000000000000000000000000000000000000000815260206004820152601660248201527f45524332303a2076616c756573206f766572666c6f770000000000000000000060448201526064016108a4565b8095508273ffffffffffffffffffffffffffffffffffffffff168d73ffffffffffffffffffffffffffffffffffffffff16146125895773ffffffffffffffffffffffffffffffffffffffff8316600090815260208f9052604090208054830190556125f8565b868211156125f3576040517f08c379a000000000000000000000000000000000000000000000000000000000815260206004820152601b60248201527f45524332303a20696e73756666696369656e742062616c616e6365000000000060448201526064016108a4565b938101935b505b8173ffffffffffffffffffffffffffffffffffffffff168c73ffffffffffffffffffffffffffffffffffffffff167fddf252ad1be2c89b69c2b068fc378daa952ba7f163c4a11628f55a4df523b3ef8360405161265991815260200190565b60405180910390a350506001016123e3565b50811580159061267b5750808214155b15612717578183038381106126ec576040517f08c379a000000000000000000000000000000000000000000000000000000000815260206004820152601b60248201527f45524332303a20696e73756666696369656e742062616c616e6365000000000060448201526064016108a4565b73ffffffffffffffffffffffffffffffffffffffff8a16600090815260208c90526040902090820190555b50505050505050505050565b61272e838284611945565b60008181526020848152604080832073ffffffffffffffffffffffffffffffffffffffff86168085529083529281902080547fffffffffffffffffffffffffffffffffffffffffffffffffffffffffffffff0016905580518481529182018390528101919091527ff6391f5c32d9c69d2a47ea670b442974b53935d1edc7fd64eb21e047a839171b9060600160405180910390a1505050565b606081600101805461132090614154565b73ffffffffffffffffffffffffffffffffffffffff8216612855576040517f08c379a000000000000000000000000000000000000000000000000000000000815260206004820152601d60248201527f45524332303a20617070726f76616c20746f206164647265737328302900000060448201526064016108a4565b73ffffffffffffffffffffffffffffffffffffffff80841660009081526001860160209081526040808320938616835292905220547fffffffffffffffffffffffffffffffffffffffffffffffffffffffffffffffff81148015906128b957508115155b156118a95781810381811061186f576040517f08c379a000000000000000000000000000000000000000000000000000000000815260206004820152601d60248201527f45524332303a20696e73756666696369656e7420616c6c6f77616e636500000060448201526064016108a4565b73ffffffffffffffffffffffffffffffffffffffff82166129a7576040517f08c379a000000000000000000000000000000000000000000000000000000000815260206004820152601d60248201527f45524332303a207472616e7366657220746f206164647265737328302900000060448201526064016108a4565b8015612aac5773ffffffffffffffffffffffffffffffffffffffff8316600090815260208590526040902054818103818110612a3f576040517f08c379a000000000000000000000000000000000000000000000000000000000815260206004820152601b60248201527f45524332303a20696e73756666696369656e742062616c616e6365000000000060448201526064016108a4565b8373ffffffffffffffffffffffffffffffffffffffff168573ffffffffffffffffffffffffffffffffffffffff1614612aa95773ffffffffffffffffffffffffffffffffffffffff8086166000908152602088905260408082208490559186168152208054840190555b50505b8173ffffffffffffffffffffffffffffffffffffffff168373ffffffffffffffffffffffffffffffffffffffff167fddf252ad1be2c89b69c2b068fc378daa952ba7f163c4a11628f55a4df523b3ef836040516114be91815260200190565b612b1887878787876114cc565b73ffffffffffffffffffffffffffffffffffffffff84163b15610c5557610c558686868686868080601f0160208091040260200160405190810160405280939291908181526020018383808284376000920191909152506134ef92505050565b73ffffffffffffffffffffffffffffffffffffffff8716612bf5576040517f08c379a000000000000000000000000000000000000000000000000000000000815260206004820152601d60248201527f45524332303a207065726d69742066726f6d206164647265737328302900000060448201526064016108a4565b83421115612c5f576040517f08c379a000000000000000000000000000000000000000000000000000000000815260206004820152601560248201527f45524332303a2065787069726564207065726d6974000000000000000000000060448201526064016108a4565b73ffffffffffffffffffffffffffffffffffffffff878116600081815260208b8152604080832080546001810190915581517f6e71edae12b1b97f4d1f60370fef10105fa2faae0126114a169c64845d6126c98185015280830195909552948b166060850152608084018a905260a084019490945260c08084018990528451808503909101815260e09093019093528151919092012090612cfe6116b0565b6040517f19010000000000000000000000000000000000000000000000000000000000006020820152602281019190915260428101839052606201604080517fffffffffffffffffffffffffffffffffffffffffffffffffffffffffffffffe08184030181528282528051602091820120600080855291840180845281905260ff89169284019290925260608301879052608083018690529092509060019060a0016020604051602081039080840390855afa158015612dc2573d6000803e3d6000fd5b5050506020604051035190508973ffffffffffffffffffffffffffffffffffffffff168173ffffffffffffffffffffffffffffffffffffffff1614612e63576040517f08c379a000000000000000000000000000000000000000000000000000000000815260206004820152601560248201527f45524332303a20696e76616c6964207065726d6974000000000000000000000060448201526064016108a4565b5050506109468787876105d16113af565b60008381526020858152604080832073ffffffffffffffffffffffffffffffffffffffff8616845290915290205460ff16156107e25760008381526020858152604080832073ffffffffffffffffffffffffffffffffffffffff8681168086529184529382902080547fffffffffffffffffffffffffffffffffffffffffffffffffffffffffffffff00169055815187815292830152918316918101919091527ff6391f5c32d9c69d2a47ea670b442974b53935d1edc7fd64eb21e047a839171b90606001611697565b826107e2828483614373565b612f568686868661292a565b73ffffffffffffffffffffffffffffffffffffffff84163b15610e1a57610e1a8586868686868080601f0160208091040260200160405190810160405280939291908181526020018383808284376000920191909152506134ef92505050565b825473ffffffffffffffffffffffffffffffffffffffff908116908316811461303b576040517f08c379a000000000000000000000000000000000000000000000000000000000815260206004820152601860248201527f4f776e6572736869703a206e6f7420746865206f776e6572000000000000000060448201526064016108a4565b8173ffffffffffffffffffffffffffffffffffffffff168173ffffffffffffffffffffffffffffffffffffffff16146107e25783547fffffffffffffffffffffffff00000000000000000000000000000000000000001673ffffffffffffffffffffffffffffffffffffffff8381169182178655604051908316907f8be0079c531659141344cd1fd0a4f28419497f9722a3daafe3b4186f6b6457e090600090a350505050565b8047101561314c576040517f08c379a000000000000000000000000000000000000000000000000000000000815260206004820152601d60248201527f416464726573733a20696e73756666696369656e742062616c616e636500000060448201526064016108a4565b60008273ffffffffffffffffffffffffffffffffffffffff168260405160006040518083038185875af1925050503d80600081146131a6576040519150601f19603f3d011682016040523d82523d6000602084013e6131ab565b606091505b5050905080610655576040517f08c379a000000000000000000000000000000000000000000000000000000000815260206004820152603a60248201527f416464726573733a20756e61626c6520746f2073656e642076616c75652c207260448201527f6563697069656e74206d6179206861766520726576657274656400000000000060648201526084016108a4565b60006105b5613615565b36600061067c61375c565b6060600082900361327057505060408051602081019091526000815290565b60008260405160200161328591815260200190565b604080517fffffffffffffffffffffffffffffffffffffffffffffffffffffffffffffffe08184030181529190529050601f5b8181815181106132ca576132ca6140bc565b01602001517fff000000000000000000000000000000000000000000000000000000000000001660000361331f577fffffffffffffffffffffffffffffffffffffffffffffffffffffffffffffffff016132b8565b60008160010167ffffffffffffffff81111561333d5761333d614125565b6040519080825280601f01601f191660200182016040528015613367576020820181803683370190505b50905060005b8281116133da57838181518110613386576133866140bc565b602001015160f81c60f81b8282815181106133a3576133a36140bc565b60200101907effffffffffffffffffffffffffffffffffffffffffffffffffffffffffffff1916908160001a90535060010161336d565b50949350505050565b6000613445826040518060400160405280602081526020017f5361666545524332303a206c6f772d6c6576656c2063616c6c206661696c65648152508573ffffffffffffffffffffffffffffffffffffffff166138c69092919063ffffffff16565b8051909150156106555780806020019051810190613463919061448d565b610655576040517f08c379a000000000000000000000000000000000000000000000000000000000815260206004820152602a60248201527f5361666545524332303a204552433230206f7065726174696f6e20646964206e60448201527f6f7420737563636565640000000000000000000000000000000000000000000060648201526084016108a4565b6040517f4fc35859000000000000000000000000000000000000000000000000000000008082529073ffffffffffffffffffffffffffffffffffffffff851690634fc35859906135499089908990889088906004016144af565b6020604051808303816000875af1158015613568573d6000803e3d6000fd5b505050506040513d601f19601f8201168201806040525081019061358c91906144f8565b7fffffffff000000000000000000000000000000000000000000000000000000001614611517576040517f08c379a000000000000000000000000000000000000000000000000000000000815260206004820152601d60248201527f45524332303a2073616665207472616e736665722072656a656374656400000060448201526064016108a4565b6000333214806136255750601836105b1561362f57503390565b7fffffffffffffffffffffffffffffffffffffffffffffffffffffffffffffffec36013560601c7f000000000000000000000000000000000000000000000000000000000000000073ffffffffffffffffffffffffffffffffffffffff1633148061374b57506040517f8929a8ca00000000000000000000000000000000000000000000000000000000815273ffffffffffffffffffffffffffffffffffffffff82811660048301523360248301527f00000000000000000000000000000000000000000000000000000000000000001690638929a8ca90604401602060405180830381865afa158015613727573d6000803e3d6000fd5b505050506040513d601f19601f8201168201806040525081019061374b919061448d565b1561375557919050565b3391505090565b3660003332148061376d5750601836105b1561377b5750600091369150565b3373ffffffffffffffffffffffffffffffffffffffff7f00000000000000000000000000000000000000000000000000000000000000001614806138b0575073ffffffffffffffffffffffffffffffffffffffff7f000000000000000000000000000000000000000000000000000000000000000016638929a8ca367fffffffffffffffffffffffffffffffffffffffffffffffffffffffffffffffec013560601c6040517fffffffff0000000000000000000000000000000000000000000000000000000060e084901b16815273ffffffffffffffffffffffffffffffffffffffff9091166004820152336024820152604401602060405180830381865afa15801561388c573d6000803e3d6000fd5b505050506040513d601f19601f820116820180604052508101906138b0919061448d565b156138bd5761067c6138d5565b50600091369150565b60606109858484600085613906565b36600061067c7fffffffffffffffffffffffffffffffffffffffffffffffffffffffffffffffec8301828481614515565b606082471015613998576040517f08c379a000000000000000000000000000000000000000000000000000000000815260206004820152602660248201527f416464726573733a20696e73756666696369656e742062616c616e636520666f60448201527f722063616c6c000000000000000000000000000000000000000000000000000060648201526084016108a4565b6000808673ffffffffffffffffffffffffffffffffffffffff1685876040516139c1919061453f565b60006040518083038185875af1925050503d80600081146139fe576040519150601f19603f3d011682016040523d82523d6000602084013e613a03565b606091505b5091509150613a1487838387613a1f565b979650505050505050565b60608315613ab5578251600003613aae5773ffffffffffffffffffffffffffffffffffffffff85163b613aae576040517f08c379a000000000000000000000000000000000000000000000000000000000815260206004820152601d60248201527f416464726573733a2063616c6c20746f206e6f6e2d636f6e747261637400000060448201526064016108a4565b5081610985565b6109858383815115613aca5781518083602001fd5b806040517f08c379a00000000000000000000000000000000000000000000000000000000081526004016108a49190613bb7565b7fffffffff00000000000000000000000000000000000000000000000000000000811681146109a857600080fd5b600060208284031215613b3e57600080fd5b8135610a1681613afe565b60005b83811015613b64578181015183820152602001613b4c565b50506000910152565b60008151808452613b85816020860160208601613b49565b601f017fffffffffffffffffffffffffffffffffffffffffffffffffffffffffffffffe0169290920160200192915050565b602081526000610a166020830184613b6d565b73ffffffffffffffffffffffffffffffffffffffff811681146109a857600080fd5b60008060408385031215613bff57600080fd5b8235613c0a81613bca565b946020939093013593505050565b600080600060608486031215613c2d57600080fd5b8335613c3881613bca565b92506020840135613c4881613bca565b929592945050506040919091013590565b60008060408385031215613c6c57600080fd5b823591506020830135613c7e81613bca565b809150509250929050565b60208152816020820152818360408301376000818301604090810191909152601f9092017fffffffffffffffffffffffffffffffffffffffffffffffffffffffffffffffe0160101919050565b60008083601f840112613ce857600080fd5b50813567ffffffffffffffff811115613d0057600080fd5b6020830191508360208260051b8501011115613d1b57600080fd5b9250929050565b600080600080600060608688031215613d3a57600080fd5b8535613d4581613bca565b9450602086013567ffffffffffffffff80821115613d6257600080fd5b613d6e89838a01613cd6565b90965094506040880135915080821115613d8757600080fd5b50613d9488828901613cd6565b969995985093965092949392505050565b600060208284031215613db757600080fd5b8135610a1681613bca565b60008060008060408587031215613dd857600080fd5b843567ffffffffffffffff80821115613df057600080fd5b613dfc88838901613cd6565b90965094506020870135915080821115613e1557600080fd5b50613e2287828801613cd6565b95989497509550505050565b60008060008060008060608789031215613e4757600080fd5b863567ffffffffffffffff80821115613e5f57600080fd5b613e6b8a838b01613cd6565b90985096506020890135915080821115613e8457600080fd5b613e908a838b01613cd6565b90965094506040890135915080821115613ea957600080fd5b50613eb689828a01613cd6565b979a9699509497509295939492505050565b600060208284031215613eda57600080fd5b5035919050565b60008083601f840112613ef357600080fd5b50813567ffffffffffffffff811115613f0b57600080fd5b602083019150836020828501011115613d1b57600080fd5b600080600080600060808688031215613f3b57600080fd5b8535613f4681613bca565b94506020860135613f5681613bca565b935060408601359250606086013567ffffffffffffffff811115613f7957600080fd5b613d9488828901613ee1565b600080600080600080600060e0888a031215613fa057600080fd5b8735613fab81613bca565b96506020880135613fbb81613bca565b95506040880135945060608801359350608088013560ff81168114613fdf57600080fd5b9699959850939692959460a0840135945060c09093013592915050565b6000806040838503121561400f57600080fd5b823561401a81613bca565b91506020830135613c7e81613bca565b6000806020838503121561403d57600080fd5b823567ffffffffffffffff81111561405457600080fd5b61406085828601613ee1565b90969095509350505050565b6000806000806060858703121561408257600080fd5b843561408d81613bca565b935060208501359250604085013567ffffffffffffffff8111156140b057600080fd5b613e2287828801613ee1565b7f4e487b7100000000000000000000000000000000000000000000000000000000600052603260045260246000fd5b8181038181111561059d577f4e487b7100000000000000000000000000000000000000000000000000000000600052601160045260246000fd5b7f4e487b7100000000000000000000000000000000000000000000000000000000600052604160045260246000fd5b600181811c9082168061416857607f821691505b6020821081036141a1577f4e487b7100000000000000000000000000000000000000000000000000000000600052602260045260246000fd5b50919050565b601f82111561065557600081815260208120601f850160051c810160208610156141ce5750805b601f850160051c820191505b81811015610e1a578281556001016141da565b815167ffffffffffffffff81111561420757614207614125565b61421b816142158454614154565b846141a7565b602080601f83116001811461426e57600084156142385750858301515b7fffffffffffffffffffffffffffffffffffffffffffffffffffffffffffffffff600386901b1c1916600185901b178555610e1a565b6000858152602081207fffffffffffffffffffffffffffffffffffffffffffffffffffffffffffffffe08616915b828110156142bb5788860151825594840194600190910190840161429c565b50858210156142f757878501517fffffffffffffffffffffffffffffffffffffffffffffffffffffffffffffffff600388901b60f8161c191681555b5050505050600190811b01905550565b7f416363657373436f6e74726f6c3a206d697373696e672027000000000000000081526000825161433f816018850160208701613b49565b7f2720726f6c6500000000000000000000000000000000000000000000000000006018939091019283015250601e01919050565b67ffffffffffffffff83111561438b5761438b614125565b61439f836143998354614154565b836141a7565b6000601f8411600181146143f157600085156143bb5750838201355b7fffffffffffffffffffffffffffffffffffffffffffffffffffffffffffffffff600387901b1c1916600186901b178355611517565b6000838152602090207fffffffffffffffffffffffffffffffffffffffffffffffffffffffffffffffe0861690835b828110156144405786850135825560209485019460019092019101614420565b508682101561447b577fffffffffffffffffffffffffffffffffffffffffffffffffffffffffffffffff60f88860031b161c19848701351681555b505060018560011b0183555050505050565b60006020828403121561449f57600080fd5b81518015158114610a1657600080fd5b600073ffffffffffffffffffffffffffffffffffffffff8087168352808616602084015250836040830152608060608301526144ee6080830184613b6d565b9695505050505050565b60006020828403121561450a57600080fd5b8151610a1681613afe565b6000808585111561452557600080fd5b8386111561453257600080fd5b5050820193919092039150565b60008251614551818460208701613b49565b919091019291505056fea26469706673582212209f10cc44b036b90e99f0b4e847c7900e093d7dd7591470dd62a3743db75aca2e64736f6c63430008110033",
  "linkReferences": {},
  "deployedLinkReferences": {}
}