{
  "_format": "hh-sol-artifact-1",
  "contractName": "Token",
  "sourceName": "contracts/Token.sol",
  "abi": [
    {
      "inputs": [
        {
          "internalType": "string",
          "name": "tokenName",
          "type": "string"
        },
        {
          "internalType": "string",
          "name": "tokenSymbol",
          "type": "string"
        },
        {
          "internalType": "uint8",
          "name": "tokenDecimals",
          "type": "uint8"
        },
        {
          "internalType": "contract IForwarderRegistry",
          "name": "forwarderRegistry",
          "type": "address"
        }
      ],
      "stateMutability": "nonpayable",
      "type": "constructor"
    },
    {
      "anonymous": false,
      "inputs": [
        {
          "indexed": true,
          "internalType": "address",
          "name": "owner",
          "type": "address"
        },
        {
          "indexed": true,
          "internalType": "address",
          "name": "spender",
          "type": "address"
        },
        {
          "indexed": false,
          "internalType": "uint256",
          "name": "value",
          "type": "uint256"
        }
      ],
      "name": "Approval",
      "type": "event"
    },
    {
      "anonymous": false,
      "inputs": [
        {
          "indexed": true,
          "internalType": "address",
          "name": "previousOwner",
          "type": "address"
        },
        {
          "indexed": true,
          "internalType": "address",
          "name": "newOwner",
          "type": "address"
        }
      ],
      "name": "OwnershipTransferred",
      "type": "event"
    },
    {
      "anonymous": false,
      "inputs": [
        {
          "indexed": true,
          "internalType": "address",
          "name": "from",
          "type": "address"
        },
        {
          "indexed": true,
          "internalType": "address",
          "name": "to",
          "type": "address"
        },
        {
          "indexed": false,
          "internalType": "uint256",
          "name": "value",
          "type": "uint256"
        }
      ],
      "name": "Transfer",
      "type": "event"
    },
    {
      "inputs": [],
      "name": "DOMAIN_SEPARATOR",
      "outputs": [
        {
          "internalType": "bytes32",
          "name": "",
          "type": "bytes32"
        }
      ],
      "stateMutability": "view",
      "type": "function"
    },
    {
      "inputs": [
        {
          "internalType": "address",
          "name": "owner",
          "type": "address"
        },
        {
          "internalType": "address",
          "name": "spender",
          "type": "address"
        }
      ],
      "name": "allowance",
      "outputs": [
        {
          "internalType": "uint256",
          "name": "value",
          "type": "uint256"
        }
      ],
      "stateMutability": "view",
      "type": "function"
    },
    {
      "inputs": [
        {
          "internalType": "address",
          "name": "spender",
          "type": "address"
        },
        {
          "internalType": "uint256",
          "name": "value",
          "type": "uint256"
        }
      ],
      "name": "approve",
      "outputs": [
        {
          "internalType": "bool",
          "name": "result",
          "type": "bool"
        }
      ],
      "stateMutability": "nonpayable",
      "type": "function"
    },
    {
      "inputs": [
        {
          "internalType": "address",
          "name": "owner",
          "type": "address"
        }
      ],
      "name": "balanceOf",
      "outputs": [
        {
          "internalType": "uint256",
          "name": "balance",
          "type": "uint256"
        }
      ],
      "stateMutability": "view",
      "type": "function"
    },
    {
      "inputs": [
        {
          "internalType": "address[]",
          "name": "recipients",
          "type": "address[]"
        },
        {
          "internalType": "uint256[]",
          "name": "values",
          "type": "uint256[]"
        }
      ],
      "name": "batchTransfer",
      "outputs": [
        {
          "internalType": "bool",
          "name": "",
          "type": "bool"
        }
      ],
      "stateMutability": "nonpayable",
      "type": "function"
    },
    {
      "inputs": [
        {
          "internalType": "address",
          "name": "from",
          "type": "address"
        },
        {
          "internalType": "address[]",
          "name": "recipients",
          "type": "address[]"
        },
        {
          "internalType": "uint256[]",
          "name": "values",
          "type": "uint256[]"
        }
      ],
      "name": "batchTransferFrom",
      "outputs": [
        {
          "internalType": "bool",
          "name": "",
          "type": "bool"
        }
      ],
      "stateMutability": "nonpayable",
      "type": "function"
    },
    {
      "inputs": [],
      "name": "decimals",
      "outputs": [
        {
          "internalType": "uint8",
          "name": "",
          "type": "uint8"
        }
      ],
      "stateMutability": "view",
      "type": "function"
    },
    {
      "inputs": [
        {
          "internalType": "address",
          "name": "spender",
          "type": "address"
        },
        {
          "internalType": "uint256",
          "name": "subtractedValue",
          "type": "uint256"
        }
      ],
      "name": "decreaseAllowance",
      "outputs": [
        {
          "internalType": "bool",
          "name": "result",
          "type": "bool"
        }
      ],
      "stateMutability": "nonpayable",
      "type": "function"
    },
    {
      "inputs": [],
      "name": "forwarderRegistry",
      "outputs": [
        {
          "internalType": "contract IForwarderRegistry",
          "name": "",
          "type": "address"
        }
      ],
      "stateMutability": "view",
      "type": "function"
    },
    {
      "inputs": [
        {
          "internalType": "address",
          "name": "spender",
          "type": "address"
        },
        {
          "internalType": "uint256",
          "name": "addedValue",
          "type": "uint256"
        }
      ],
      "name": "increaseAllowance",
      "outputs": [
        {
          "internalType": "bool",
          "name": "result",
          "type": "bool"
        }
      ],
      "stateMutability": "nonpayable",
      "type": "function"
    },
    {
      "inputs": [
        {
          "internalType": "address",
          "name": "forwarder",
          "type": "address"
        }
      ],
      "name": "isTrustedForwarder",
      "outputs": [
        {
          "internalType": "bool",
          "name": "",
          "type": "bool"
        }
      ],
      "stateMutability": "view",
      "type": "function"
    },
    {
      "inputs": [],
      "name": "name",
      "outputs": [
        {
          "internalType": "string",
          "name": "",
          "type": "string"
        }
      ],
      "stateMutability": "view",
      "type": "function"
    },
    {
      "inputs": [
        {
          "internalType": "address",
          "name": "owner",
          "type": "address"
        }
      ],
      "name": "nonces",
      "outputs": [
        {
          "internalType": "uint256",
          "name": "",
          "type": "uint256"
        }
      ],
      "stateMutability": "view",
      "type": "function"
    },
    {
      "inputs": [],
      "name": "owner",
      "outputs": [
        {
          "internalType": "address",
          "name": "",
          "type": "address"
        }
      ],
      "stateMutability": "view",
      "type": "function"
    },
    {
      "inputs": [
        {
          "internalType": "address",
          "name": "owner",
          "type": "address"
        },
        {
          "internalType": "address",
          "name": "spender",
          "type": "address"
        },
        {
          "internalType": "uint256",
          "name": "value",
          "type": "uint256"
        },
        {
          "internalType": "uint256",
          "name": "deadline",
          "type": "uint256"
        },
        {
          "internalType": "uint8",
          "name": "v",
          "type": "uint8"
        },
        {
          "internalType": "bytes32",
          "name": "r",
          "type": "bytes32"
        },
        {
          "internalType": "bytes32",
          "name": "s",
          "type": "bytes32"
        }
      ],
      "name": "permit",
      "outputs": [],
      "stateMutability": "nonpayable",
      "type": "function"
    },
    {
      "inputs": [
        {
          "internalType": "address[]",
          "name": "accounts",
          "type": "address[]"
        },
        {
          "internalType": "contract IERC20[]",
          "name": "tokens",
          "type": "address[]"
        },
        {
          "internalType": "uint256[]",
          "name": "amounts",
          "type": "uint256[]"
        }
      ],
      "name": "recoverERC20s",
      "outputs": [],
      "stateMutability": "nonpayable",
      "type": "function"
    },
    {
      "inputs": [
        {
          "internalType": "address[]",
          "name": "accounts",
          "type": "address[]"
        },
        {
          "internalType": "contract IERC721[]",
          "name": "contracts",
          "type": "address[]"
        },
        {
          "internalType": "uint256[]",
          "name": "tokenIds",
          "type": "uint256[]"
        }
      ],
      "name": "recoverERC721s",
      "outputs": [],
      "stateMutability": "nonpayable",
      "type": "function"
    },
    {
      "inputs": [
        {
          "internalType": "address payable[]",
          "name": "accounts",
          "type": "address[]"
        },
        {
          "internalType": "uint256[]",
          "name": "amounts",
          "type": "uint256[]"
        }
      ],
      "name": "recoverETH",
      "outputs": [],
      "stateMutability": "nonpayable",
      "type": "function"
    },
    {
      "inputs": [
        {
          "internalType": "address",
          "name": "to",
          "type": "address"
        },
        {
          "internalType": "uint256",
          "name": "value",
          "type": "uint256"
        },
        {
          "internalType": "bytes",
          "name": "data",
          "type": "bytes"
        }
      ],
      "name": "safeTransfer",
      "outputs": [
        {
          "internalType": "bool",
          "name": "",
          "type": "bool"
        }
      ],
      "stateMutability": "nonpayable",
      "type": "function"
    },
    {
      "inputs": [
        {
          "internalType": "address",
          "name": "from",
          "type": "address"
        },
        {
          "internalType": "address",
          "name": "to",
          "type": "address"
        },
        {
          "internalType": "uint256",
          "name": "value",
          "type": "uint256"
        },
        {
          "internalType": "bytes",
          "name": "data",
          "type": "bytes"
        }
      ],
      "name": "safeTransferFrom",
      "outputs": [
        {
          "internalType": "bool",
          "name": "",
          "type": "bool"
        }
      ],
      "stateMutability": "nonpayable",
      "type": "function"
    },
    {
      "inputs": [
        {
          "internalType": "string",
          "name": "uri",
          "type": "string"
        }
      ],
      "name": "setTokenURI",
      "outputs": [],
      "stateMutability": "nonpayable",
      "type": "function"
    },
    {
      "inputs": [
        {
          "internalType": "bytes4",
          "name": "interfaceId",
          "type": "bytes4"
        }
      ],
      "name": "supportsInterface",
      "outputs": [
        {
          "internalType": "bool",
          "name": "",
          "type": "bool"
        }
      ],
      "stateMutability": "view",
      "type": "function"
    },
    {
      "inputs": [],
      "name": "symbol",
      "outputs": [
        {
          "internalType": "string",
          "name": "",
          "type": "string"
        }
      ],
      "stateMutability": "view",
      "type": "function"
    },
    {
      "inputs": [],
      "name": "tokenURI",
      "outputs": [
        {
          "internalType": "string",
          "name": "",
          "type": "string"
        }
      ],
      "stateMutability": "view",
      "type": "function"
    },
    {
      "inputs": [],
      "name": "totalSupply",
      "outputs": [
        {
          "internalType": "uint256",
          "name": "supply",
          "type": "uint256"
        }
      ],
      "stateMutability": "view",
      "type": "function"
    },
    {
      "inputs": [
        {
          "internalType": "address",
          "name": "to",
          "type": "address"
        },
        {
          "internalType": "uint256",
          "name": "value",
          "type": "uint256"
        }
      ],
      "name": "transfer",
      "outputs": [
        {
          "internalType": "bool",
          "name": "result",
          "type": "bool"
        }
      ],
      "stateMutability": "nonpayable",
      "type": "function"
    },
    {
      "inputs": [
        {
          "internalType": "address",
          "name": "from",
          "type": "address"
        },
        {
          "internalType": "address",
          "name": "to",
          "type": "address"
        },
        {
          "internalType": "uint256",
          "name": "value",
          "type": "uint256"
        }
      ],
      "name": "transferFrom",
      "outputs": [
        {
          "internalType": "bool",
          "name": "result",
          "type": "bool"
        }
      ],
      "stateMutability": "nonpayable",
      "type": "function"
    },
    {
      "inputs": [
        {
          "internalType": "address",
          "name": "newOwner",
          "type": "address"
        }
      ],
      "name": "transferOwnership",
      "outputs": [],
      "stateMutability": "nonpayable",
      "type": "function"
    }
  ],
  "bytecode": "0x60a06040523480156200001157600080fd5b5060405162003d2538038062003d258339810160408190526200003491620004e9565b8080338686866200004f6200011f60201b62000b0f1760201c565b620000818383836200006b6200018360201b62000b731760201c565b620001b960201b62000ba117909392919060201c565b505050620000b2816200009e6200022860201b62000c261760201c565b6200025860201b62000c541790919060201c565b50620000c8620002d660201b62000d0a1760201c565b620000dd620002fb60201b62000d3a1760201c565b620000f26200031e60201b62000d681760201c565b620001076200034160201b62000d961760201c565b6001600160a01b0316608052506200070a9350505050565b6000620001366200036460201b62000dc01760201c565b90506200015c6336372b0760e01b6001836200039460201b62000dee179092919060201c565b62000180634e83a8c360e11b6001836200039460201b62000dee179092919060201c565b50565b600080620001b360017f335df4119bbb04f056b33eba33b826d3529129e458faf6daa9924b5a8f3b6a826200058d565b92915050565b83620001c684826200063e565b5060018401620001d783826200063e565b5060028401805460ff191660ff83161790556200022263a219a02560e01b60016200020d62000364602090811b62000dc017901c565b6200039460201b62000dee179092919060201c565b50505050565b600080620001b360017fc9ed16f33ab3a66c84bfd83099ccb2a8845871e2e1c1928f63797152f0fd54cd6200058d565b6001600160a01b03811615620002af5781546001600160a01b0319166001600160a01b03821690811783556040516000907f8be0079c531659141344cd1fd0a4f28419497f9722a3daafe3b4186f6b6457e0908290a35b620002d26307f5828d60e41b60016200020d6200036460201b62000dc01760201c565b5050565b620002f96303c130d960e41b60016200020d6200036460201b62000dc01760201c565b565b620002f9634ec7fbed60e11b60016200020d6200036460201b62000dc01760201c565b620002f96353f41a9760e01b60016200020d6200036460201b62000dc01760201c565b620002f963602993f360e11b60016200020d6200036460201b62000dc01760201c565b600080620001b360017fca9d3e17f264b0f3984e2634e94adb37fa3e6a8103f06aeae6fa59e21c769f5e6200058d565b600160e01b6001600160e01b0319831601620003f65760405162461bcd60e51b815260206004820152601f60248201527f496e74657266616365446574656374696f6e3a2077726f6e672076616c756500604482015260640160405180910390fd5b6001600160e01b03199190911660009081526020929092526040909120805460ff1916911515919091179055565b634e487b7160e01b600052604160045260246000fd5b600082601f8301126200044c57600080fd5b81516001600160401b038082111562000469576200046962000424565b604051601f8301601f19908116603f0116810190828211818310171562000494576200049462000424565b81604052838152602092508683858801011115620004b157600080fd5b600091505b83821015620004d55785820183015181830184015290820190620004b6565b600093810190920192909252949350505050565b600080600080608085870312156200050057600080fd5b84516001600160401b03808211156200051857600080fd5b62000526888389016200043a565b955060208701519150808211156200053d57600080fd5b506200054c878288016200043a565b935050604085015160ff811681146200056457600080fd5b60608601519092506001600160a01b03811681146200058257600080fd5b939692955090935050565b81810381811115620001b357634e487b7160e01b600052601160045260246000fd5b600181811c90821680620005c457607f821691505b602082108103620005e557634e487b7160e01b600052602260045260246000fd5b50919050565b601f8211156200063957600081815260208120601f850160051c81016020861015620006145750805b601f850160051c820191505b81811015620006355782815560010162000620565b5050505b505050565b81516001600160401b038111156200065a576200065a62000424565b62000672816200066b8454620005af565b84620005eb565b602080601f831160018114620006aa5760008415620006915750858301515b600019600386901b1c1916600185901b17855562000635565b600085815260208120601f198616915b82811015620006db57888601518255948401946001909101908401620006ba565b5085821015620006fa5787850151600019600388901b60f8161c191681555b5050505050600190811b01905550565b6080516135ea6200073b60003960008181610244015281816102e9015281816127d1015261285901526135ea6000f3fe608060405234801561001057600080fd5b50600436106101c45760003560e01c80637ecebe00116100f9578063c3666c3611610097578063e0df5b6f11610071578063e0df5b6f146103f6578063eb79554914610409578063f2fde38b1461041c578063f7ba94bd1461042f57600080fd5b8063c3666c36146103bd578063d505accf146103d0578063dd62ed3e146103e357600080fd5b806395d89b41116100d357806395d89b411461037c578063a457c2d714610384578063a9059cbb14610397578063b88d4fde146103aa57600080fd5b80637ecebe001461034e57806388d695b2146103615780638da5cb5b1461037457600080fd5b80633644e515116101665780634885b254116101405780634885b254146102c6578063572b6c05146102d957806370a082311461032657806373c8a9581461033957600080fd5b80633644e515146102a357806339509351146102ab5780633c130d90146102be57600080fd5b806318160ddd116101a257806318160ddd1461021957806323b872dd1461022f5780632b4c9f1614610242578063313ce5671461028957600080fd5b806301ffc9a7146101c957806306fdde03146101f1578063095ea7b314610206575b600080fd5b6101dc6101d7366004612ca6565b610442565b60405190151581526020015b60405180910390f35b6101f961045c565b6040516101e89190612d31565b6101dc610214366004612d66565b610473565b61022161049b565b6040519081526020016101e8565b6101dc61023d366004612d92565b6104af565b7f00000000000000000000000000000000000000000000000000000000000000005b60405173ffffffffffffffffffffffffffffffffffffffff90911681526020016101e8565b6102916104da565b60405160ff90911681526020016101e8565b6102216104f1565b6101dc6102b9366004612d66565b6104fb565b6101f961051a565b6101dc6102d4366004612e1f565b610527565b6101dc6102e7366004612ea2565b7f000000000000000000000000000000000000000000000000000000000000000073ffffffffffffffffffffffffffffffffffffffff90811691161490565b610221610334366004612ea2565b610558565b61034c610347366004612ebf565b610590565b005b61022161035c366004612ea2565b6106c6565b6101dc61036f366004612f59565b6106d4565b610264610703565b6101f961072a565b6101dc610392366004612d66565b61073c565b6101dc6103a5366004612d66565b61075b565b6101dc6103b8366004613007565b61077a565b61034c6103cb366004612ebf565b61079f565b61034c6103de366004613069565b610944565b6102216103f13660046130e0565b61096b565b61034c610404366004613119565b6109bd565b6101dc61041736600461315b565b6109e0565b61034c61042a366004612ea2565b610a03565b61034c61043d366004612f59565b610a21565b600061045682610450610dc0565b90610efa565b92915050565b606061046e610469610b73565b610fd4565b905090565b600061049261048061106a565b848461048a611074565b9291906110a2565b50600192915050565b600061046e6104a8611074565b6002015490565b60006104d06104bc61106a565b8585856104c7611074565b93929190611191565b5060019392505050565b600061046e6104e7610b73565b6002015460ff1690565b600061046e6111e3565b600061049261050861106a565b8484610512611074565b92919061127e565b606061046e61046961144a565b600061054c61053461106a565b8787878787610541611074565b959493929190611478565b50600195945050505050565b600061045682610566611074565b9073ffffffffffffffffffffffffffffffffffffffff166000908152602091909152604090205490565b6105a961059b61106a565b6105a3610c26565b906118be565b8483811480156105b857508082145b610623576040517f08c379a000000000000000000000000000000000000000000000000000000000815260206004820152601d60248201527f5265636f766572793a20696e636f6e73697374656e742061727261797300000060448201526064015b60405180910390fd5b60005b8181146106bc576106b4888883818110610642576106426131ab565b90506020020160208101906106579190612ea2565b858584818110610669576106696131ab565b90506020020135888885818110610682576106826131ab565b90506020020160208101906106979190612ea2565b73ffffffffffffffffffffffffffffffffffffffff169190611941565b600101610626565b5050505050505050565b6000610456826105666119d3565b60006106f76106e161106a565b868686866106ed611074565b9493929190611a01565b5060015b949350505050565b600061046e610710610c26565b5473ffffffffffffffffffffffffffffffffffffffff1690565b606061046e610737610b73565b611de3565b600061049261074961106a565b8484610753611074565b929190611df4565b600061049261076861106a565b8484610772611074565b929190611f46565b600061054c61078761106a565b8787878787610794611074565b959493929190612127565b6107aa61059b61106a565b8483811480156107b957508082145b61081f576040517f08c379a000000000000000000000000000000000000000000000000000000000815260206004820152601d60248201527f5265636f766572793a20696e636f6e73697374656e7420617272617973000000604482015260640161061a565b60005b8181146106bc5785858281811061083b5761083b6131ab565b90506020020160208101906108509190612ea2565b73ffffffffffffffffffffffffffffffffffffffff166323b872dd308a8a8581811061087e5761087e6131ab565b90506020020160208101906108939190612ea2565b8787868181106108a5576108a56131ab565b6040517fffffffff0000000000000000000000000000000000000000000000000000000060e088901b16815273ffffffffffffffffffffffffffffffffffffffff958616600482015294909316602485015250602090910201356044820152606401600060405180830381600087803b15801561092157600080fd5b505af1158015610935573d6000803e3d6000fd5b50505050806001019050610822565b610962878787878787876109566119d3565b96959493929190612194565b50505050505050565b60006109b6838361097a611074565b919073ffffffffffffffffffffffffffffffffffffffff9182166000908152600193909301602090815260408085209290931684525290205490565b9392505050565b6109c861059b61106a565b6109dc82826109d561144a565b9190612490565b5050565b60006106f76109ed61106a565b868686866109f9611074565b949392919061249c565b610a1e610a0e61106a565b82610a17610c26565b9190612508565b50565b610a2c61059b61106a565b82818114610a96576040517f08c379a000000000000000000000000000000000000000000000000000000000815260206004820152601d60248201527f5265636f766572793a20696e636f6e73697374656e7420617272617973000000604482015260640161061a565b60005b818114610b0757610aff848483818110610ab557610ab56131ab565b90506020020135878784818110610ace57610ace6131ab565b9050602002016020810190610ae39190612ea2565b73ffffffffffffffffffffffffffffffffffffffff1690612634565b600101610a99565b505050505050565b6000610b19610dc0565b9050610b47817f36372b07000000000000000000000000000000000000000000000000000000006001610dee565b610a1e817f9d075186000000000000000000000000000000000000000000000000000000006001610dee565b60008061045660017f335df4119bbb04f056b33eba33b826d3529129e458faf6daa9924b5a8f3b6a826131da565b83610bac84826132dc565b5060018401610bbb83826132dc565b506002840180547fffffffffffffffffffffffffffffffffffffffffffffffffffffffffffffff001660ff8316179055610c207fa219a025000000000000000000000000000000000000000000000000000000006001610c19610dc0565b9190610dee565b50505050565b60008061045660017fc9ed16f33ab3a66c84bfd83099ccb2a8845871e2e1c1928f63797152f0fd54cd6131da565b73ffffffffffffffffffffffffffffffffffffffff811615610cdc5781547fffffffffffffffffffffffff00000000000000000000000000000000000000001673ffffffffffffffffffffffffffffffffffffffff821690811783556040516000907f8be0079c531659141344cd1fd0a4f28419497f9722a3daafe3b4186f6b6457e0908290a35b6109dc7f7f5828d0000000000000000000000000000000000000000000000000000000006001610c19610dc0565b610d387f3c130d90000000000000000000000000000000000000000000000000000000006001610c19610dc0565b565b610d387f9d8ff7da000000000000000000000000000000000000000000000000000000006001610c19610dc0565b610d387f53f41a97000000000000000000000000000000000000000000000000000000006001610c19610dc0565b610d387fc05327e6000000000000000000000000000000000000000000000000000000006001610c195b60008061045660017fca9d3e17f264b0f3984e2634e94adb37fa3e6a8103f06aeae6fa59e21c769f5e6131da565b7c01000000000000000000000000000000000000000000000000000000007fffffffff00000000000000000000000000000000000000000000000000000000831601610e96576040517f08c379a000000000000000000000000000000000000000000000000000000000815260206004820152601f60248201527f496e74657266616365446574656374696f6e3a2077726f6e672076616c756500604482015260640161061a565b7fffffffff00000000000000000000000000000000000000000000000000000000919091166000908152602092909252604090912080547fffffffffffffffffffffffffffffffffffffffffffffffffffffffffffffff0016911515919091179055565b60007c01000000000000000000000000000000000000000000000000000000007fffffffff00000000000000000000000000000000000000000000000000000000831601610f4a57506000610456565b7ffe003659000000000000000000000000000000000000000000000000000000007fffffffff00000000000000000000000000000000000000000000000000000000831601610f9b57506001610456565b507fffffffff00000000000000000000000000000000000000000000000000000000166000908152602091909152604090205460ff1690565b6060816000018054610fe590613243565b80601f016020809104026020016040519081016040528092919081815260200182805461101190613243565b801561105e5780601f106110335761010080835404028352916020019161105e565b820191906000526020600020905b81548152906001019060200180831161104157829003601f168201915b50505050509050919050565b600061046e61278e565b60008061045660017f1da92899d3da68bf9787824388a37ea2bfa79780bcef91b9716c390eec8ecbef6131da565b73ffffffffffffffffffffffffffffffffffffffff821661111f576040517f08c379a000000000000000000000000000000000000000000000000000000000815260206004820152601d60248201527f45524332303a20617070726f76616c20746f2061646472657373283029000000604482015260640161061a565b73ffffffffffffffffffffffffffffffffffffffff838116600081815260018701602090815260408083209487168084529482529182902085905590518481527f8c5be1e5ebec7d5bd14f71427d1e84f3dd0314c0f7b2291e5b200ac8c7c3b92591015b60405180910390a350505050565b8373ffffffffffffffffffffffffffffffffffffffff168373ffffffffffffffffffffffffffffffffffffffff16146111d0576111d085848684611df4565b6111dc85848484611f46565b5050505050565b6000467f8b73c3c69bb8fe3d512ecc4cf759cc79239f7b179b0ffacaa9a75d522b39400f611212610469610b73565b80516020918201206040805192830193909352918101919091527fc89efdaa54c0f20c7adf612882df0950f5a951637e0307cdcb4c672f298b8bc66060820152608081018290523060a082015260c0016040516020818303038152906040528051906020012091505090565b73ffffffffffffffffffffffffffffffffffffffff82166112fb576040517f08c379a000000000000000000000000000000000000000000000000000000000815260206004820152601d60248201527f45524332303a20617070726f76616c20746f2061646472657373283029000000604482015260640161061a565b73ffffffffffffffffffffffffffffffffffffffff808416600090815260018601602090815260408083209386168352929052205481156113dc578082018181116113a2576040517f08c379a000000000000000000000000000000000000000000000000000000000815260206004820152601960248201527f45524332303a20616c6c6f77616e6365206f766572666c6f7700000000000000604482015260640161061a565b73ffffffffffffffffffffffffffffffffffffffff8086166000908152600188016020908152604080832093881683529290522081905590505b8273ffffffffffffffffffffffffffffffffffffffff168473ffffffffffffffffffffffffffffffffffffffff167f8c5be1e5ebec7d5bd14f71427d1e84f3dd0314c0f7b2291e5b200ac8c7c3b9258360405161143b91815260200190565b60405180910390a35050505050565b60008061045660017ff41bf6a5db26bffdfab174dcf66b31fbba8fdb7e3db040721ce1e62d61839ceb6131da565b828181146114e2576040517f08c379a000000000000000000000000000000000000000000000000000000000815260206004820152601a60248201527f45524332303a20696e636f6e73697374656e7420617272617973000000000000604482015260640161061a565b806000036114f05750610962565b73ffffffffffffffffffffffffffffffffffffffff86166000908152602089905260408120549080805b8481146117c6576000898983818110611535576115356131ab565b905060200201602081019061154a9190612ea2565b905073ffffffffffffffffffffffffffffffffffffffff81166115c9576040517f08c379a000000000000000000000000000000000000000000000000000000000815260206004820152601d60248201527f45524332303a207472616e7366657220746f2061646472657373283029000000604482015260640161061a565b60008888848181106115dd576115dd6131ab565b905060200201359050806000146117555784810185811161165a576040517f08c379a000000000000000000000000000000000000000000000000000000000815260206004820152601660248201527f45524332303a2076616c756573206f766572666c6f7700000000000000000000604482015260640161061a565b8095508273ffffffffffffffffffffffffffffffffffffffff168d73ffffffffffffffffffffffffffffffffffffffff16146116e457818f60000160008573ffffffffffffffffffffffffffffffffffffffff1673ffffffffffffffffffffffffffffffffffffffff16815260200190815260200160002060008282540192505081905550611753565b8682111561174e576040517f08c379a000000000000000000000000000000000000000000000000000000000815260206004820152601b60248201527f45524332303a20696e73756666696369656e742062616c616e63650000000000604482015260640161061a565b938101935b505b8173ffffffffffffffffffffffffffffffffffffffff168c73ffffffffffffffffffffffffffffffffffffffff167fddf252ad1be2c89b69c2b068fc378daa952ba7f163c4a11628f55a4df523b3ef836040516117b491815260200190565b60405180910390a3505060010161151a565b5081158015906117d65750808214155b1561187257818303838110611847576040517f08c379a000000000000000000000000000000000000000000000000000000000815260206004820152601b60248201527f45524332303a20696e73756666696369656e742062616c616e63650000000000604482015260640161061a565b73ffffffffffffffffffffffffffffffffffffffff8a16600090815260208d90526040902090820190555b8973ffffffffffffffffffffffffffffffffffffffff168973ffffffffffffffffffffffffffffffffffffffff16146118b1576118b18b8a8c85611df4565b5050505050505050505050565b815473ffffffffffffffffffffffffffffffffffffffff8281169116146109dc576040517f08c379a000000000000000000000000000000000000000000000000000000000815260206004820152601860248201527f4f776e6572736869703a206e6f7420746865206f776e65720000000000000000604482015260640161061a565b6040805173ffffffffffffffffffffffffffffffffffffffff8416602482015260448082018490528251808303909101815260649091019091526020810180517bffffffffffffffffffffffffffffffffffffffffffffffffffffffff167fa9059cbb000000000000000000000000000000000000000000000000000000001790526119ce9084906128d5565b505050565b60008061045660017f93fe0ff7226b064a4a8f0b09910762afb4bc2441835792c021ffd78cd513011e6131da565b82818114611a6b576040517f08c379a000000000000000000000000000000000000000000000000000000000815260206004820152601a60248201527f45524332303a20696e636f6e73697374656e7420617272617973000000000000604482015260640161061a565b80600003611a795750610b07565b73ffffffffffffffffffffffffffffffffffffffff86166000908152602088905260408120549080805b848114611d2b576000898983818110611abe57611abe6131ab565b9050602002016020810190611ad39190612ea2565b905073ffffffffffffffffffffffffffffffffffffffff8116611b52576040517f08c379a000000000000000000000000000000000000000000000000000000000815260206004820152601d60248201527f45524332303a207472616e7366657220746f2061646472657373283029000000604482015260640161061a565b6000888884818110611b6657611b666131ab565b90506020020135905080600014611cba57848101858111611be3576040517f08c379a000000000000000000000000000000000000000000000000000000000815260206004820152601660248201527f45524332303a2076616c756573206f766572666c6f7700000000000000000000604482015260640161061a565b8095508273ffffffffffffffffffffffffffffffffffffffff168d73ffffffffffffffffffffffffffffffffffffffff1614611c495773ffffffffffffffffffffffffffffffffffffffff8316600090815260208f905260409020805483019055611cb8565b86821115611cb3576040517f08c379a000000000000000000000000000000000000000000000000000000000815260206004820152601b60248201527f45524332303a20696e73756666696369656e742062616c616e63650000000000604482015260640161061a565b938101935b505b8173ffffffffffffffffffffffffffffffffffffffff168c73ffffffffffffffffffffffffffffffffffffffff167fddf252ad1be2c89b69c2b068fc378daa952ba7f163c4a11628f55a4df523b3ef83604051611d1991815260200190565b60405180910390a35050600101611aa3565b508115801590611d3b5750808214155b15611dd757818303838110611dac576040517f08c379a000000000000000000000000000000000000000000000000000000000815260206004820152601b60248201527f45524332303a20696e73756666696369656e742062616c616e63650000000000604482015260640161061a565b73ffffffffffffffffffffffffffffffffffffffff8a16600090815260208c90526040902090820190555b50505050505050505050565b6060816001018054610fe590613243565b73ffffffffffffffffffffffffffffffffffffffff8216611e71576040517f08c379a000000000000000000000000000000000000000000000000000000000815260206004820152601d60248201527f45524332303a20617070726f76616c20746f2061646472657373283029000000604482015260640161061a565b73ffffffffffffffffffffffffffffffffffffffff80841660009081526001860160209081526040808320938616835292905220547fffffffffffffffffffffffffffffffffffffffffffffffffffffffffffffffff8114801590611ed557508115155b156113dc578181038181106113a2576040517f08c379a000000000000000000000000000000000000000000000000000000000815260206004820152601d60248201527f45524332303a20696e73756666696369656e7420616c6c6f77616e6365000000604482015260640161061a565b73ffffffffffffffffffffffffffffffffffffffff8216611fc3576040517f08c379a000000000000000000000000000000000000000000000000000000000815260206004820152601d60248201527f45524332303a207472616e7366657220746f2061646472657373283029000000604482015260640161061a565b80156120c85773ffffffffffffffffffffffffffffffffffffffff831660009081526020859052604090205481810381811061205b576040517f08c379a000000000000000000000000000000000000000000000000000000000815260206004820152601b60248201527f45524332303a20696e73756666696369656e742062616c616e63650000000000604482015260640161061a565b8373ffffffffffffffffffffffffffffffffffffffff168573ffffffffffffffffffffffffffffffffffffffff16146120c55773ffffffffffffffffffffffffffffffffffffffff8086166000908152602088905260408082208490559186168152208054840190555b50505b8173ffffffffffffffffffffffffffffffffffffffff168373ffffffffffffffffffffffffffffffffffffffff167fddf252ad1be2c89b69c2b068fc378daa952ba7f163c4a11628f55a4df523b3ef8360405161118391815260200190565b6121348787878787611191565b73ffffffffffffffffffffffffffffffffffffffff84163b15610962576109628686868686868080601f0160208091040260200160405190810160405280939291908181526020018383808284376000920191909152506129e192505050565b73ffffffffffffffffffffffffffffffffffffffff8716612211576040517f08c379a000000000000000000000000000000000000000000000000000000000815260206004820152601d60248201527f45524332303a207065726d69742066726f6d2061646472657373283029000000604482015260640161061a565b8342111561227b576040517f08c379a000000000000000000000000000000000000000000000000000000000815260206004820152601560248201527f45524332303a2065787069726564207065726d69740000000000000000000000604482015260640161061a565b73ffffffffffffffffffffffffffffffffffffffff878116600081815260208b8152604080832080546001810190915581517f6e71edae12b1b97f4d1f60370fef10105fa2faae0126114a169c64845d6126c98185015280830195909552948b166060850152608084018a905260a084019490945260c08084018990528451808503909101815260e0909301909352815191909201209061231a6111e3565b6040517f19010000000000000000000000000000000000000000000000000000000000006020820152602281019190915260428101839052606201604080517fffffffffffffffffffffffffffffffffffffffffffffffffffffffffffffffe08184030181528282528051602091820120600080855291840180845281905260ff89169284019290925260608301879052608083018690529092509060019060a0016020604051602081039080840390855afa1580156123de573d6000803e3d6000fd5b5050506020604051035190508973ffffffffffffffffffffffffffffffffffffffff168173ffffffffffffffffffffffffffffffffffffffff161461247f576040517f08c379a000000000000000000000000000000000000000000000000000000000815260206004820152601560248201527f45524332303a20696e76616c6964207065726d69740000000000000000000000604482015260640161061a565b5050506106bc87878761048a611074565b82610c208284836133f6565b6124a886868686611f46565b73ffffffffffffffffffffffffffffffffffffffff84163b15610b0757610b078586868686868080601f0160208091040260200160405190810160405280939291908181526020018383808284376000920191909152506129e192505050565b825473ffffffffffffffffffffffffffffffffffffffff908116908316811461258d576040517f08c379a000000000000000000000000000000000000000000000000000000000815260206004820152601860248201527f4f776e6572736869703a206e6f7420746865206f776e65720000000000000000604482015260640161061a565b8173ffffffffffffffffffffffffffffffffffffffff168173ffffffffffffffffffffffffffffffffffffffff1614610c205783547fffffffffffffffffffffffff00000000000000000000000000000000000000001673ffffffffffffffffffffffffffffffffffffffff8381169182178655604051908316907f8be0079c531659141344cd1fd0a4f28419497f9722a3daafe3b4186f6b6457e090600090a350505050565b8047101561269e576040517f08c379a000000000000000000000000000000000000000000000000000000000815260206004820152601d60248201527f416464726573733a20696e73756666696369656e742062616c616e6365000000604482015260640161061a565b60008273ffffffffffffffffffffffffffffffffffffffff168260405160006040518083038185875af1925050503d80600081146126f8576040519150601f19603f3d011682016040523d82523d6000602084013e6126fd565b606091505b50509050806119ce576040517f08c379a000000000000000000000000000000000000000000000000000000000815260206004820152603a60248201527f416464726573733a20756e61626c6520746f2073656e642076616c75652c207260448201527f6563697069656e74206d61792068617665207265766572746564000000000000606482015260840161061a565b60003332148061279e5750601836105b156127a857503390565b7fffffffffffffffffffffffffffffffffffffffffffffffffffffffffffffffec36013560601c7f000000000000000000000000000000000000000000000000000000000000000073ffffffffffffffffffffffffffffffffffffffff163314806128c457506040517f8929a8ca00000000000000000000000000000000000000000000000000000000815273ffffffffffffffffffffffffffffffffffffffff82811660048301523360248301527f00000000000000000000000000000000000000000000000000000000000000001690638929a8ca90604401602060405180830381865afa1580156128a0573d6000803e3d6000fd5b505050506040513d601f19601f820116820180604052508101906128c49190613510565b156128ce57919050565b3391505090565b6000612937826040518060400160405280602081526020017f5361666545524332303a206c6f772d6c6576656c2063616c6c206661696c65648152508573ffffffffffffffffffffffffffffffffffffffff16612b079092919063ffffffff16565b8051909150156119ce57808060200190518101906129559190613510565b6119ce576040517f08c379a000000000000000000000000000000000000000000000000000000000815260206004820152602a60248201527f5361666545524332303a204552433230206f7065726174696f6e20646964206e60448201527f6f74207375636365656400000000000000000000000000000000000000000000606482015260840161061a565b6040517f4fc35859000000000000000000000000000000000000000000000000000000008082529073ffffffffffffffffffffffffffffffffffffffff851690634fc3585990612a3b908990899088908890600401613532565b6020604051808303816000875af1158015612a5a573d6000803e3d6000fd5b505050506040513d601f19601f82011682018060405250810190612a7e919061357b565b7fffffffff0000000000000000000000000000000000000000000000000000000016146111dc576040517f08c379a000000000000000000000000000000000000000000000000000000000815260206004820152601d60248201527f45524332303a2073616665207472616e736665722072656a6563746564000000604482015260640161061a565b60606106fb8484600085856000808673ffffffffffffffffffffffffffffffffffffffff168587604051612b3b9190613598565b60006040518083038185875af1925050503d8060008114612b78576040519150601f19603f3d011682016040523d82523d6000602084013e612b7d565b606091505b5091509150612b8e87838387612b99565b979650505050505050565b60608315612c2f578251600003612c285773ffffffffffffffffffffffffffffffffffffffff85163b612c28576040517f08c379a000000000000000000000000000000000000000000000000000000000815260206004820152601d60248201527f416464726573733a2063616c6c20746f206e6f6e2d636f6e7472616374000000604482015260640161061a565b50816106fb565b6106fb8383815115612c445781518083602001fd5b806040517f08c379a000000000000000000000000000000000000000000000000000000000815260040161061a9190612d31565b7fffffffff0000000000000000000000000000000000000000000000000000000081168114610a1e57600080fd5b600060208284031215612cb857600080fd5b81356109b681612c78565b60005b83811015612cde578181015183820152602001612cc6565b50506000910152565b60008151808452612cff816020860160208601612cc3565b601f017fffffffffffffffffffffffffffffffffffffffffffffffffffffffffffffffe0169290920160200192915050565b6020815260006109b66020830184612ce7565b73ffffffffffffffffffffffffffffffffffffffff81168114610a1e57600080fd5b60008060408385031215612d7957600080fd5b8235612d8481612d44565b946020939093013593505050565b600080600060608486031215612da757600080fd5b8335612db281612d44565b92506020840135612dc281612d44565b929592945050506040919091013590565b60008083601f840112612de557600080fd5b50813567ffffffffffffffff811115612dfd57600080fd5b6020830191508360208260051b8501011115612e1857600080fd5b9250929050565b600080600080600060608688031215612e3757600080fd5b8535612e4281612d44565b9450602086013567ffffffffffffffff80821115612e5f57600080fd5b612e6b89838a01612dd3565b90965094506040880135915080821115612e8457600080fd5b50612e9188828901612dd3565b969995985093965092949392505050565b600060208284031215612eb457600080fd5b81356109b681612d44565b60008060008060008060608789031215612ed857600080fd5b863567ffffffffffffffff80821115612ef057600080fd5b612efc8a838b01612dd3565b90985096506020890135915080821115612f1557600080fd5b612f218a838b01612dd3565b90965094506040890135915080821115612f3a57600080fd5b50612f4789828a01612dd3565b979a9699509497509295939492505050565b60008060008060408587031215612f6f57600080fd5b843567ffffffffffffffff80821115612f8757600080fd5b612f9388838901612dd3565b90965094506020870135915080821115612fac57600080fd5b50612fb987828801612dd3565b95989497509550505050565b60008083601f840112612fd757600080fd5b50813567ffffffffffffffff811115612fef57600080fd5b602083019150836020828501011115612e1857600080fd5b60008060008060006080868803121561301f57600080fd5b853561302a81612d44565b9450602086013561303a81612d44565b935060408601359250606086013567ffffffffffffffff81111561305d57600080fd5b612e9188828901612fc5565b600080600080600080600060e0888a03121561308457600080fd5b873561308f81612d44565b9650602088013561309f81612d44565b95506040880135945060608801359350608088013560ff811681146130c357600080fd5b9699959850939692959460a0840135945060c09093013592915050565b600080604083850312156130f357600080fd5b82356130fe81612d44565b9150602083013561310e81612d44565b809150509250929050565b6000806020838503121561312c57600080fd5b823567ffffffffffffffff81111561314357600080fd5b61314f85828601612fc5565b90969095509350505050565b6000806000806060858703121561317157600080fd5b843561317c81612d44565b935060208501359250604085013567ffffffffffffffff81111561319f57600080fd5b612fb987828801612fc5565b7f4e487b7100000000000000000000000000000000000000000000000000000000600052603260045260246000fd5b81810381811115610456577f4e487b7100000000000000000000000000000000000000000000000000000000600052601160045260246000fd5b7f4e487b7100000000000000000000000000000000000000000000000000000000600052604160045260246000fd5b600181811c9082168061325757607f821691505b602082108103613290577f4e487b7100000000000000000000000000000000000000000000000000000000600052602260045260246000fd5b50919050565b601f8211156119ce57600081815260208120601f850160051c810160208610156132bd5750805b601f850160051c820191505b81811015610b07578281556001016132c9565b815167ffffffffffffffff8111156132f6576132f6613214565b61330a816133048454613243565b84613296565b602080601f83116001811461335d57600084156133275750858301515b7fffffffffffffffffffffffffffffffffffffffffffffffffffffffffffffffff600386901b1c1916600185901b178555610b07565b6000858152602081207fffffffffffffffffffffffffffffffffffffffffffffffffffffffffffffffe08616915b828110156133aa5788860151825594840194600190910190840161338b565b50858210156133e657878501517fffffffffffffffffffffffffffffffffffffffffffffffffffffffffffffffff600388901b60f8161c191681555b5050505050600190811b01905550565b67ffffffffffffffff83111561340e5761340e613214565b6134228361341c8354613243565b83613296565b6000601f841160018114613474576000851561343e5750838201355b7fffffffffffffffffffffffffffffffffffffffffffffffffffffffffffffffff600387901b1c1916600186901b1783556111dc565b6000838152602090207fffffffffffffffffffffffffffffffffffffffffffffffffffffffffffffffe0861690835b828110156134c357868501358255602094850194600190920191016134a3565b50868210156134fe577fffffffffffffffffffffffffffffffffffffffffffffffffffffffffffffffff60f88860031b161c19848701351681555b505060018560011b0183555050505050565b60006020828403121561352257600080fd5b815180151581146109b657600080fd5b600073ffffffffffffffffffffffffffffffffffffffff8087168352808616602084015250836040830152608060608301526135716080830184612ce7565b9695505050505050565b60006020828403121561358d57600080fd5b81516109b681612c78565b600082516135aa818460208701612cc3565b919091019291505056fea26469706673582212208565c47f1c6f6aa5df99589c2592b0a641814e3ecddbf9579750444211f06a4b64736f6c63430008110033",
  "linkReferences": {},
  "deployedLinkReferences": {}
}