{
  "_format": "hh-sol-artifact-1",
  "contractName": "TokenMock",
  "sourceName": "contracts/mocks/token/ERC20/TokenMock.sol",
  "abi": [
    {
      "inputs": [
        {
          "internalType": "string",
          "name": "tokenName",
          "type": "string"
        },
        {
          "internalType": "string",
          "name": "tokenSymbol",
          "type": "string"
        },
        {
          "internalType": "uint8",
          "name": "tokenDecimals",
          "type": "uint8"
        },
        {
          "internalType": "address[]",
          "name": "holders",
          "type": "address[]"
        },
        {
          "internalType": "uint256[]",
          "name": "allocations",
          "type": "uint256[]"
        },
        {
          "internalType": "contract IForwarderRegistry",
          "name": "forwarderRegistry",
          "type": "address"
        }
      ],
      "stateMutability": "nonpayable",
      "type": "constructor"
    },
    {
      "anonymous": false,
      "inputs": [
        {
          "indexed": true,
          "internalType": "address",
          "name": "owner",
          "type": "address"
        },
        {
          "indexed": true,
          "internalType": "address",
          "name": "spender",
          "type": "address"
        },
        {
          "indexed": false,
          "internalType": "uint256",
          "name": "value",
          "type": "uint256"
        }
      ],
      "name": "Approval",
      "type": "event"
    },
    {
      "anonymous": false,
      "inputs": [
        {
          "indexed": true,
          "internalType": "address",
          "name": "previousOwner",
          "type": "address"
        },
        {
          "indexed": true,
          "internalType": "address",
          "name": "newOwner",
          "type": "address"
        }
      ],
      "name": "OwnershipTransferred",
      "type": "event"
    },
    {
      "anonymous": false,
      "inputs": [
        {
          "indexed": true,
          "internalType": "address",
          "name": "from",
          "type": "address"
        },
        {
          "indexed": true,
          "internalType": "address",
          "name": "to",
          "type": "address"
        },
        {
          "indexed": false,
          "internalType": "uint256",
          "name": "value",
          "type": "uint256"
        }
      ],
      "name": "Transfer",
      "type": "event"
    },
    {
      "inputs": [],
      "name": "DOMAIN_SEPARATOR",
      "outputs": [
        {
          "internalType": "bytes32",
          "name": "",
          "type": "bytes32"
        }
      ],
      "stateMutability": "view",
      "type": "function"
    },
    {
      "inputs": [],
      "name": "__msgData",
      "outputs": [
        {
          "internalType": "bytes",
          "name": "",
          "type": "bytes"
        }
      ],
      "stateMutability": "view",
      "type": "function"
    },
    {
      "inputs": [
        {
          "internalType": "address",
          "name": "owner",
          "type": "address"
        },
        {
          "internalType": "address",
          "name": "spender",
          "type": "address"
        }
      ],
      "name": "allowance",
      "outputs": [
        {
          "internalType": "uint256",
          "name": "value",
          "type": "uint256"
        }
      ],
      "stateMutability": "view",
      "type": "function"
    },
    {
      "inputs": [
        {
          "internalType": "address",
          "name": "spender",
          "type": "address"
        },
        {
          "internalType": "uint256",
          "name": "value",
          "type": "uint256"
        }
      ],
      "name": "approve",
      "outputs": [
        {
          "internalType": "bool",
          "name": "result",
          "type": "bool"
        }
      ],
      "stateMutability": "nonpayable",
      "type": "function"
    },
    {
      "inputs": [
        {
          "internalType": "address",
          "name": "owner",
          "type": "address"
        }
      ],
      "name": "balanceOf",
      "outputs": [
        {
          "internalType": "uint256",
          "name": "balance",
          "type": "uint256"
        }
      ],
      "stateMutability": "view",
      "type": "function"
    },
    {
      "inputs": [
        {
          "internalType": "address[]",
          "name": "recipients",
          "type": "address[]"
        },
        {
          "internalType": "uint256[]",
          "name": "values",
          "type": "uint256[]"
        }
      ],
      "name": "batchTransfer",
      "outputs": [
        {
          "internalType": "bool",
          "name": "",
          "type": "bool"
        }
      ],
      "stateMutability": "nonpayable",
      "type": "function"
    },
    {
      "inputs": [
        {
          "internalType": "address",
          "name": "from",
          "type": "address"
        },
        {
          "internalType": "address[]",
          "name": "recipients",
          "type": "address[]"
        },
        {
          "internalType": "uint256[]",
          "name": "values",
          "type": "uint256[]"
        }
      ],
      "name": "batchTransferFrom",
      "outputs": [
        {
          "internalType": "bool",
          "name": "",
          "type": "bool"
        }
      ],
      "stateMutability": "nonpayable",
      "type": "function"
    },
    {
      "inputs": [],
      "name": "decimals",
      "outputs": [
        {
          "internalType": "uint8",
          "name": "",
          "type": "uint8"
        }
      ],
      "stateMutability": "view",
      "type": "function"
    },
    {
      "inputs": [
        {
          "internalType": "address",
          "name": "spender",
          "type": "address"
        },
        {
          "internalType": "uint256",
          "name": "subtractedValue",
          "type": "uint256"
        }
      ],
      "name": "decreaseAllowance",
      "outputs": [
        {
          "internalType": "bool",
          "name": "result",
          "type": "bool"
        }
      ],
      "stateMutability": "nonpayable",
      "type": "function"
    },
    {
      "inputs": [],
      "name": "forwarderRegistry",
      "outputs": [
        {
          "internalType": "contract IForwarderRegistry",
          "name": "",
          "type": "address"
        }
      ],
      "stateMutability": "view",
      "type": "function"
    },
    {
      "inputs": [
        {
          "internalType": "address",
          "name": "spender",
          "type": "address"
        },
        {
          "internalType": "uint256",
          "name": "addedValue",
          "type": "uint256"
        }
      ],
      "name": "increaseAllowance",
      "outputs": [
        {
          "internalType": "bool",
          "name": "result",
          "type": "bool"
        }
      ],
      "stateMutability": "nonpayable",
      "type": "function"
    },
    {
      "inputs": [
        {
          "internalType": "address",
          "name": "forwarder",
          "type": "address"
        }
      ],
      "name": "isTrustedForwarder",
      "outputs": [
        {
          "internalType": "bool",
          "name": "",
          "type": "bool"
        }
      ],
      "stateMutability": "view",
      "type": "function"
    },
    {
      "inputs": [],
      "name": "name",
      "outputs": [
        {
          "internalType": "string",
          "name": "",
          "type": "string"
        }
      ],
      "stateMutability": "view",
      "type": "function"
    },
    {
      "inputs": [
        {
          "internalType": "address",
          "name": "owner",
          "type": "address"
        }
      ],
      "name": "nonces",
      "outputs": [
        {
          "internalType": "uint256",
          "name": "",
          "type": "uint256"
        }
      ],
      "stateMutability": "view",
      "type": "function"
    },
    {
      "inputs": [],
      "name": "owner",
      "outputs": [
        {
          "internalType": "address",
          "name": "",
          "type": "address"
        }
      ],
      "stateMutability": "view",
      "type": "function"
    },
    {
      "inputs": [
        {
          "internalType": "address",
          "name": "owner",
          "type": "address"
        },
        {
          "internalType": "address",
          "name": "spender",
          "type": "address"
        },
        {
          "internalType": "uint256",
          "name": "value",
          "type": "uint256"
        },
        {
          "internalType": "uint256",
          "name": "deadline",
          "type": "uint256"
        },
        {
          "internalType": "uint8",
          "name": "v",
          "type": "uint8"
        },
        {
          "internalType": "bytes32",
          "name": "r",
          "type": "bytes32"
        },
        {
          "internalType": "bytes32",
          "name": "s",
          "type": "bytes32"
        }
      ],
      "name": "permit",
      "outputs": [],
      "stateMutability": "nonpayable",
      "type": "function"
    },
    {
      "inputs": [
        {
          "internalType": "address[]",
          "name": "accounts",
          "type": "address[]"
        },
        {
          "internalType": "contract IERC20[]",
          "name": "tokens",
          "type": "address[]"
        },
        {
          "internalType": "uint256[]",
          "name": "amounts",
          "type": "uint256[]"
        }
      ],
      "name": "recoverERC20s",
      "outputs": [],
      "stateMutability": "nonpayable",
      "type": "function"
    },
    {
      "inputs": [
        {
          "internalType": "address[]",
          "name": "accounts",
          "type": "address[]"
        },
        {
          "internalType": "contract IERC721[]",
          "name": "contracts",
          "type": "address[]"
        },
        {
          "internalType": "uint256[]",
          "name": "tokenIds",
          "type": "uint256[]"
        }
      ],
      "name": "recoverERC721s",
      "outputs": [],
      "stateMutability": "nonpayable",
      "type": "function"
    },
    {
      "inputs": [
        {
          "internalType": "address payable[]",
          "name": "accounts",
          "type": "address[]"
        },
        {
          "internalType": "uint256[]",
          "name": "amounts",
          "type": "uint256[]"
        }
      ],
      "name": "recoverETH",
      "outputs": [],
      "stateMutability": "nonpayable",
      "type": "function"
    },
    {
      "inputs": [
        {
          "internalType": "address",
          "name": "to",
          "type": "address"
        },
        {
          "internalType": "uint256",
          "name": "value",
          "type": "uint256"
        },
        {
          "internalType": "bytes",
          "name": "data",
          "type": "bytes"
        }
      ],
      "name": "safeTransfer",
      "outputs": [
        {
          "internalType": "bool",
          "name": "",
          "type": "bool"
        }
      ],
      "stateMutability": "nonpayable",
      "type": "function"
    },
    {
      "inputs": [
        {
          "internalType": "address",
          "name": "from",
          "type": "address"
        },
        {
          "internalType": "address",
          "name": "to",
          "type": "address"
        },
        {
          "internalType": "uint256",
          "name": "value",
          "type": "uint256"
        },
        {
          "internalType": "bytes",
          "name": "data",
          "type": "bytes"
        }
      ],
      "name": "safeTransferFrom",
      "outputs": [
        {
          "internalType": "bool",
          "name": "",
          "type": "bool"
        }
      ],
      "stateMutability": "nonpayable",
      "type": "function"
    },
    {
      "inputs": [
        {
          "internalType": "string",
          "name": "uri",
          "type": "string"
        }
      ],
      "name": "setTokenURI",
      "outputs": [],
      "stateMutability": "nonpayable",
      "type": "function"
    },
    {
      "inputs": [
        {
          "internalType": "bytes4",
          "name": "interfaceId",
          "type": "bytes4"
        }
      ],
      "name": "supportsInterface",
      "outputs": [
        {
          "internalType": "bool",
          "name": "",
          "type": "bool"
        }
      ],
      "stateMutability": "view",
      "type": "function"
    },
    {
      "inputs": [],
      "name": "symbol",
      "outputs": [
        {
          "internalType": "string",
          "name": "",
          "type": "string"
        }
      ],
      "stateMutability": "view",
      "type": "function"
    },
    {
      "inputs": [],
      "name": "tokenURI",
      "outputs": [
        {
          "internalType": "string",
          "name": "",
          "type": "string"
        }
      ],
      "stateMutability": "view",
      "type": "function"
    },
    {
      "inputs": [],
      "name": "totalSupply",
      "outputs": [
        {
          "internalType": "uint256",
          "name": "supply",
          "type": "uint256"
        }
      ],
      "stateMutability": "view",
      "type": "function"
    },
    {
      "inputs": [
        {
          "internalType": "address",
          "name": "to",
          "type": "address"
        },
        {
          "internalType": "uint256",
          "name": "value",
          "type": "uint256"
        }
      ],
      "name": "transfer",
      "outputs": [
        {
          "internalType": "bool",
          "name": "result",
          "type": "bool"
        }
      ],
      "stateMutability": "nonpayable",
      "type": "function"
    },
    {
      "inputs": [
        {
          "internalType": "address",
          "name": "from",
          "type": "address"
        },
        {
          "internalType": "address",
          "name": "to",
          "type": "address"
        },
        {
          "internalType": "uint256",
          "name": "value",
          "type": "uint256"
        }
      ],
      "name": "transferFrom",
      "outputs": [
        {
          "internalType": "bool",
          "name": "result",
          "type": "bool"
        }
      ],
      "stateMutability": "nonpayable",
      "type": "function"
    },
    {
      "inputs": [
        {
          "internalType": "address",
          "name": "newOwner",
          "type": "address"
        }
      ],
      "name": "transferOwnership",
      "outputs": [],
      "stateMutability": "nonpayable",
      "type": "function"
    }
  ],
  "bytecode": "0x60a06040523480156200001157600080fd5b50604051620046b5380380620046b58339810160408190526200003491620008f7565b858585858585808033888888620000556200015d60201b62000b431760201c565b6200008783838362000071620001c160201b62000ba71760201c565b620001f760201b62000bd517909392919060201c565b505050620000b881620000a46200026660201b62000c5a1760201c565b6200029660201b62000c881790919060201c565b50620000ce6200031460201b62000d3e1760201c565b620000e36200033960201b62000d6e1760201c565b620000f86200035c60201b62000d9c1760201c565b6200010d6200037f60201b62000dca1760201c565b6001600160a01b0316608052506200014b838362000136620003a2602090811b62000df817901c565b620003d260201b62000e26179092919060201c565b50505050505050505050505062000b67565b6000620001746200062460201b620010fd1760201c565b90506200019a6336372b0760e01b6001836200065460201b6200112b179092919060201c565b620001be634e83a8c360e11b6001836200065460201b6200112b179092919060201c565b50565b600080620001f160017f335df4119bbb04f056b33eba33b826d3529129e458faf6daa9924b5a8f3b6a82620009d4565b92915050565b8362000204848262000a85565b506001840162000215838262000a85565b5060028401805460ff191660ff83161790556200026063a219a02560e01b60016200024b62000624602090811b620010fd17901c565b6200065460201b6200112b179092919060201c565b50505050565b600080620001f160017fc9ed16f33ab3a66c84bfd83099ccb2a8845871e2e1c1928f63797152f0fd54cd620009d4565b6001600160a01b03811615620002ed5781546001600160a01b0319166001600160a01b03821690811783556040516000907f8be0079c531659141344cd1fd0a4f28419497f9722a3daafe3b4186f6b6457e0908290a35b620003106307f5828d60e41b60016200024b6200062460201b620010fd1760201c565b5050565b620003376303c130d960e41b60016200024b6200062460201b620010fd1760201c565b565b62000337634ec7fbed60e11b60016200024b6200062460201b620010fd1760201c565b620003376353f41a9760e01b60016200024b6200062460201b620010fd1760201c565b6200033763602993f360e11b60016200024b6200062460201b620010fd1760201c565b600080620001f160017f1da92899d3da68bf9787824388a37ea2bfa79780bcef91b9716c390eec8ecbef620009d4565b8151815181146200042a5760405162461bcd60e51b815260206004820152601a60248201527f45524332303a20696e636f6e73697374656e742061727261797300000000000060448201526064015b60405180910390fd5b80600003620004395750505050565b6000805b828114620005b55760008582815181106200045c576200045c62000b51565b6020026020010151905060006001600160a01b0316816001600160a01b031603620004ca5760405162461bcd60e51b815260206004820152601960248201527f45524332303a206d696e7420746f206164647265737328302900000000000000604482015260640162000421565b6000858381518110620004e157620004e162000b51565b60200260200101519050806000146200056957838101848111620005485760405162461bcd60e51b815260206004820152601660248201527f45524332303a2076616c756573206f766572666c6f7700000000000000000000604482015260640162000421565b6001600160a01b038316600090815260208a90526040902080548301905593505b6040518181526001600160a01b038316906000907fddf252ad1be2c89b69c2b068fc378daa952ba7f163c4a11628f55a4df523b3ef9060200160405180910390a350506001016200043d565b5080156200061d576002850154818101818111620006165760405162461bcd60e51b815260206004820152601660248201527f45524332303a20737570706c79206f766572666c6f7700000000000000000000604482015260640162000421565b6002870155505b5050505050565b600080620001f160017fca9d3e17f264b0f3984e2634e94adb37fa3e6a8103f06aeae6fa59e21c769f5e620009d4565b600160e01b6001600160e01b0319831601620006b35760405162461bcd60e51b815260206004820152601f60248201527f496e74657266616365446574656374696f6e3a2077726f6e672076616c756500604482015260640162000421565b6001600160e01b03199190911660009081526020929092526040909120805460ff1916911515919091179055565b634e487b7160e01b600052604160045260246000fd5b604051601f8201601f191681016001600160401b0381118282101715620007225762000722620006e1565b604052919050565b600082601f8301126200073c57600080fd5b81516001600160401b03811115620007585762000758620006e1565b60206200076e601f8301601f19168201620006f7565b82815285828487010111156200078357600080fd5b60005b83811015620007a357858101830151828201840152820162000786565b506000928101909101919091529392505050565b805160ff81168114620007c957600080fd5b919050565b60006001600160401b03821115620007ea57620007ea620006e1565b5060051b60200190565b6001600160a01b0381168114620001be57600080fd5b600082601f8301126200081c57600080fd5b81516020620008356200082f83620007ce565b620006f7565b82815260059290921b840181019181810190868411156200085557600080fd5b8286015b848110156200087d5780516200086f81620007f4565b835291830191830162000859565b509695505050505050565b600082601f8301126200089a57600080fd5b81516020620008ad6200082f83620007ce565b82815260059290921b84018101918181019086841115620008cd57600080fd5b8286015b848110156200087d5780518352918301918301620008d1565b8051620007c981620007f4565b60008060008060008060c087890312156200091157600080fd5b86516001600160401b03808211156200092957600080fd5b620009378a838b016200072a565b975060208901519150808211156200094e57600080fd5b6200095c8a838b016200072a565b96506200096c60408a01620007b7565b955060608901519150808211156200098357600080fd5b620009918a838b016200080a565b94506080890151915080821115620009a857600080fd5b50620009b789828a0162000888565b925050620009c860a08801620008ea565b90509295509295509295565b81810381811115620001f157634e487b7160e01b600052601160045260246000fd5b600181811c9082168062000a0b57607f821691505b60208210810362000a2c57634e487b7160e01b600052602260045260246000fd5b50919050565b601f82111562000a8057600081815260208120601f850160051c8101602086101562000a5b5750805b601f850160051c820191505b8181101562000a7c5782815560010162000a67565b5050505b505050565b81516001600160401b0381111562000aa15762000aa1620006e1565b62000ab98162000ab28454620009f6565b8462000a32565b602080601f83116001811462000af1576000841562000ad85750858301515b600019600386901b1c1916600185901b17855562000a7c565b600085815260208120601f198616915b8281101562000b225788860151825594840194600190910190840162000b01565b508582101562000b415787850151600019600388901b60f8161c191681555b5050505050600190811b01905550565b634e487b7160e01b600052603260045260246000fd5b608051613b0f62000ba66000396000818161024f0152818161030a01528181612ae401528181612b6c01528181612c1f0152612c5d0152613b0f6000f3fe608060405234801561001057600080fd5b50600436106101cf5760003560e01c806373c8a95811610104578063b88d4fde116100a2578063e0df5b6f11610071578063e0df5b6f14610417578063eb7955491461042a578063f2fde38b1461043d578063f7ba94bd1461045057600080fd5b8063b88d4fde146103cb578063c3666c36146103de578063d505accf146103f1578063dd62ed3e1461040457600080fd5b80638da5cb5b116100de5780638da5cb5b1461039557806395d89b411461039d578063a457c2d7146103a5578063a9059cbb146103b857600080fd5b806373c8a9581461035a5780637ecebe001461036f57806388d695b21461038257600080fd5b806331e66e1e116101715780633c130d901161014b5780633c130d90146102df5780634885b254146102e7578063572b6c05146102fa57806370a082311461034757600080fd5b806331e66e1e146102ae5780633644e515146102c457806339509351146102cc57600080fd5b806318160ddd116101ad57806318160ddd1461022457806323b872dd1461023a5780632b4c9f161461024d578063313ce5671461029457600080fd5b806301ffc9a7146101d457806306fdde03146101fc578063095ea7b314610211575b600080fd5b6101e76101e2366004613154565b610463565b60405190151581526020015b60405180910390f35b61020461047d565b6040516101f391906131df565b6101e761021f366004613214565b610494565b61022c6104bc565b6040519081526020016101f3565b6101e7610248366004613240565b6104d0565b7f00000000000000000000000000000000000000000000000000000000000000005b60405173ffffffffffffffffffffffffffffffffffffffff90911681526020016101f3565b61029c6104fb565b60405160ff90911681526020016101f3565b6102b6610512565b6040516101f3929190613281565b61022c610525565b6101e76102da366004613214565b61052f565b61020461054e565b6101e76102f536600461331a565b61055b565b6101e761030836600461339d565b7f000000000000000000000000000000000000000000000000000000000000000073ffffffffffffffffffffffffffffffffffffffff90811691161490565b61022c61035536600461339d565b61058c565b61036d6103683660046133ba565b6105c4565b005b61022c61037d36600461339d565b6106fa565b6101e7610390366004613454565b610708565b61026f610737565b61020461075e565b6101e76103b3366004613214565b610770565b6101e76103c6366004613214565b61078f565b6101e76103d9366004613502565b6107ae565b61036d6103ec3660046133ba565b6107d3565b61036d6103ff366004613564565b610978565b61022c6104123660046135db565b61099f565b61036d610425366004613614565b6109f1565b6101e7610438366004613656565b610a14565b61036d61044b36600461339d565b610a37565b61036d61045e366004613454565b610a55565b6000610477826104716110fd565b90611237565b92915050565b606061048f61048a610ba7565b611311565b905090565b60006104b36104a16113a7565b84846104ab610df8565b9291906113b1565b50600192915050565b600061048f6104c9610df8565b6002015490565b60006104f16104dd6113a7565b8585856104e8610df8565b939291906114a0565b5060019392505050565b600061048f610508610ba7565b6002015460ff1690565b36600061051d6114eb565b915091509091565b600061048f6114f6565b60006104b361053c6113a7565b8484610546610df8565b929190611591565b606061048f61048a61175d565b60006105806105686113a7565b8787878787610575610df8565b95949392919061178b565b50600195945050505050565b60006104778261059a610df8565b9073ffffffffffffffffffffffffffffffffffffffff166000908152602091909152604090205490565b6105dd6105cf6113a7565b6105d7610c5a565b90611bd1565b8483811480156105ec57508082145b610657576040517f08c379a000000000000000000000000000000000000000000000000000000000815260206004820152601d60248201527f5265636f766572793a20696e636f6e73697374656e742061727261797300000060448201526064015b60405180910390fd5b60005b8181146106f0576106e8888883818110610676576106766136a6565b905060200201602081019061068b919061339d565b85858481811061069d5761069d6136a6565b905060200201358888858181106106b6576106b66136a6565b90506020020160208101906106cb919061339d565b73ffffffffffffffffffffffffffffffffffffffff169190611c54565b60010161065a565b5050505050505050565b60006104778261059a611ce6565b600061072b6107156113a7565b86868686610721610df8565b9493929190611d14565b5060015b949350505050565b600061048f610744610c5a565b5473ffffffffffffffffffffffffffffffffffffffff1690565b606061048f61076b610ba7565b6120f6565b60006104b361077d6113a7565b8484610787610df8565b929190612107565b60006104b361079c6113a7565b84846107a6610df8565b929190612259565b60006105806107bb6113a7565b87878787876107c8610df8565b95949392919061243a565b6107de6105cf6113a7565b8483811480156107ed57508082145b610853576040517f08c379a000000000000000000000000000000000000000000000000000000000815260206004820152601d60248201527f5265636f766572793a20696e636f6e73697374656e7420617272617973000000604482015260640161064e565b60005b8181146106f05785858281811061086f5761086f6136a6565b9050602002016020810190610884919061339d565b73ffffffffffffffffffffffffffffffffffffffff166323b872dd308a8a858181106108b2576108b26136a6565b90506020020160208101906108c7919061339d565b8787868181106108d9576108d96136a6565b6040517fffffffff0000000000000000000000000000000000000000000000000000000060e088901b16815273ffffffffffffffffffffffffffffffffffffffff958616600482015294909316602485015250602090910201356044820152606401600060405180830381600087803b15801561095557600080fd5b505af1158015610969573d6000803e3d6000fd5b50505050806001019050610856565b6109968787878787878761098a611ce6565b969594939291906124a7565b50505050505050565b60006109ea83836109ae610df8565b919073ffffffffffffffffffffffffffffffffffffffff9182166000908152600193909301602090815260408085209290931684525290205490565b9392505050565b6109fc6105cf6113a7565b610a108282610a0961175d565b91906127a3565b5050565b600061072b610a216113a7565b86868686610a2d610df8565b94939291906127af565b610a52610a426113a7565b82610a4b610c5a565b919061281b565b50565b610a606105cf6113a7565b82818114610aca576040517f08c379a000000000000000000000000000000000000000000000000000000000815260206004820152601d60248201527f5265636f766572793a20696e636f6e73697374656e7420617272617973000000604482015260640161064e565b60005b818114610b3b57610b33848483818110610ae957610ae96136a6565b90506020020135878784818110610b0257610b026136a6565b9050602002016020810190610b17919061339d565b73ffffffffffffffffffffffffffffffffffffffff1690612947565b600101610acd565b505050505050565b6000610b4d6110fd565b9050610b7b817f36372b0700000000000000000000000000000000000000000000000000000000600161112b565b610a52817f9d07518600000000000000000000000000000000000000000000000000000000600161112b565b60008061047760017f335df4119bbb04f056b33eba33b826d3529129e458faf6daa9924b5a8f3b6a826136d5565b83610be084826137d7565b5060018401610bef83826137d7565b506002840180547fffffffffffffffffffffffffffffffffffffffffffffffffffffffffffffff001660ff8316179055610c547fa219a025000000000000000000000000000000000000000000000000000000006001610c4d6110fd565b919061112b565b50505050565b60008061047760017fc9ed16f33ab3a66c84bfd83099ccb2a8845871e2e1c1928f63797152f0fd54cd6136d5565b73ffffffffffffffffffffffffffffffffffffffff811615610d105781547fffffffffffffffffffffffff00000000000000000000000000000000000000001673ffffffffffffffffffffffffffffffffffffffff821690811783556040516000907f8be0079c531659141344cd1fd0a4f28419497f9722a3daafe3b4186f6b6457e0908290a35b610a107f7f5828d0000000000000000000000000000000000000000000000000000000006001610c4d6110fd565b610d6c7f3c130d90000000000000000000000000000000000000000000000000000000006001610c4d6110fd565b565b610d6c7f9d8ff7da000000000000000000000000000000000000000000000000000000006001610c4d6110fd565b610d6c7f53f41a97000000000000000000000000000000000000000000000000000000006001610c4d6110fd565b610d6c7fc05327e6000000000000000000000000000000000000000000000000000000006001610c4d6110fd565b60008061047760017f1da92899d3da68bf9787824388a37ea2bfa79780bcef91b9716c390eec8ecbef6136d5565b815181518114610e92576040517f08c379a000000000000000000000000000000000000000000000000000000000815260206004820152601a60248201527f45524332303a20696e636f6e73697374656e7420617272617973000000000000604482015260640161064e565b80600003610ea05750505050565b6000805b828114611077576000858281518110610ebf57610ebf6136a6565b60200260200101519050600073ffffffffffffffffffffffffffffffffffffffff168173ffffffffffffffffffffffffffffffffffffffff1603610f5f576040517f08c379a000000000000000000000000000000000000000000000000000000000815260206004820152601960248201527f45524332303a206d696e7420746f206164647265737328302900000000000000604482015260640161064e565b6000858381518110610f7357610f736136a6565b602002602001015190508060001461101f57838101848111610ff1576040517f08c379a000000000000000000000000000000000000000000000000000000000815260206004820152601660248201527f45524332303a2076616c756573206f766572666c6f7700000000000000000000604482015260640161064e565b73ffffffffffffffffffffffffffffffffffffffff8316600090815260208a90526040902080548301905593505b60405181815273ffffffffffffffffffffffffffffffffffffffff8316906000907fddf252ad1be2c89b69c2b068fc378daa952ba7f163c4a11628f55a4df523b3ef9060200160405180910390a35050600101610ea4565b5080156110f65760028501548181018181116110ef576040517f08c379a000000000000000000000000000000000000000000000000000000000815260206004820152601660248201527f45524332303a20737570706c79206f766572666c6f7700000000000000000000604482015260640161064e565b6002870155505b5050505050565b60008061047760017fca9d3e17f264b0f3984e2634e94adb37fa3e6a8103f06aeae6fa59e21c769f5e6136d5565b7c01000000000000000000000000000000000000000000000000000000007fffffffff000000000000000000000000000000000000000000000000000000008316016111d3576040517f08c379a000000000000000000000000000000000000000000000000000000000815260206004820152601f60248201527f496e74657266616365446574656374696f6e3a2077726f6e672076616c756500604482015260640161064e565b7fffffffff00000000000000000000000000000000000000000000000000000000919091166000908152602092909252604090912080547fffffffffffffffffffffffffffffffffffffffffffffffffffffffffffffff0016911515919091179055565b60007c01000000000000000000000000000000000000000000000000000000007fffffffff0000000000000000000000000000000000000000000000000000000083160161128757506000610477565b7ffe003659000000000000000000000000000000000000000000000000000000007fffffffff000000000000000000000000000000000000000000000000000000008316016112d857506001610477565b507fffffffff00000000000000000000000000000000000000000000000000000000166000908152602091909152604090205460ff1690565b60608160000180546113229061373e565b80601f016020809104026020016040519081016040528092919081815260200182805461134e9061373e565b801561139b5780601f106113705761010080835404028352916020019161139b565b820191906000526020600020905b81548152906001019060200180831161137e57829003601f168201915b50505050509050919050565b600061048f612aa1565b73ffffffffffffffffffffffffffffffffffffffff821661142e576040517f08c379a000000000000000000000000000000000000000000000000000000000815260206004820152601d60248201527f45524332303a20617070726f76616c20746f2061646472657373283029000000604482015260640161064e565b73ffffffffffffffffffffffffffffffffffffffff838116600081815260018701602090815260408083209487168084529482529182902085905590518481527f8c5be1e5ebec7d5bd14f71427d1e84f3dd0314c0f7b2291e5b200ac8c7c3b92591015b60405180910390a350505050565b8373ffffffffffffffffffffffffffffffffffffffff168373ffffffffffffffffffffffffffffffffffffffff16146114df576114df85848684612107565b6110f685848484612259565b36600061051d612be8565b6000467f8b73c3c69bb8fe3d512ecc4cf759cc79239f7b179b0ffacaa9a75d522b39400f61152561048a610ba7565b80516020918201206040805192830193909352918101919091527fc89efdaa54c0f20c7adf612882df0950f5a951637e0307cdcb4c672f298b8bc66060820152608081018290523060a082015260c0016040516020818303038152906040528051906020012091505090565b73ffffffffffffffffffffffffffffffffffffffff821661160e576040517f08c379a000000000000000000000000000000000000000000000000000000000815260206004820152601d60248201527f45524332303a20617070726f76616c20746f2061646472657373283029000000604482015260640161064e565b73ffffffffffffffffffffffffffffffffffffffff808416600090815260018601602090815260408083209386168352929052205481156116ef578082018181116116b5576040517f08c379a000000000000000000000000000000000000000000000000000000000815260206004820152601960248201527f45524332303a20616c6c6f77616e6365206f766572666c6f7700000000000000604482015260640161064e565b73ffffffffffffffffffffffffffffffffffffffff8086166000908152600188016020908152604080832093881683529290522081905590505b8273ffffffffffffffffffffffffffffffffffffffff168473ffffffffffffffffffffffffffffffffffffffff167f8c5be1e5ebec7d5bd14f71427d1e84f3dd0314c0f7b2291e5b200ac8c7c3b9258360405161174e91815260200190565b60405180910390a35050505050565b60008061047760017ff41bf6a5db26bffdfab174dcf66b31fbba8fdb7e3db040721ce1e62d61839ceb6136d5565b828181146117f5576040517f08c379a000000000000000000000000000000000000000000000000000000000815260206004820152601a60248201527f45524332303a20696e636f6e73697374656e7420617272617973000000000000604482015260640161064e565b806000036118035750610996565b73ffffffffffffffffffffffffffffffffffffffff86166000908152602089905260408120549080805b848114611ad9576000898983818110611848576118486136a6565b905060200201602081019061185d919061339d565b905073ffffffffffffffffffffffffffffffffffffffff81166118dc576040517f08c379a000000000000000000000000000000000000000000000000000000000815260206004820152601d60248201527f45524332303a207472616e7366657220746f2061646472657373283029000000604482015260640161064e565b60008888848181106118f0576118f06136a6565b90506020020135905080600014611a685784810185811161196d576040517f08c379a000000000000000000000000000000000000000000000000000000000815260206004820152601660248201527f45524332303a2076616c756573206f766572666c6f7700000000000000000000604482015260640161064e565b8095508273ffffffffffffffffffffffffffffffffffffffff168d73ffffffffffffffffffffffffffffffffffffffff16146119f757818f60000160008573ffffffffffffffffffffffffffffffffffffffff1673ffffffffffffffffffffffffffffffffffffffff16815260200190815260200160002060008282540192505081905550611a66565b86821115611a61576040517f08c379a000000000000000000000000000000000000000000000000000000000815260206004820152601b60248201527f45524332303a20696e73756666696369656e742062616c616e63650000000000604482015260640161064e565b938101935b505b8173ffffffffffffffffffffffffffffffffffffffff168c73ffffffffffffffffffffffffffffffffffffffff167fddf252ad1be2c89b69c2b068fc378daa952ba7f163c4a11628f55a4df523b3ef83604051611ac791815260200190565b60405180910390a3505060010161182d565b508115801590611ae95750808214155b15611b8557818303838110611b5a576040517f08c379a000000000000000000000000000000000000000000000000000000000815260206004820152601b60248201527f45524332303a20696e73756666696369656e742062616c616e63650000000000604482015260640161064e565b73ffffffffffffffffffffffffffffffffffffffff8a16600090815260208d90526040902090820190555b8973ffffffffffffffffffffffffffffffffffffffff168973ffffffffffffffffffffffffffffffffffffffff1614611bc457611bc48b8a8c85612107565b5050505050505050505050565b815473ffffffffffffffffffffffffffffffffffffffff828116911614610a10576040517f08c379a000000000000000000000000000000000000000000000000000000000815260206004820152601860248201527f4f776e6572736869703a206e6f7420746865206f776e65720000000000000000604482015260640161064e565b6040805173ffffffffffffffffffffffffffffffffffffffff8416602482015260448082018490528251808303909101815260649091019091526020810180517bffffffffffffffffffffffffffffffffffffffffffffffffffffffff167fa9059cbb00000000000000000000000000000000000000000000000000000000179052611ce1908490612d52565b505050565b60008061047760017f93fe0ff7226b064a4a8f0b09910762afb4bc2441835792c021ffd78cd513011e6136d5565b82818114611d7e576040517f08c379a000000000000000000000000000000000000000000000000000000000815260206004820152601a60248201527f45524332303a20696e636f6e73697374656e7420617272617973000000000000604482015260640161064e565b80600003611d8c5750610b3b565b73ffffffffffffffffffffffffffffffffffffffff86166000908152602088905260408120549080805b84811461203e576000898983818110611dd157611dd16136a6565b9050602002016020810190611de6919061339d565b905073ffffffffffffffffffffffffffffffffffffffff8116611e65576040517f08c379a000000000000000000000000000000000000000000000000000000000815260206004820152601d60248201527f45524332303a207472616e7366657220746f2061646472657373283029000000604482015260640161064e565b6000888884818110611e7957611e796136a6565b90506020020135905080600014611fcd57848101858111611ef6576040517f08c379a000000000000000000000000000000000000000000000000000000000815260206004820152601660248201527f45524332303a2076616c756573206f766572666c6f7700000000000000000000604482015260640161064e565b8095508273ffffffffffffffffffffffffffffffffffffffff168d73ffffffffffffffffffffffffffffffffffffffff1614611f5c5773ffffffffffffffffffffffffffffffffffffffff8316600090815260208f905260409020805483019055611fcb565b86821115611fc6576040517f08c379a000000000000000000000000000000000000000000000000000000000815260206004820152601b60248201527f45524332303a20696e73756666696369656e742062616c616e63650000000000604482015260640161064e565b938101935b505b8173ffffffffffffffffffffffffffffffffffffffff168c73ffffffffffffffffffffffffffffffffffffffff167fddf252ad1be2c89b69c2b068fc378daa952ba7f163c4a11628f55a4df523b3ef8360405161202c91815260200190565b60405180910390a35050600101611db6565b50811580159061204e5750808214155b156120ea578183038381106120bf576040517f08c379a000000000000000000000000000000000000000000000000000000000815260206004820152601b60248201527f45524332303a20696e73756666696369656e742062616c616e63650000000000604482015260640161064e565b73ffffffffffffffffffffffffffffffffffffffff8a16600090815260208c90526040902090820190555b50505050505050505050565b60608160010180546113229061373e565b73ffffffffffffffffffffffffffffffffffffffff8216612184576040517f08c379a000000000000000000000000000000000000000000000000000000000815260206004820152601d60248201527f45524332303a20617070726f76616c20746f2061646472657373283029000000604482015260640161064e565b73ffffffffffffffffffffffffffffffffffffffff80841660009081526001860160209081526040808320938616835292905220547fffffffffffffffffffffffffffffffffffffffffffffffffffffffffffffffff81148015906121e857508115155b156116ef578181038181106116b5576040517f08c379a000000000000000000000000000000000000000000000000000000000815260206004820152601d60248201527f45524332303a20696e73756666696369656e7420616c6c6f77616e6365000000604482015260640161064e565b73ffffffffffffffffffffffffffffffffffffffff82166122d6576040517f08c379a000000000000000000000000000000000000000000000000000000000815260206004820152601d60248201527f45524332303a207472616e7366657220746f2061646472657373283029000000604482015260640161064e565b80156123db5773ffffffffffffffffffffffffffffffffffffffff831660009081526020859052604090205481810381811061236e576040517f08c379a000000000000000000000000000000000000000000000000000000000815260206004820152601b60248201527f45524332303a20696e73756666696369656e742062616c616e63650000000000604482015260640161064e565b8373ffffffffffffffffffffffffffffffffffffffff168573ffffffffffffffffffffffffffffffffffffffff16146123d85773ffffffffffffffffffffffffffffffffffffffff8086166000908152602088905260408082208490559186168152208054840190555b50505b8173ffffffffffffffffffffffffffffffffffffffff168373ffffffffffffffffffffffffffffffffffffffff167fddf252ad1be2c89b69c2b068fc378daa952ba7f163c4a11628f55a4df523b3ef8360405161149291815260200190565b61244787878787876114a0565b73ffffffffffffffffffffffffffffffffffffffff84163b15610996576109968686868686868080601f016020809104026020016040519081016040528093929190818152602001838380828437600092019190915250612e5e92505050565b73ffffffffffffffffffffffffffffffffffffffff8716612524576040517f08c379a000000000000000000000000000000000000000000000000000000000815260206004820152601d60248201527f45524332303a207065726d69742066726f6d2061646472657373283029000000604482015260640161064e565b8342111561258e576040517f08c379a000000000000000000000000000000000000000000000000000000000815260206004820152601560248201527f45524332303a2065787069726564207065726d69740000000000000000000000604482015260640161064e565b73ffffffffffffffffffffffffffffffffffffffff878116600081815260208b8152604080832080546001810190915581517f6e71edae12b1b97f4d1f60370fef10105fa2faae0126114a169c64845d6126c98185015280830195909552948b166060850152608084018a905260a084019490945260c08084018990528451808503909101815260e0909301909352815191909201209061262d6114f6565b6040517f19010000000000000000000000000000000000000000000000000000000000006020820152602281019190915260428101839052606201604080517fffffffffffffffffffffffffffffffffffffffffffffffffffffffffffffffe08184030181528282528051602091820120600080855291840180845281905260ff89169284019290925260608301879052608083018690529092509060019060a0016020604051602081039080840390855afa1580156126f1573d6000803e3d6000fd5b5050506020604051035190508973ffffffffffffffffffffffffffffffffffffffff168173ffffffffffffffffffffffffffffffffffffffff1614612792576040517f08c379a000000000000000000000000000000000000000000000000000000000815260206004820152601560248201527f45524332303a20696e76616c6964207065726d69740000000000000000000000604482015260640161064e565b5050506106f08787876104ab610df8565b82610c548284836138f1565b6127bb86868686612259565b73ffffffffffffffffffffffffffffffffffffffff84163b15610b3b57610b3b8586868686868080601f016020809104026020016040519081016040528093929190818152602001838380828437600092019190915250612e5e92505050565b825473ffffffffffffffffffffffffffffffffffffffff90811690831681146128a0576040517f08c379a000000000000000000000000000000000000000000000000000000000815260206004820152601860248201527f4f776e6572736869703a206e6f7420746865206f776e65720000000000000000604482015260640161064e565b8173ffffffffffffffffffffffffffffffffffffffff168173ffffffffffffffffffffffffffffffffffffffff1614610c545783547fffffffffffffffffffffffff00000000000000000000000000000000000000001673ffffffffffffffffffffffffffffffffffffffff8381169182178655604051908316907f8be0079c531659141344cd1fd0a4f28419497f9722a3daafe3b4186f6b6457e090600090a350505050565b804710156129b1576040517f08c379a000000000000000000000000000000000000000000000000000000000815260206004820152601d60248201527f416464726573733a20696e73756666696369656e742062616c616e6365000000604482015260640161064e565b60008273ffffffffffffffffffffffffffffffffffffffff168260405160006040518083038185875af1925050503d8060008114612a0b576040519150601f19603f3d011682016040523d82523d6000602084013e612a10565b606091505b5050905080611ce1576040517f08c379a000000000000000000000000000000000000000000000000000000000815260206004820152603a60248201527f416464726573733a20756e61626c6520746f2073656e642076616c75652c207260448201527f6563697069656e74206d61792068617665207265766572746564000000000000606482015260840161064e565b600033321480612ab15750601836105b15612abb57503390565b7fffffffffffffffffffffffffffffffffffffffffffffffffffffffffffffffec36013560601c7f000000000000000000000000000000000000000000000000000000000000000073ffffffffffffffffffffffffffffffffffffffff16331480612bd757506040517f8929a8ca00000000000000000000000000000000000000000000000000000000815273ffffffffffffffffffffffffffffffffffffffff82811660048301523360248301527f00000000000000000000000000000000000000000000000000000000000000001690638929a8ca90604401602060405180830381865afa158015612bb3573d6000803e3d6000fd5b505050506040513d601f19601f82011682018060405250810190612bd79190613a0b565b15612be157919050565b3391505090565b36600033321480612bf95750601836105b15612c075750600091369150565b3373ffffffffffffffffffffffffffffffffffffffff7f0000000000000000000000000000000000000000000000000000000000000000161480612d3c575073ffffffffffffffffffffffffffffffffffffffff7f000000000000000000000000000000000000000000000000000000000000000016638929a8ca367fffffffffffffffffffffffffffffffffffffffffffffffffffffffffffffffec013560601c6040517fffffffff0000000000000000000000000000000000000000000000000000000060e084901b16815273ffffffffffffffffffffffffffffffffffffffff9091166004820152336024820152604401602060405180830381865afa158015612d18573d6000803e3d6000fd5b505050506040513d601f19601f82011682018060405250810190612d3c9190613a0b565b15612d495761051d612f84565b50600091369150565b6000612db4826040518060400160405280602081526020017f5361666545524332303a206c6f772d6c6576656c2063616c6c206661696c65648152508573ffffffffffffffffffffffffffffffffffffffff16612fb59092919063ffffffff16565b805190915015611ce15780806020019051810190612dd29190613a0b565b611ce1576040517f08c379a000000000000000000000000000000000000000000000000000000000815260206004820152602a60248201527f5361666545524332303a204552433230206f7065726174696f6e20646964206e60448201527f6f74207375636365656400000000000000000000000000000000000000000000606482015260840161064e565b6040517f4fc35859000000000000000000000000000000000000000000000000000000008082529073ffffffffffffffffffffffffffffffffffffffff851690634fc3585990612eb8908990899088908890600401613a2d565b6020604051808303816000875af1158015612ed7573d6000803e3d6000fd5b505050506040513d601f19601f82011682018060405250810190612efb9190613a76565b7fffffffff0000000000000000000000000000000000000000000000000000000016146110f6576040517f08c379a000000000000000000000000000000000000000000000000000000000815260206004820152601d60248201527f45524332303a2073616665207472616e736665722072656a6563746564000000604482015260640161064e565b36600061051d7fffffffffffffffffffffffffffffffffffffffffffffffffffffffffffffffec8301828481613a93565b606061072f8484600085856000808673ffffffffffffffffffffffffffffffffffffffff168587604051612fe99190613abd565b60006040518083038185875af1925050503d8060008114613026576040519150601f19603f3d011682016040523d82523d6000602084013e61302b565b606091505b509150915061303c87838387613047565b979650505050505050565b606083156130dd5782516000036130d65773ffffffffffffffffffffffffffffffffffffffff85163b6130d6576040517f08c379a000000000000000000000000000000000000000000000000000000000815260206004820152601d60248201527f416464726573733a2063616c6c20746f206e6f6e2d636f6e7472616374000000604482015260640161064e565b508161072f565b61072f83838151156130f25781518083602001fd5b806040517f08c379a000000000000000000000000000000000000000000000000000000000815260040161064e91906131df565b7fffffffff0000000000000000000000000000000000000000000000000000000081168114610a5257600080fd5b60006020828403121561316657600080fd5b81356109ea81613126565b60005b8381101561318c578181015183820152602001613174565b50506000910152565b600081518084526131ad816020860160208601613171565b601f017fffffffffffffffffffffffffffffffffffffffffffffffffffffffffffffffe0169290920160200192915050565b6020815260006109ea6020830184613195565b73ffffffffffffffffffffffffffffffffffffffff81168114610a5257600080fd5b6000806040838503121561322757600080fd5b8235613232816131f2565b946020939093013593505050565b60008060006060848603121561325557600080fd5b8335613260816131f2565b92506020840135613270816131f2565b929592945050506040919091013590565b60208152816020820152818360408301376000818301604090810191909152601f9092017fffffffffffffffffffffffffffffffffffffffffffffffffffffffffffffffe0160101919050565b60008083601f8401126132e057600080fd5b50813567ffffffffffffffff8111156132f857600080fd5b6020830191508360208260051b850101111561331357600080fd5b9250929050565b60008060008060006060868803121561333257600080fd5b853561333d816131f2565b9450602086013567ffffffffffffffff8082111561335a57600080fd5b61336689838a016132ce565b9096509450604088013591508082111561337f57600080fd5b5061338c888289016132ce565b969995985093965092949392505050565b6000602082840312156133af57600080fd5b81356109ea816131f2565b600080600080600080606087890312156133d357600080fd5b863567ffffffffffffffff808211156133eb57600080fd5b6133f78a838b016132ce565b9098509650602089013591508082111561341057600080fd5b61341c8a838b016132ce565b9096509450604089013591508082111561343557600080fd5b5061344289828a016132ce565b979a9699509497509295939492505050565b6000806000806040858703121561346a57600080fd5b843567ffffffffffffffff8082111561348257600080fd5b61348e888389016132ce565b909650945060208701359150808211156134a757600080fd5b506134b4878288016132ce565b95989497509550505050565b60008083601f8401126134d257600080fd5b50813567ffffffffffffffff8111156134ea57600080fd5b60208301915083602082850101111561331357600080fd5b60008060008060006080868803121561351a57600080fd5b8535613525816131f2565b94506020860135613535816131f2565b935060408601359250606086013567ffffffffffffffff81111561355857600080fd5b61338c888289016134c0565b600080600080600080600060e0888a03121561357f57600080fd5b873561358a816131f2565b9650602088013561359a816131f2565b95506040880135945060608801359350608088013560ff811681146135be57600080fd5b9699959850939692959460a0840135945060c09093013592915050565b600080604083850312156135ee57600080fd5b82356135f9816131f2565b91506020830135613609816131f2565b809150509250929050565b6000806020838503121561362757600080fd5b823567ffffffffffffffff81111561363e57600080fd5b61364a858286016134c0565b90969095509350505050565b6000806000806060858703121561366c57600080fd5b8435613677816131f2565b935060208501359250604085013567ffffffffffffffff81111561369a57600080fd5b6134b4878288016134c0565b7f4e487b7100000000000000000000000000000000000000000000000000000000600052603260045260246000fd5b81810381811115610477577f4e487b7100000000000000000000000000000000000000000000000000000000600052601160045260246000fd5b7f4e487b7100000000000000000000000000000000000000000000000000000000600052604160045260246000fd5b600181811c9082168061375257607f821691505b60208210810361378b577f4e487b7100000000000000000000000000000000000000000000000000000000600052602260045260246000fd5b50919050565b601f821115611ce157600081815260208120601f850160051c810160208610156137b85750805b601f850160051c820191505b81811015610b3b578281556001016137c4565b815167ffffffffffffffff8111156137f1576137f161370f565b613805816137ff845461373e565b84613791565b602080601f83116001811461385857600084156138225750858301515b7fffffffffffffffffffffffffffffffffffffffffffffffffffffffffffffffff600386901b1c1916600185901b178555610b3b565b6000858152602081207fffffffffffffffffffffffffffffffffffffffffffffffffffffffffffffffe08616915b828110156138a557888601518255948401946001909101908401613886565b50858210156138e157878501517fffffffffffffffffffffffffffffffffffffffffffffffffffffffffffffffff600388901b60f8161c191681555b5050505050600190811b01905550565b67ffffffffffffffff8311156139095761390961370f565b61391d83613917835461373e565b83613791565b6000601f84116001811461396f57600085156139395750838201355b7fffffffffffffffffffffffffffffffffffffffffffffffffffffffffffffffff600387901b1c1916600186901b1783556110f6565b6000838152602090207fffffffffffffffffffffffffffffffffffffffffffffffffffffffffffffffe0861690835b828110156139be578685013582556020948501946001909201910161399e565b50868210156139f9577fffffffffffffffffffffffffffffffffffffffffffffffffffffffffffffffff60f88860031b161c19848701351681555b505060018560011b0183555050505050565b600060208284031215613a1d57600080fd5b815180151581146109ea57600080fd5b600073ffffffffffffffffffffffffffffffffffffffff808716835280861660208401525083604083015260806060830152613a6c6080830184613195565b9695505050505050565b600060208284031215613a8857600080fd5b81516109ea81613126565b60008085851115613aa357600080fd5b83861115613ab057600080fd5b5050820193919092039150565b60008251613acf818460208701613171565b919091019291505056fea2646970667358221220085ce1f8982b19fbc9a9347f936d64134ab05de5d35c32ba4a007694ba58cf0b64736f6c63430008110033",
  "linkReferences": {},
  "deployedLinkReferences": {}
}