{
  "_format": "hh-sol-artifact-1",
  "contractName": "NFTMock",
  "sourceName": "contracts/mocks/token/ERC721/NFTMock.sol",
  "abi": [
    {
      "inputs": [
        {
          "internalType": "string",
          "name": "name",
          "type": "string"
        },
        {
          "internalType": "string",
          "name": "symbol",
          "type": "string"
        },
        {
          "internalType": "contract IOperatorFilterRegistry",
          "name": "filterRegistry",
          "type": "address"
        },
        {
          "internalType": "contract IForwarderRegistry",
          "name": "forwarderRegistry",
          "type": "address"
        }
      ],
      "stateMutability": "nonpayable",
      "type": "constructor"
    },
    {
      "inputs": [
        {
          "internalType": "uint256",
          "name": "percentage",
          "type": "uint256"
        }
      ],
      "name": "IncorrectRoyaltyPercentage",
      "type": "error"
    },
    {
      "inputs": [],
      "name": "IncorrectRoyaltyReceiver",
      "type": "error"
    },
    {
      "inputs": [
        {
          "internalType": "address",
          "name": "operator",
          "type": "address"
        }
      ],
      "name": "OperatorNotAllowed",
      "type": "error"
    },
    {
      "anonymous": false,
      "inputs": [
        {
          "indexed": true,
          "internalType": "address",
          "name": "owner",
          "type": "address"
        },
        {
          "indexed": true,
          "internalType": "address",
          "name": "approved",
          "type": "address"
        },
        {
          "indexed": true,
          "internalType": "uint256",
          "name": "tokenId",
          "type": "uint256"
        }
      ],
      "name": "Approval",
      "type": "event"
    },
    {
      "anonymous": false,
      "inputs": [
        {
          "indexed": true,
          "internalType": "address",
          "name": "owner",
          "type": "address"
        },
        {
          "indexed": true,
          "internalType": "address",
          "name": "operator",
          "type": "address"
        },
        {
          "indexed": false,
          "internalType": "bool",
          "name": "approved",
          "type": "bool"
        }
      ],
      "name": "ApprovalForAll",
      "type": "event"
    },
    {
      "anonymous": false,
      "inputs": [
        {
          "indexed": false,
          "internalType": "string",
          "name": "baseMetadataURI",
          "type": "string"
        }
      ],
      "name": "BaseMetadataURISet",
      "type": "event"
    },
    {
      "anonymous": false,
      "inputs": [
        {
          "indexed": true,
          "internalType": "address",
          "name": "previousOwner",
          "type": "address"
        },
        {
          "indexed": true,
          "internalType": "address",
          "name": "newOwner",
          "type": "address"
        }
      ],
      "name": "OwnershipTransferred",
      "type": "event"
    },
    {
      "anonymous": false,
      "inputs": [
        {
          "indexed": false,
          "internalType": "bytes32",
          "name": "role",
          "type": "bytes32"
        },
        {
          "indexed": false,
          "internalType": "address",
          "name": "account",
          "type": "address"
        },
        {
          "indexed": false,
          "internalType": "address",
          "name": "operator",
          "type": "address"
        }
      ],
      "name": "RoleGranted",
      "type": "event"
    },
    {
      "anonymous": false,
      "inputs": [
        {
          "indexed": false,
          "internalType": "bytes32",
          "name": "role",
          "type": "bytes32"
        },
        {
          "indexed": false,
          "internalType": "address",
          "name": "account",
          "type": "address"
        },
        {
          "indexed": false,
          "internalType": "address",
          "name": "operator",
          "type": "address"
        }
      ],
      "name": "RoleRevoked",
      "type": "event"
    },
    {
      "anonymous": false,
      "inputs": [
        {
          "indexed": true,
          "internalType": "address",
          "name": "from",
          "type": "address"
        },
        {
          "indexed": true,
          "internalType": "address",
          "name": "to",
          "type": "address"
        },
        {
          "indexed": true,
          "internalType": "uint256",
          "name": "tokenId",
          "type": "uint256"
        }
      ],
      "name": "Transfer",
      "type": "event"
    },
    {
      "inputs": [],
      "name": "MINTER_ROLE",
      "outputs": [
        {
          "internalType": "bytes32",
          "name": "",
          "type": "bytes32"
        }
      ],
      "stateMutability": "view",
      "type": "function"
    },
    {
      "inputs": [],
      "name": "ROYALTY_FEE_DENOMINATOR",
      "outputs": [
        {
          "internalType": "uint256",
          "name": "",
          "type": "uint256"
        }
      ],
      "stateMutability": "view",
      "type": "function"
    },
    {
      "inputs": [],
      "name": "__msgData",
      "outputs": [
        {
          "internalType": "bytes",
          "name": "",
          "type": "bytes"
        }
      ],
      "stateMutability": "view",
      "type": "function"
    },
    {
      "inputs": [
        {
          "internalType": "address",
          "name": "to",
          "type": "address"
        },
        {
          "internalType": "uint256",
          "name": "tokenId",
          "type": "uint256"
        }
      ],
      "name": "approve",
      "outputs": [],
      "stateMutability": "nonpayable",
      "type": "function"
    },
    {
      "inputs": [
        {
          "internalType": "address",
          "name": "owner",
          "type": "address"
        }
      ],
      "name": "balanceOf",
      "outputs": [
        {
          "internalType": "uint256",
          "name": "balance",
          "type": "uint256"
        }
      ],
      "stateMutability": "view",
      "type": "function"
    },
    {
      "inputs": [],
      "name": "baseMetadataURI",
      "outputs": [
        {
          "internalType": "string",
          "name": "baseURI",
          "type": "string"
        }
      ],
      "stateMutability": "view",
      "type": "function"
    },
    {
      "inputs": [
        {
          "internalType": "address",
          "name": "from",
          "type": "address"
        },
        {
          "internalType": "uint256[]",
          "name": "tokenIds",
          "type": "uint256[]"
        }
      ],
      "name": "batchBurnFrom",
      "outputs": [],
      "stateMutability": "nonpayable",
      "type": "function"
    },
    {
      "inputs": [
        {
          "internalType": "address",
          "name": "to",
          "type": "address"
        },
        {
          "internalType": "uint256[]",
          "name": "tokenIds",
          "type": "uint256[]"
        }
      ],
      "name": "batchMint",
      "outputs": [],
      "stateMutability": "nonpayable",
      "type": "function"
    },
    {
      "inputs": [
        {
          "internalType": "address",
          "name": "from",
          "type": "address"
        },
        {
          "internalType": "address",
          "name": "to",
          "type": "address"
        },
        {
          "internalType": "uint256[]",
          "name": "tokenIds",
          "type": "uint256[]"
        }
      ],
      "name": "batchTransferFrom",
      "outputs": [],
      "stateMutability": "nonpayable",
      "type": "function"
    },
    {
      "inputs": [
        {
          "internalType": "address",
          "name": "from",
          "type": "address"
        },
        {
          "internalType": "uint256",
          "name": "tokenId",
          "type": "uint256"
        }
      ],
      "name": "burnFrom",
      "outputs": [],
      "stateMutability": "nonpayable",
      "type": "function"
    },
    {
      "inputs": [
        {
          "internalType": "address[]",
          "name": "recipients",
          "type": "address[]"
        },
        {
          "internalType": "uint256[]",
          "name": "tokenIds",
          "type": "uint256[]"
        }
      ],
      "name": "deliver",
      "outputs": [],
      "stateMutability": "nonpayable",
      "type": "function"
    },
    {
      "inputs": [],
      "name": "forwarderRegistry",
      "outputs": [
        {
          "internalType": "contract IForwarderRegistry",
          "name": "",
          "type": "address"
        }
      ],
      "stateMutability": "view",
      "type": "function"
    },
    {
      "inputs": [
        {
          "internalType": "uint256",
          "name": "tokenId",
          "type": "uint256"
        }
      ],
      "name": "getApproved",
      "outputs": [
        {
          "internalType": "address",
          "name": "approved",
          "type": "address"
        }
      ],
      "stateMutability": "view",
      "type": "function"
    },
    {
      "inputs": [
        {
          "internalType": "bytes32",
          "name": "role",
          "type": "bytes32"
        },
        {
          "internalType": "address",
          "name": "account",
          "type": "address"
        }
      ],
      "name": "grantRole",
      "outputs": [],
      "stateMutability": "nonpayable",
      "type": "function"
    },
    {
      "inputs": [
        {
          "internalType": "bytes32",
          "name": "role",
          "type": "bytes32"
        },
        {
          "internalType": "address",
          "name": "account",
          "type": "address"
        }
      ],
      "name": "hasRole",
      "outputs": [
        {
          "internalType": "bool",
          "name": "",
          "type": "bool"
        }
      ],
      "stateMutability": "view",
      "type": "function"
    },
    {
      "inputs": [
        {
          "internalType": "address",
          "name": "owner",
          "type": "address"
        },
        {
          "internalType": "address",
          "name": "operator",
          "type": "address"
        }
      ],
      "name": "isApprovedForAll",
      "outputs": [
        {
          "internalType": "bool",
          "name": "approvedForAll",
          "type": "bool"
        }
      ],
      "stateMutability": "view",
      "type": "function"
    },
    {
      "inputs": [
        {
          "internalType": "address",
          "name": "forwarder",
          "type": "address"
        }
      ],
      "name": "isTrustedForwarder",
      "outputs": [
        {
          "internalType": "bool",
          "name": "",
          "type": "bool"
        }
      ],
      "stateMutability": "view",
      "type": "function"
    },
    {
      "inputs": [
        {
          "internalType": "address",
          "name": "to",
          "type": "address"
        },
        {
          "internalType": "uint256",
          "name": "tokenId",
          "type": "uint256"
        }
      ],
      "name": "mint",
      "outputs": [],
      "stateMutability": "nonpayable",
      "type": "function"
    },
    {
      "inputs": [],
      "name": "name",
      "outputs": [
        {
          "internalType": "string",
          "name": "tokenName",
          "type": "string"
        }
      ],
      "stateMutability": "view",
      "type": "function"
    },
    {
      "inputs": [],
      "name": "operatorFilterRegistry",
      "outputs": [
        {
          "internalType": "contract IOperatorFilterRegistry",
          "name": "",
          "type": "address"
        }
      ],
      "stateMutability": "view",
      "type": "function"
    },
    {
      "inputs": [],
      "name": "owner",
      "outputs": [
        {
          "internalType": "address",
          "name": "",
          "type": "address"
        }
      ],
      "stateMutability": "view",
      "type": "function"
    },
    {
      "inputs": [
        {
          "internalType": "uint256",
          "name": "tokenId",
          "type": "uint256"
        }
      ],
      "name": "ownerOf",
      "outputs": [
        {
          "internalType": "address",
          "name": "tokenOwner",
          "type": "address"
        }
      ],
      "stateMutability": "view",
      "type": "function"
    },
    {
      "inputs": [
        {
          "internalType": "address[]",
          "name": "accounts",
          "type": "address[]"
        },
        {
          "internalType": "contract IERC20[]",
          "name": "tokens",
          "type": "address[]"
        },
        {
          "internalType": "uint256[]",
          "name": "amounts",
          "type": "uint256[]"
        }
      ],
      "name": "recoverERC20s",
      "outputs": [],
      "stateMutability": "nonpayable",
      "type": "function"
    },
    {
      "inputs": [
        {
          "internalType": "address[]",
          "name": "accounts",
          "type": "address[]"
        },
        {
          "internalType": "contract IERC721[]",
          "name": "contracts",
          "type": "address[]"
        },
        {
          "internalType": "uint256[]",
          "name": "tokenIds",
          "type": "uint256[]"
        }
      ],
      "name": "recoverERC721s",
      "outputs": [],
      "stateMutability": "nonpayable",
      "type": "function"
    },
    {
      "inputs": [
        {
          "internalType": "address payable[]",
          "name": "accounts",
          "type": "address[]"
        },
        {
          "internalType": "uint256[]",
          "name": "amounts",
          "type": "uint256[]"
        }
      ],
      "name": "recoverETH",
      "outputs": [],
      "stateMutability": "nonpayable",
      "type": "function"
    },
    {
      "inputs": [
        {
          "internalType": "bytes32",
          "name": "role",
          "type": "bytes32"
        }
      ],
      "name": "renounceRole",
      "outputs": [],
      "stateMutability": "nonpayable",
      "type": "function"
    },
    {
      "inputs": [
        {
          "internalType": "bytes32",
          "name": "role",
          "type": "bytes32"
        },
        {
          "internalType": "address",
          "name": "account",
          "type": "address"
        }
      ],
      "name": "revokeRole",
      "outputs": [],
      "stateMutability": "nonpayable",
      "type": "function"
    },
    {
      "inputs": [
        {
          "internalType": "uint256",
          "name": "tokenId",
          "type": "uint256"
        },
        {
          "internalType": "uint256",
          "name": "salePrice",
          "type": "uint256"
        }
      ],
      "name": "royaltyInfo",
      "outputs": [
        {
          "internalType": "address",
          "name": "receiver",
          "type": "address"
        },
        {
          "internalType": "uint256",
          "name": "royaltyAmount",
          "type": "uint256"
        }
      ],
      "stateMutability": "view",
      "type": "function"
    },
    {
      "inputs": [
        {
          "internalType": "address",
          "name": "to",
          "type": "address"
        },
        {
          "internalType": "uint256",
          "name": "tokenId",
          "type": "uint256"
        },
        {
          "internalType": "bytes",
          "name": "data",
          "type": "bytes"
        }
      ],
      "name": "safeMint",
      "outputs": [],
      "stateMutability": "nonpayable",
      "type": "function"
    },
    {
      "inputs": [
        {
          "internalType": "address",
          "name": "from",
          "type": "address"
        },
        {
          "internalType": "address",
          "name": "to",
          "type": "address"
        },
        {
          "internalType": "uint256",
          "name": "tokenId",
          "type": "uint256"
        }
      ],
      "name": "safeTransferFrom",
      "outputs": [],
      "stateMutability": "nonpayable",
      "type": "function"
    },
    {
      "inputs": [
        {
          "internalType": "address",
          "name": "from",
          "type": "address"
        },
        {
          "internalType": "address",
          "name": "to",
          "type": "address"
        },
        {
          "internalType": "uint256",
          "name": "tokenId",
          "type": "uint256"
        },
        {
          "internalType": "bytes",
          "name": "data",
          "type": "bytes"
        }
      ],
      "name": "safeTransferFrom",
      "outputs": [],
      "stateMutability": "nonpayable",
      "type": "function"
    },
    {
      "inputs": [
        {
          "internalType": "address",
          "name": "operator",
          "type": "address"
        },
        {
          "internalType": "bool",
          "name": "approved",
          "type": "bool"
        }
      ],
      "name": "setApprovalForAll",
      "outputs": [],
      "stateMutability": "nonpayable",
      "type": "function"
    },
    {
      "inputs": [
        {
          "internalType": "string",
          "name": "baseURI",
          "type": "string"
        }
      ],
      "name": "setBaseMetadataURI",
      "outputs": [],
      "stateMutability": "nonpayable",
      "type": "function"
    },
    {
      "inputs": [
        {
          "internalType": "uint256",
          "name": "percentage",
          "type": "uint256"
        }
      ],
      "name": "setRoyaltyPercentage",
      "outputs": [],
      "stateMutability": "nonpayable",
      "type": "function"
    },
    {
      "inputs": [
        {
          "internalType": "address",
          "name": "receiver",
          "type": "address"
        }
      ],
      "name": "setRoyaltyReceiver",
      "outputs": [],
      "stateMutability": "nonpayable",
      "type": "function"
    },
    {
      "inputs": [
        {
          "internalType": "bytes4",
          "name": "interfaceId",
          "type": "bytes4"
        }
      ],
      "name": "supportsInterface",
      "outputs": [
        {
          "internalType": "bool",
          "name": "",
          "type": "bool"
        }
      ],
      "stateMutability": "view",
      "type": "function"
    },
    {
      "inputs": [],
      "name": "symbol",
      "outputs": [
        {
          "internalType": "string",
          "name": "tokenSymbol",
          "type": "string"
        }
      ],
      "stateMutability": "view",
      "type": "function"
    },
    {
      "inputs": [
        {
          "internalType": "uint256",
          "name": "tokenId",
          "type": "uint256"
        }
      ],
      "name": "tokenURI",
      "outputs": [
        {
          "internalType": "string",
          "name": "uri",
          "type": "string"
        }
      ],
      "stateMutability": "view",
      "type": "function"
    },
    {
      "inputs": [
        {
          "internalType": "address",
          "name": "from",
          "type": "address"
        },
        {
          "internalType": "address",
          "name": "to",
          "type": "address"
        },
        {
          "internalType": "uint256",
          "name": "tokenId",
          "type": "uint256"
        }
      ],
      "name": "transferFrom",
      "outputs": [],
      "stateMutability": "nonpayable",
      "type": "function"
    },
    {
      "inputs": [
        {
          "internalType": "address",
          "name": "newOwner",
          "type": "address"
        }
      ],
      "name": "transferOwnership",
      "outputs": [],
      "stateMutability": "nonpayable",
      "type": "function"
    },
    {
      "inputs": [
        {
          "internalType": "contract IOperatorFilterRegistry",
          "name": "registry",
          "type": "address"
        }
      ],
      "name": "updateOperatorFilterRegistry",
      "outputs": [],
      "stateMutability": "nonpayable",
      "type": "function"
    }
  ],
  "bytecode": "0x60a06040523480156200001157600080fd5b50604051620055ad380380620055ad833981016040819052620000349162000567565b838383838080858585336200006c81620000586200016860201b620010d11760201c565b6200019e60201b620010ff1790919060201c565b50620000826200023160201b620011bc1760201c565b620000b0816200009c6200025660201b620011ec1760201c565b6200028660201b6200121a1790919060201c565b50620000c6620002a360201b6200125c1760201c565b620000f68282620000e1620002c660201b6200128a1760201c565b620002f660201b620012b8179092919060201c565b50506200010d6200033d60201b620013011760201c565b620001226200036060201b6200132f1760201c565b620001376200038360201b6200135d1760201c565b6200014c620003a660201b6200138b1760201c565b6001600160a01b03166080525062000777975050505050505050565b6000806200019860017fc9ed16f33ab3a66c84bfd83099ccb2a8845871e2e1c1928f63797152f0fd54cd620005fb565b92915050565b6001600160a01b03811615620001f55781546001600160a01b0319166001600160a01b03821690811783556040516000907f8be0079c531659141344cd1fd0a4f28419497f9722a3daafe3b4186f6b6457e0908290a35b6200022d6307f5828d60e41b600162000218620003c960201b620013b51760201c565b620003f960201b620013e3179092919060201c565b5050565b620002546380ac58cd60e01b600162000218620003c960201b620013b51760201c565b565b6000806200019860017f609b85bcafa81ecfaf3ff62cdde2c6c9082a68dbe4922f07399c706bdeb7cd31620005fb565b81546001600160a01b0319166001600160a01b0391909116179055565b6200025463f3993d1160e01b600162000218620003c960201b620013b51760201c565b6000806200019860017f9c4269c0f9f430d98876ffe9767fbf3f3232ea91a549beb549e5329532520eb3620005fb565b82620003038382620006ab565b5060018301620003148282620006ab565b5062000338635b5e139f60e01b600162000218620003c960201b620013b51760201c565b505050565b62000254638b8b4ef560e01b600162000218620003c960201b620013b51760201c565b62000254638e773e1360e01b600162000218620003c960201b620013b51760201c565b62000254634ed2f41960e11b600162000218620003c960201b620013b51760201c565b6200025463152a902d60e11b600162000218620003c960201b620013b51760201c565b6000806200019860017fca9d3e17f264b0f3984e2634e94adb37fa3e6a8103f06aeae6fa59e21c769f5e620005fb565b600160e01b6001600160e01b03198316016200045b5760405162461bcd60e51b815260206004820152601f60248201527f496e74657266616365446574656374696f6e3a2077726f6e672076616c756500604482015260640160405180910390fd5b6001600160e01b03199190911660009081526020929092526040909120805460ff1916911515919091179055565b634e487b7160e01b600052604160045260246000fd5b600082601f830112620004b157600080fd5b81516001600160401b0380821115620004ce57620004ce62000489565b604051601f8301601f19908116603f01168101908282118183101715620004f957620004f962000489565b816040528381526020925086838588010111156200051657600080fd5b600091505b838210156200053a57858201830151818301840152908201906200051b565b600093810190920192909252949350505050565b6001600160a01b03811681146200056457600080fd5b50565b600080600080608085870312156200057e57600080fd5b84516001600160401b03808211156200059657600080fd5b620005a4888389016200049f565b95506020870151915080821115620005bb57600080fd5b50620005ca878288016200049f565b9350506040850151620005dd816200054e565b6060860151909250620005f0816200054e565b939692955090935050565b818103818111156200019857634e487b7160e01b600052601160045260246000fd5b600181811c908216806200063257607f821691505b6020821081036200065357634e487b7160e01b600052602260045260246000fd5b50919050565b601f8211156200033857600081815260208120601f850160051c81016020861015620006825750805b601f850160051c820191505b81811015620006a3578281556001016200068e565b505050505050565b81516001600160401b03811115620006c757620006c762000489565b620006df81620006d884546200061d565b8462000659565b602080601f831160018114620007175760008415620006fe5750858301515b600019600386901b1c1916600185901b178555620006a3565b600085815260208120601f198616915b82811015620007485788860151825594840194600190910190840162000727565b5085821015620007675787850151600019600388901b60f8161c191681555b5050505050600190811b01905550565b608051614df7620007b6600039600081816103c90152818161045f015281816137bf015281816138470152818161396f01526139ad0152614df76000f3fe608060405234801561001057600080fd5b50600436106102d35760003560e01c80637e518ec811610186578063b88d4fde116100e3578063e1a8bf2c11610097578063f2fde38b11610071578063f2fde38b14610651578063f3993d1114610664578063f7ba94bd1461067757600080fd5b8063e1a8bf2c14610621578063e985e9c51461062b578063f24729651461063e57600080fd5b8063c87b56dd116100c8578063c87b56dd146105d4578063d5391393146105e7578063d547741f1461060e57600080fd5b8063b88d4fde146105ae578063c3666c36146105c157600080fd5b806391d148541161013a5780639da5e8321161011f5780639da5e83214610580578063a22cb46514610593578063b0ccc31e146105a657600080fd5b806391d148541461056557806395d89b411461057857600080fd5b80638bb9c5bf1161016b5780638bb9c5bf146105375780638da5cb5b1461054a5780638dc251e31461055257600080fd5b80637e518ec8146105115780638832e6e31461052457600080fd5b806340c10f191161023457806361ba27da116101e857806370a08231116101cd57806370a08231146104ca57806373c8a958146104eb57806379cc6790146104fe57600080fd5b806361ba27da146104a45780636352211e146104b757600080fd5b80634684d7e9116102195780634684d7e91461043c578063572b6c051461044f5780635b2bd79e1461049c57600080fd5b806340c10f191461041657806342842e0e1461042957600080fd5b806323b872dd1161028b5780632b4c9f16116102705780632b4c9f16146103c75780632f2ff15d146103ed57806331e66e1e1461040057600080fd5b806323b872dd146103755780632a55205a1461038857600080fd5b8063081812fc116102bc578063081812fc14610315578063095ea7b31461034d578063114ba8ee1461036257600080fd5b806301ffc9a7146102d857806306fdde0314610300575b600080fd5b6102eb6102e636600461426c565b61068a565b60405190151581526020015b60405180910390f35b6103086106a4565b6040516102f791906142f7565b61032861032336600461430a565b6106bb565b60405173ffffffffffffffffffffffffffffffffffffffff90911681526020016102f7565b61036061035b366004614345565b6106cf565b005b610360610370366004614371565b61071e565b61036061038336600461438e565b610789565b61039b6103963660046143cf565b6107c7565b6040805173ffffffffffffffffffffffffffffffffffffffff90931683526020830191909152016102f7565b7f0000000000000000000000000000000000000000000000000000000000000000610328565b6103606103fb3660046143f1565b6107ea565b61040861081d565b6040516102f792919061446a565b610360610424366004614345565b610830565b61036061043736600461438e565b61087f565b61036061044a3660046144c3565b6108b0565b6102eb61045d366004614371565b7f000000000000000000000000000000000000000000000000000000000000000073ffffffffffffffffffffffffffffffffffffffff90811691161490565b610308610924565b6103606104b236600461430a565b610931565b6103286104c536600461430a565b61094e565b6104dd6104d8366004614371565b610962565b6040519081526020016102f7565b6103606104f9366004614518565b610976565b61036061050c366004614345565b610a9e565b61036061051f3660046145f4565b610abb565b610360610532366004614636565b610ada565b61036061054536600461430a565b610b5c565b610328610b77565b610360610560366004614371565b610b9e565b6102eb6105733660046143f1565b610bbb565b610308610c06565b61036061058e366004614692565b610c18565b6103606105a1366004614700565b610cbc565b610328610ceb565b6103606105bc36600461472e565b610cf8565b6103606105cf366004614518565b610d35565b6103086105e236600461430a565b610eda565b6104dd7f6d696e746572000000000000000000000000000000000000000000000000000081565b61036061061c3660046143f1565b610efb565b6104dd620186a081565b6102eb6106393660046147a1565b610f29565b61036061064c3660046144c3565b610f77565b61036061065f366004614371565b610f96565b6103606106723660046147cf565b610fb1565b610360610685366004614692565b610feb565b600061069e826106986113b5565b906114ef565b92915050565b60606106b66106b161128a565b6115c9565b905090565b600061069e826106c961165f565b9061168d565b73ffffffffffffffffffffffffffffffffffffffff8216156106fd576106fd826106f76111ec565b9061176e565b61071a610708611778565b838361071261165f565b929190611782565b5050565b610737610729611778565b6107316110d1565b90611a4b565b610786816107436111ec565b9081547fffffffffffffffffffffffff00000000000000000000000000000000000000001673ffffffffffffffffffffffffffffffffffffffff91909116179055565b50565b6000610793611778565b90506107a981856107a26111ec565b9190611ace565b6107c1818585856107b861165f565b93929190611b0b565b50505050565b6000806107de84846107d7611e60565b9190611e8e565b915091505b9250929050565b60006107f4611778565b9050610802816107316110d1565b610818838383610810611f38565b929190611f66565b505050565b36600061082861203c565b915091509091565b61086b7f6d696e746572000000000000000000000000000000000000000000000000000061085c611778565b610864611f38565b9190612047565b61071a828261087861165f565b91906120f3565b6000610889611778565b905061089881856107a26111ec565b6107c1818585856108a761165f565b9392919061226a565b6108dc7f6d696e746572000000000000000000000000000000000000000000000000000061085c611778565b6108188383838080602002602001604051908101604052809392919081815260200183836020028082843760009201919091525061091d925061165f915050565b91906122b0565b60606106b66106b1612484565b61093c610729611778565b61078681610948611e60565b906124b2565b600061069e8261095c61165f565b90612538565b600061069e8261097061165f565b906125ce565b610981610729611778565b84838114801561099057508082145b6109fb576040517f08c379a000000000000000000000000000000000000000000000000000000000815260206004820152601d60248201527f5265636f766572793a20696e636f6e73697374656e742061727261797300000060448201526064015b60405180910390fd5b60005b818114610a9457610a8c888883818110610a1a57610a1a614828565b9050602002016020810190610a2f9190614371565b858584818110610a4157610a41614828565b90506020020135888885818110610a5a57610a5a614828565b9050602002016020810190610a6f9190614371565b73ffffffffffffffffffffffffffffffffffffffff16919061267a565b6001016109fe565b5050505050505050565b61071a610aa9611778565b8383610ab361165f565b929190612707565b610ac6610729611778565b61071a8282610ad3612484565b919061291b565b610b067f6d696e746572000000000000000000000000000000000000000000000000000061085c611778565b6107c1610b11611778565b858585858080601f016020809104026020016040519081016040528093929190818152602001838380828437600092019190915250610b53925061165f915050565b93929190612966565b610786610b67611778565b82610b70611f38565b919061299c565b60006106b6610b846110d1565b5473ffffffffffffffffffffffffffffffffffffffff1690565b610ba9610729611778565b61078681610bb5611e60565b90612a38565b6000610bff8383610bca611f38565b60009283526020908152604080842073ffffffffffffffffffffffffffffffffffffffff909316845291905290205460ff1690565b9392505050565b60606106b6610c1361128a565b612a85565b610c447f6d696e746572000000000000000000000000000000000000000000000000000061085c611778565b6107c184848080602002602001604051908101604052809392919081815260200183836020028082843760009201919091525050604080516020808802828101820190935287825290935087925086918291850190849080828437600092019190915250610cb5925061165f915050565b9190612a96565b8015610cce57610cce826106f76111ec565b61071a610cd9611778565b8383610ce361165f565b929190612b5b565b60006106b6610b846111ec565b6000610d02611778565b9050610d1181876107a26111ec565b610d2d818787878787610d2261165f565b959493929190612c8b565b505050505050565b610d40610729611778565b848381148015610d4f57508082145b610db5576040517f08c379a000000000000000000000000000000000000000000000000000000000815260206004820152601d60248201527f5265636f766572793a20696e636f6e73697374656e742061727261797300000060448201526064016109f2565b60005b818114610a9457858582818110610dd157610dd1614828565b9050602002016020810190610de69190614371565b73ffffffffffffffffffffffffffffffffffffffff166323b872dd308a8a85818110610e1457610e14614828565b9050602002016020810190610e299190614371565b878786818110610e3b57610e3b614828565b6040517fffffffff0000000000000000000000000000000000000000000000000000000060e088901b16815273ffffffffffffffffffffffffffffffffffffffff958616600482015294909316602485015250602090910201356044820152606401600060405180830381600087803b158015610eb757600080fd5b505af1158015610ecb573d6000803e3d6000fd5b50505050806001019050610db8565b6060610ee88261095c61165f565b5061069e82610ef5612484565b90612d01565b6000610f05611778565b9050610f13816107316110d1565b610818838383610f21611f38565b929190612d35565b6000610bff8383610f3861165f565b919073ffffffffffffffffffffffffffffffffffffffff9182166000908152600393909301602090815260408085209290931684525290205460ff1690565b610818610f82611778565b848484610f8d61165f565b93929190612dff565b610786610fa1611778565b82610faa6110d1565b9190613054565b6000610fbb611778565b9050610fca81866107a26111ec565b610fe48186868686610fda61165f565b9493929190613180565b5050505050565b610ff6610729611778565b82818114611060576040517f08c379a000000000000000000000000000000000000000000000000000000000815260206004820152601d60248201527f5265636f766572793a20696e636f6e73697374656e742061727261797300000060448201526064016109f2565b60005b818114610d2d576110c984848381811061107f5761107f614828565b9050602002013587878481811061109857611098614828565b90506020020160208101906110ad9190614371565b73ffffffffffffffffffffffffffffffffffffffff16906134fb565b600101611063565b60008061069e60017fc9ed16f33ab3a66c84bfd83099ccb2a8845871e2e1c1928f63797152f0fd54cd614886565b73ffffffffffffffffffffffffffffffffffffffff8116156111875781547fffffffffffffffffffffffff00000000000000000000000000000000000000001673ffffffffffffffffffffffffffffffffffffffff821690811783556040516000907f8be0079c531659141344cd1fd0a4f28419497f9722a3daafe3b4186f6b6457e0908290a35b61071a7f7f5828d00000000000000000000000000000000000000000000000000000000060016111b56113b5565b91906113e3565b6111ea7f80ac58cd0000000000000000000000000000000000000000000000000000000060016111b56113b5565b565b60008061069e60017f609b85bcafa81ecfaf3ff62cdde2c6c9082a68dbe4922f07399c706bdeb7cd31614886565b81547fffffffffffffffffffffffff00000000000000000000000000000000000000001673ffffffffffffffffffffffffffffffffffffffff91909116179055565b6111ea7ff3993d110000000000000000000000000000000000000000000000000000000060016111b56113b5565b60008061069e60017f9c4269c0f9f430d98876ffe9767fbf3f3232ea91a549beb549e5329532520eb3614886565b826112c38382614961565b50600183016112d28282614961565b506108187f5b5e139f0000000000000000000000000000000000000000000000000000000060016111b56113b5565b6111ea7f8b8b4ef50000000000000000000000000000000000000000000000000000000060016111b56113b5565b6111ea7f8e773e130000000000000000000000000000000000000000000000000000000060016111b56113b5565b6111ea7f9da5e8320000000000000000000000000000000000000000000000000000000060016111b56113b5565b6111ea7f2a55205a0000000000000000000000000000000000000000000000000000000060016111b55b60008061069e60017fca9d3e17f264b0f3984e2634e94adb37fa3e6a8103f06aeae6fa59e21c769f5e614886565b7c01000000000000000000000000000000000000000000000000000000007fffffffff0000000000000000000000000000000000000000000000000000000083160161148b576040517f08c379a000000000000000000000000000000000000000000000000000000000815260206004820152601f60248201527f496e74657266616365446574656374696f6e3a2077726f6e672076616c75650060448201526064016109f2565b7fffffffff00000000000000000000000000000000000000000000000000000000919091166000908152602092909252604090912080547fffffffffffffffffffffffffffffffffffffffffffffffffffffffffffffff0016911515919091179055565b60007c01000000000000000000000000000000000000000000000000000000007fffffffff0000000000000000000000000000000000000000000000000000000083160161153f5750600061069e565b7ffe003659000000000000000000000000000000000000000000000000000000007fffffffff000000000000000000000000000000000000000000000000000000008316016115905750600161069e565b507fffffffff00000000000000000000000000000000000000000000000000000000166000908152602091909152604090205460ff1690565b60608160000180546115da906148c8565b80601f0160208091040260200160405190810160405280929190818152602001828054611606906148c8565b80156116535780601f1061162857610100808354040283529160200191611653565b820191906000526020600020905b81548152906001019060200180831161163657829003601f168201915b50505050509050919050565b60008061069e60017fddf3ee18ae6d688373c219468f8be446e7ae82215f4779d821c7ea5e8c13c0c1614886565b60008181526020839052604081205473ffffffffffffffffffffffffffffffffffffffff8116611719576040517f08c379a000000000000000000000000000000000000000000000000000000000815260206004820152601a60248201527f4552433732313a206e6f6e2d6578697374696e6720746f6b656e00000000000060448201526064016109f2565b74010000000000000000000000000000000000000000811615611764575050600081815260028301602052604090205473ffffffffffffffffffffffffffffffffffffffff1661069e565b600091505061069e565b61071a8282613655565b60006106b661377c565b60008181526020859052604090205473ffffffffffffffffffffffffffffffffffffffff811661180e576040517f08c379a000000000000000000000000000000000000000000000000000000000815260206004820152601a60248201527f4552433732313a206e6f6e2d6578697374696e6720746f6b656e00000000000060448201526064016109f2565b8073ffffffffffffffffffffffffffffffffffffffff80821690851603611891576040517f08c379a000000000000000000000000000000000000000000000000000000000815260206004820152601560248201527f4552433732313a2073656c662d617070726f76616c000000000000000000000060448201526064016109f2565b61189c8682876138c3565b611902576040517f08c379a000000000000000000000000000000000000000000000000000000000815260206004820152601b60248201527f4552433732313a206e6f6e2d617070726f7665642073656e646572000000000060448201526064016109f2565b73ffffffffffffffffffffffffffffffffffffffff8416611967577401000000000000000000000000000000000000000082161561196257600083815260208790526040902073ffffffffffffffffffffffffffffffffffffffff821690555b6119e8565b7401000000000000000000000000000000000000000082178083146119985760008481526020889052604090208190555b506000838152600287016020526040902080547fffffffffffffffffffffffff00000000000000000000000000000000000000001673ffffffffffffffffffffffffffffffffffffffff86161790555b828473ffffffffffffffffffffffffffffffffffffffff168273ffffffffffffffffffffffffffffffffffffffff167f8c5be1e5ebec7d5bd14f71427d1e84f3dd0314c0f7b2291e5b200ac8c7c3b92560405160405180910390a4505050505050565b815473ffffffffffffffffffffffffffffffffffffffff82811691161461071a576040517f08c379a000000000000000000000000000000000000000000000000000000000815260206004820152601860248201527f4f776e6572736869703a206e6f7420746865206f776e6572000000000000000060448201526064016109f2565b8073ffffffffffffffffffffffffffffffffffffffff168273ffffffffffffffffffffffffffffffffffffffff1614610818576108188383613655565b73ffffffffffffffffffffffffffffffffffffffff8216611b88576040517f08c379a000000000000000000000000000000000000000000000000000000000815260206004820152601e60248201527f4552433732313a207472616e7366657220746f2061646472657373283029000060448201526064016109f2565b60008181526020869052604090205473ffffffffffffffffffffffffffffffffffffffff8116611c14576040517f08c379a000000000000000000000000000000000000000000000000000000000815260206004820152601a60248201527f4552433732313a206e6f6e2d6578697374696e6720746f6b656e00000000000060448201526064016109f2565b73ffffffffffffffffffffffffffffffffffffffff84168173ffffffffffffffffffffffffffffffffffffffff1614611ca9576040517f08c379a000000000000000000000000000000000000000000000000000000000815260206004820152601760248201527f4552433732313a206e6f6e2d6f776e656420746f6b656e00000000000000000060448201526064016109f2565b611cb48685876138c3565b611d6c5774010000000000000000000000000000000000000000811615158015611d065750600082815260028701602052604090205473ffffffffffffffffffffffffffffffffffffffff8681169116145b611d6c576040517f08c379a000000000000000000000000000000000000000000000000000000000815260206004820152601b60248201527f4552433732313a206e6f6e2d617070726f7665642073656e646572000000000060448201526064016109f2565b600082815260208790526040902073ffffffffffffffffffffffffffffffffffffffff80851691829055851614611dfd5773ffffffffffffffffffffffffffffffffffffffff80851660009081526001808901602052604080832080547fffffffffffffffffffffffffffffffffffffffffffffffffffffffffffffffff0190559286168252919020805490910190555b818373ffffffffffffffffffffffffffffffffffffffff168573ffffffffffffffffffffffffffffffffffffffff167fddf252ad1be2c89b69c2b068fc378daa952ba7f163c4a11628f55a4df523b3ef60405160405180910390a4505050505050565b60008061069e60017f2c0cf10337caabbd02dcf226f05f5fd19a0919a41a8df8958c39b80007826858614886565b825473ffffffffffffffffffffffffffffffffffffffff8116906000907401000000000000000000000000000000000000000090046bffffffffffffffffffffffff16831580611edc575080155b15611eea5760009150611f2f565b620186a0841015611f1457620186a0611f038286614a7b565b611f0d9190614a92565b9150611f2f565b80611f22620186a086614a92565b611f2c9190614a7b565b91505b50935093915050565b60008061069e60017fc8827d3282af6f37b64c3e9e6f3ac9df286ab0bb0fccd6f8661bf19adb368b23614886565b60008381526020858152604080832073ffffffffffffffffffffffffffffffffffffffff8616845290915290205460ff166107c15760008381526020858152604080832073ffffffffffffffffffffffffffffffffffffffff8681168086529184529382902080547fffffffffffffffffffffffffffffffffffffffffffffffffffffffffffffff00166001179055815187815292830152918316918101919091527f2f8788117e7eff1d82e926ec794901d17c78024a50270940304540a733656f0d906060015b60405180910390a150505050565b366000610828613938565b60008281526020848152604080832073ffffffffffffffffffffffffffffffffffffffff8516845290915290205460ff166108185761208582613aa2565b6040516020016120959190614acd565b604080517fffffffffffffffffffffffffffffffffffffffffffffffffffffffffffffffe0818403018152908290527f08c379a00000000000000000000000000000000000000000000000000000000082526109f2916004016142f7565b73ffffffffffffffffffffffffffffffffffffffff8216612170576040517f08c379a000000000000000000000000000000000000000000000000000000000815260206004820152601a60248201527f4552433732313a206d696e7420746f206164647265737328302900000000000060448201526064016109f2565b60008181526020849052604090205473ffffffffffffffffffffffffffffffffffffffff16156121fc576040517f08c379a000000000000000000000000000000000000000000000000000000000815260206004820152601660248201527f4552433732313a206578697374696e6720746f6b656e0000000000000000000060448201526064016109f2565b60008181526020848152604080832073ffffffffffffffffffffffffffffffffffffffff86169081905580845260018088019093528184208054909301909255518392907fddf252ad1be2c89b69c2b068fc378daa952ba7f163c4a11628f55a4df523b3ef908290a4505050565b6122778585858585611b0b565b73ffffffffffffffffffffffffffffffffffffffff82163b15610fe457610fe48484848460405180602001604052806000815250613c34565b73ffffffffffffffffffffffffffffffffffffffff821661232d576040517f08c379a000000000000000000000000000000000000000000000000000000000815260206004820152601a60248201527f4552433732313a206d696e7420746f206164647265737328302900000000000060448201526064016109f2565b805160005b81811461244f57600083828151811061234d5761234d614828565b6020026020010151905061238b8660000160008381526020019081526020016000205473ffffffffffffffffffffffffffffffffffffffff16151590565b156123f2576040517f08c379a000000000000000000000000000000000000000000000000000000000815260206004820152601660248201527f4552433732313a206578697374696e6720746f6b656e0000000000000000000060448201526064016109f2565b60008181526020879052604080822073ffffffffffffffffffffffffffffffffffffffff88169081905590518392907fddf252ad1be2c89b69c2b068fc378daa952ba7f163c4a11628f55a4df523b3ef908290a450600101612332565b5073ffffffffffffffffffffffffffffffffffffffff9092166000908152600190930160205250604090912080549091019055565b60008061069e60017fe94434e3c6b941c5d90218142fadcc69cb2e13723993540bfa1c131dd1d3475a614886565b620186a08111156124f2576040517f3affc6c4000000000000000000000000000000000000000000000000000000008152600481018290526024016109f2565b81546bffffffffffffffffffffffff909116740100000000000000000000000000000000000000000273ffffffffffffffffffffffffffffffffffffffff909116179055565b60008181526020839052604081205473ffffffffffffffffffffffffffffffffffffffff81166125c4576040517f08c379a000000000000000000000000000000000000000000000000000000000815260206004820152601a60248201527f4552433732313a206e6f6e2d6578697374696e6720746f6b656e00000000000060448201526064016109f2565b805b949350505050565b600073ffffffffffffffffffffffffffffffffffffffff821661264d576040517f08c379a000000000000000000000000000000000000000000000000000000000815260206004820152601d60248201527f4552433732313a2062616c616e6365206f66206164647265737328302900000060448201526064016109f2565b5073ffffffffffffffffffffffffffffffffffffffff166000908152600191909101602052604090205490565b6040805173ffffffffffffffffffffffffffffffffffffffff8416602482015260448082018490528251808303909101815260649091019091526020810180517bffffffffffffffffffffffffffffffffffffffffffffffffffffffff167fa9059cbb00000000000000000000000000000000000000000000000000000000179052610818908490613d5a565b6000818152602085905260409020548073ffffffffffffffffffffffffffffffffffffffff168373ffffffffffffffffffffffffffffffffffffffff16146127ab576040517f08c379a000000000000000000000000000000000000000000000000000000000815260206004820152601760248201527f4552433732313a206e6f6e2d6f776e656420746f6b656e00000000000000000060448201526064016109f2565b6127b68584866138c3565b61286e57740100000000000000000000000000000000000000008116151580156128085750600082815260028601602052604090205473ffffffffffffffffffffffffffffffffffffffff8581169116145b61286e576040517f08c379a000000000000000000000000000000000000000000000000000000000815260206004820152601b60248201527f4552433732313a206e6f6e2d617070726f7665642073656e646572000000000060448201526064016109f2565b6000828152602086815260408083207fdead000000000000000000000000000000000000000000000000000000000000905573ffffffffffffffffffffffffffffffffffffffff86168084526001890190925280832080547fffffffffffffffffffffffffffffffffffffffffffffffffffffffffffffffff01905551849291907fddf252ad1be2c89b69c2b068fc378daa952ba7f163c4a11628f55a4df523b3ef908390a45050505050565b82612927828483614b39565b507f04b1dc5c136a3ce9fded8db0ce3d3366c58764ec3a8e4c2b9e52e4ddfe5ebbf7828260405161295992919061446a565b60405180910390a1505050565b6129718584846120f3565b73ffffffffffffffffffffffffffffffffffffffff83163b15610fe457610fe4846000858585613c34565b6129a7838284612047565b60008181526020848152604080832073ffffffffffffffffffffffffffffffffffffffff86168085529083529281902080547fffffffffffffffffffffffffffffffffffffffffffffffffffffffffffffff0016905580518481529182018390528101919091527ff6391f5c32d9c69d2a47ea670b442974b53935d1edc7fd64eb21e047a839171b90606001612959565b73ffffffffffffffffffffffffffffffffffffffff811661121a576040517f6fe1b4c800000000000000000000000000000000000000000000000000000000815260040160405180910390fd5b60608160010180546115da906148c8565b815181518114612b02576040517f08c379a000000000000000000000000000000000000000000000000000000000815260206004820152601b60248201527f4552433732313a20696e636f6e73697374656e7420617272617973000000000060448201526064016109f2565b60005b818114610fe457612b53848281518110612b2157612b21614828565b6020026020010151848381518110612b3b57612b3b614828565b6020026020010151876120f39092919063ffffffff16565b600101612b05565b8273ffffffffffffffffffffffffffffffffffffffff168273ffffffffffffffffffffffffffffffffffffffff1603612bf0576040517f08c379a000000000000000000000000000000000000000000000000000000000815260206004820152601d60248201527f4552433732313a2073656c662d617070726f76616c20666f7220616c6c00000060448201526064016109f2565b73ffffffffffffffffffffffffffffffffffffffff838116600081815260038701602090815260408083209487168084529482529182902080547fffffffffffffffffffffffffffffffffffffffffffffffffffffffffffffff001686151590811790915591519182527f17307eab39ab6107e8899845ad3d59bd9653f200f220920489ca2b5937696c31910160405180910390a350505050565b612c988787878787611b0b565b73ffffffffffffffffffffffffffffffffffffffff84163b15612cf857612cf88686868686868080601f016020809104026020016040519081016040528093929190818152602001838380828437600092019190915250613c3492505050565b50505050505050565b606082612d0d83613e66565b604051602001612d1e929190614c53565b604051602081830303815290604052905092915050565b60008381526020858152604080832073ffffffffffffffffffffffffffffffffffffffff8616845290915290205460ff16156107c15760008381526020858152604080832073ffffffffffffffffffffffffffffffffffffffff8681168086529184529382902080547fffffffffffffffffffffffffffffffffffffffffffffffffffffffffffffff00169055815187815292830152918316918101919091527ff6391f5c32d9c69d2a47ea670b442974b53935d1edc7fd64eb21e047a839171b9060600161202e565b6000612e0c8685876138c3565b90508160005b818114613016576000858583818110612e2d57612e2d614828565b602090810292909201356000818152928c905260409092205491925081905073ffffffffffffffffffffffffffffffffffffffff168873ffffffffffffffffffffffffffffffffffffffff1614612ee0576040517f08c379a000000000000000000000000000000000000000000000000000000000815260206004820152601760248201527f4552433732313a206e6f6e2d6f776e656420746f6b656e00000000000000000060448201526064016109f2565b84612f995774010000000000000000000000000000000000000000811615158015612f335750600082815260028b01602052604090205473ffffffffffffffffffffffffffffffffffffffff8a81169116145b612f99576040517f08c379a000000000000000000000000000000000000000000000000000000000815260206004820152601b60248201527f4552433732313a206e6f6e2d617070726f7665642073656e646572000000000060448201526064016109f2565b600082815260208b905260408082207fdead00000000000000000000000000000000000000000000000000000000000090555183919073ffffffffffffffffffffffffffffffffffffffff8b16907fddf252ad1be2c89b69c2b068fc378daa952ba7f163c4a11628f55a4df523b3ef908390a45050600101612e12565b508015612cf85773ffffffffffffffffffffffffffffffffffffffff8516600090815260018801602052604090208054829003905550505050505050565b825473ffffffffffffffffffffffffffffffffffffffff90811690831681146130d9576040517f08c379a000000000000000000000000000000000000000000000000000000000815260206004820152601860248201527f4f776e6572736869703a206e6f7420746865206f776e6572000000000000000060448201526064016109f2565b8173ffffffffffffffffffffffffffffffffffffffff168173ffffffffffffffffffffffffffffffffffffffff16146107c15783547fffffffffffffffffffffffff00000000000000000000000000000000000000001673ffffffffffffffffffffffffffffffffffffffff8381169182178655604051908316907f8be0079c531659141344cd1fd0a4f28419497f9722a3daafe3b4186f6b6457e090600090a350505050565b73ffffffffffffffffffffffffffffffffffffffff83166131fd576040517f08c379a000000000000000000000000000000000000000000000000000000000815260206004820152601e60248201527f4552433732313a207472616e7366657220746f2061646472657373283029000060448201526064016109f2565b600061320a8786886138c3565b90508160005b81811461347457600085858381811061322b5761322b614828565b602090810292909201356000818152928d90526040909220549192505073ffffffffffffffffffffffffffffffffffffffff81166132c5576040517f08c379a000000000000000000000000000000000000000000000000000000000815260206004820152601a60248201527f4552433732313a206e6f6e2d6578697374696e6720746f6b656e00000000000060448201526064016109f2565b73ffffffffffffffffffffffffffffffffffffffff89168173ffffffffffffffffffffffffffffffffffffffff161461335a576040517f08c379a000000000000000000000000000000000000000000000000000000000815260206004820152601760248201527f4552433732313a206e6f6e2d6f776e656420746f6b656e00000000000000000060448201526064016109f2565b8461341357740100000000000000000000000000000000000000008116151580156133ad5750600082815260028c01602052604090205473ffffffffffffffffffffffffffffffffffffffff8b81169116145b613413576040517f08c379a000000000000000000000000000000000000000000000000000000000815260206004820152601b60248201527f4552433732313a206e6f6e2d617070726f7665642073656e646572000000000060448201526064016109f2565b600082815260208c9052604080822073ffffffffffffffffffffffffffffffffffffffff808c16918290559151859391928d16917fddf252ad1be2c89b69c2b068fc378daa952ba7f163c4a11628f55a4df523b3ef91a45050600101613210565b508473ffffffffffffffffffffffffffffffffffffffff168673ffffffffffffffffffffffffffffffffffffffff16141580156134b057508015155b15610a945773ffffffffffffffffffffffffffffffffffffffff808716600090815260018a016020526040808220805485900390559187168152208054820190555050505050505050565b80471015613565576040517f08c379a000000000000000000000000000000000000000000000000000000000815260206004820152601d60248201527f416464726573733a20696e73756666696369656e742062616c616e636500000060448201526064016109f2565b60008273ffffffffffffffffffffffffffffffffffffffff168260405160006040518083038185875af1925050503d80600081146135bf576040519150601f19603f3d011682016040523d82523d6000602084013e6135c4565b606091505b5050905080610818576040517f08c379a000000000000000000000000000000000000000000000000000000000815260206004820152603a60248201527f416464726573733a20756e61626c6520746f2073656e642076616c75652c207260448201527f6563697069656e74206d6179206861766520726576657274656400000000000060648201526084016109f2565b815473ffffffffffffffffffffffffffffffffffffffff168015801590613693575060008173ffffffffffffffffffffffffffffffffffffffff163b115b15610818576040517fc617113400000000000000000000000000000000000000000000000000000000815230600482015273ffffffffffffffffffffffffffffffffffffffff838116602483015282169063c617113490604401602060405180830381865afa15801561370a573d6000803e3d6000fd5b505050506040513d601f19601f8201168201806040525081019061372e9190614cf8565b610818576040517fede71dcc00000000000000000000000000000000000000000000000000000000815273ffffffffffffffffffffffffffffffffffffffff831660048201526024016109f2565b60003332148061378c5750601836105b1561379657503390565b7fffffffffffffffffffffffffffffffffffffffffffffffffffffffffffffffec36013560601c7f000000000000000000000000000000000000000000000000000000000000000073ffffffffffffffffffffffffffffffffffffffff163314806138b257506040517f8929a8ca00000000000000000000000000000000000000000000000000000000815273ffffffffffffffffffffffffffffffffffffffff82811660048301523360248301527f00000000000000000000000000000000000000000000000000000000000000001690638929a8ca90604401602060405180830381865afa15801561388e573d6000803e3d6000fd5b505050506040513d601f19601f820116820180604052508101906138b29190614cf8565b156138bc57919050565b3391505090565b60008173ffffffffffffffffffffffffffffffffffffffff168373ffffffffffffffffffffffffffffffffffffffff1614806125c657505073ffffffffffffffffffffffffffffffffffffffff9182166000908152600393909301602090815260408085209290931684525290205460ff1690565b366000333214806139495750601836105b156139575750600091369150565b3373ffffffffffffffffffffffffffffffffffffffff7f0000000000000000000000000000000000000000000000000000000000000000161480613a8c575073ffffffffffffffffffffffffffffffffffffffff7f000000000000000000000000000000000000000000000000000000000000000016638929a8ca367fffffffffffffffffffffffffffffffffffffffffffffffffffffffffffffffec013560601c6040517fffffffff0000000000000000000000000000000000000000000000000000000060e084901b16815273ffffffffffffffffffffffffffffffffffffffff9091166004820152336024820152604401602060405180830381865afa158015613a68573d6000803e3d6000fd5b505050506040513d601f19601f82011682018060405250810190613a8c9190614cf8565b15613a9957610828613f24565b50600091369150565b60606000829003613ac157505060408051602081019091526000815290565b600082604051602001613ad691815260200190565b604080517fffffffffffffffffffffffffffffffffffffffffffffffffffffffffffffffe08184030181529190529050601f5b818181518110613b1b57613b1b614828565b01602001517fff0000000000000000000000000000000000000000000000000000000000000016600003613b70577fffffffffffffffffffffffffffffffffffffffffffffffffffffffffffffffff01613b09565b60008160010167ffffffffffffffff811115613b8e57613b8e614899565b6040519080825280601f01601f191660200182016040528015613bb8576020820181803683370190505b50905060005b828111613c2b57838181518110613bd757613bd7614828565b602001015160f81c60f81b828281518110613bf457613bf4614828565b60200101907effffffffffffffffffffffffffffffffffffffffffffffffffffffffffffff1916908160001a905350600101613bbe565b50949350505050565b6040517f150b7a02000000000000000000000000000000000000000000000000000000008082529073ffffffffffffffffffffffffffffffffffffffff85169063150b7a0290613c8e908990899088908890600401614d15565b6020604051808303816000875af1158015613cad573d6000803e3d6000fd5b505050506040513d601f19601f82011682018060405250810190613cd19190614d5e565b7fffffffff000000000000000000000000000000000000000000000000000000001614610fe4576040517f08c379a000000000000000000000000000000000000000000000000000000000815260206004820152601e60248201527f4552433732313a2073616665207472616e736665722072656a6563746564000060448201526064016109f2565b6000613dbc826040518060400160405280602081526020017f5361666545524332303a206c6f772d6c6576656c2063616c6c206661696c65648152508573ffffffffffffffffffffffffffffffffffffffff16613f559092919063ffffffff16565b8051909150156108185780806020019051810190613dda9190614cf8565b610818576040517f08c379a000000000000000000000000000000000000000000000000000000000815260206004820152602a60248201527f5361666545524332303a204552433230206f7065726174696f6e20646964206e60448201527f6f7420737563636565640000000000000000000000000000000000000000000060648201526084016109f2565b60606000613e7383613f64565b600101905060008167ffffffffffffffff811115613e9357613e93614899565b6040519080825280601f01601f191660200182016040528015613ebd576020820181803683370190505b5090508181016020015b7fffffffffffffffffffffffffffffffffffffffffffffffffffffffffffffffff017f3031323334353637383961626364656600000000000000000000000000000000600a86061a8153600a8504945084613ec757509392505050565b3660006108287fffffffffffffffffffffffffffffffffffffffffffffffffffffffffffffffec8301828481614d7b565b60606125c68484600085614046565b6000807a184f03e93ff9f4daa797ed6e38ed64bf6a1f0100000000000000008310613fad577a184f03e93ff9f4daa797ed6e38ed64bf6a1f010000000000000000830492506040015b6d04ee2d6d415b85acef81000000008310613fd9576d04ee2d6d415b85acef8100000000830492506020015b662386f26fc100008310613ff757662386f26fc10000830492506010015b6305f5e100831061400f576305f5e100830492506008015b612710831061402357612710830492506004015b60648310614035576064830492506002015b600a831061069e5760010192915050565b6060824710156140d8576040517f08c379a000000000000000000000000000000000000000000000000000000000815260206004820152602660248201527f416464726573733a20696e73756666696369656e742062616c616e636520666f60448201527f722063616c6c000000000000000000000000000000000000000000000000000060648201526084016109f2565b6000808673ffffffffffffffffffffffffffffffffffffffff1685876040516141019190614da5565b60006040518083038185875af1925050503d806000811461413e576040519150601f19603f3d011682016040523d82523d6000602084013e614143565b606091505b50915091506141548783838761415f565b979650505050505050565b606083156141f55782516000036141ee5773ffffffffffffffffffffffffffffffffffffffff85163b6141ee576040517f08c379a000000000000000000000000000000000000000000000000000000000815260206004820152601d60248201527f416464726573733a2063616c6c20746f206e6f6e2d636f6e747261637400000060448201526064016109f2565b50816125c6565b6125c6838381511561420a5781518083602001fd5b806040517f08c379a00000000000000000000000000000000000000000000000000000000081526004016109f291906142f7565b7fffffffff000000000000000000000000000000000000000000000000000000008116811461078657600080fd5b60006020828403121561427e57600080fd5b8135610bff8161423e565b60005b838110156142a457818101518382015260200161428c565b50506000910152565b600081518084526142c5816020860160208601614289565b601f017fffffffffffffffffffffffffffffffffffffffffffffffffffffffffffffffe0169290920160200192915050565b602081526000610bff60208301846142ad565b60006020828403121561431c57600080fd5b5035919050565b73ffffffffffffffffffffffffffffffffffffffff8116811461078657600080fd5b6000806040838503121561435857600080fd5b823561436381614323565b946020939093013593505050565b60006020828403121561438357600080fd5b8135610bff81614323565b6000806000606084860312156143a357600080fd5b83356143ae81614323565b925060208401356143be81614323565b929592945050506040919091013590565b600080604083850312156143e257600080fd5b50508035926020909101359150565b6000806040838503121561440457600080fd5b82359150602083013561441681614323565b809150509250929050565b8183528181602085013750600060208284010152600060207fffffffffffffffffffffffffffffffffffffffffffffffffffffffffffffffe0601f840116840101905092915050565b6020815260006125c6602083018486614421565b60008083601f84011261449057600080fd5b50813567ffffffffffffffff8111156144a857600080fd5b6020830191508360208260051b85010111156107e357600080fd5b6000806000604084860312156144d857600080fd5b83356144e381614323565b9250602084013567ffffffffffffffff8111156144ff57600080fd5b61450b8682870161447e565b9497909650939450505050565b6000806000806000806060878903121561453157600080fd5b863567ffffffffffffffff8082111561454957600080fd5b6145558a838b0161447e565b9098509650602089013591508082111561456e57600080fd5b61457a8a838b0161447e565b9096509450604089013591508082111561459357600080fd5b506145a089828a0161447e565b979a9699509497509295939492505050565b60008083601f8401126145c457600080fd5b50813567ffffffffffffffff8111156145dc57600080fd5b6020830191508360208285010111156107e357600080fd5b6000806020838503121561460757600080fd5b823567ffffffffffffffff81111561461e57600080fd5b61462a858286016145b2565b90969095509350505050565b6000806000806060858703121561464c57600080fd5b843561465781614323565b935060208501359250604085013567ffffffffffffffff81111561467a57600080fd5b614686878288016145b2565b95989497509550505050565b600080600080604085870312156146a857600080fd5b843567ffffffffffffffff808211156146c057600080fd5b6146cc8883890161447e565b909650945060208701359150808211156146e557600080fd5b506146868782880161447e565b801515811461078657600080fd5b6000806040838503121561471357600080fd5b823561471e81614323565b91506020830135614416816146f2565b60008060008060006080868803121561474657600080fd5b853561475181614323565b9450602086013561476181614323565b935060408601359250606086013567ffffffffffffffff81111561478457600080fd5b614790888289016145b2565b969995985093965092949392505050565b600080604083850312156147b457600080fd5b82356147bf81614323565b9150602083013561441681614323565b600080600080606085870312156147e557600080fd5b84356147f081614323565b9350602085013561480081614323565b9250604085013567ffffffffffffffff81111561481c57600080fd5b6146868782880161447e565b7f4e487b7100000000000000000000000000000000000000000000000000000000600052603260045260246000fd5b7f4e487b7100000000000000000000000000000000000000000000000000000000600052601160045260246000fd5b8181038181111561069e5761069e614857565b7f4e487b7100000000000000000000000000000000000000000000000000000000600052604160045260246000fd5b600181811c908216806148dc57607f821691505b602082108103614915577f4e487b7100000000000000000000000000000000000000000000000000000000600052602260045260246000fd5b50919050565b601f82111561081857600081815260208120601f850160051c810160208610156149425750805b601f850160051c820191505b81811015610d2d5782815560010161494e565b815167ffffffffffffffff81111561497b5761497b614899565b61498f8161498984546148c8565b8461491b565b602080601f8311600181146149e257600084156149ac5750858301515b7fffffffffffffffffffffffffffffffffffffffffffffffffffffffffffffffff600386901b1c1916600185901b178555610d2d565b6000858152602081207fffffffffffffffffffffffffffffffffffffffffffffffffffffffffffffffe08616915b82811015614a2f57888601518255948401946001909101908401614a10565b5085821015614a6b57878501517fffffffffffffffffffffffffffffffffffffffffffffffffffffffffffffffff600388901b60f8161c191681555b5050505050600190811b01905550565b808202811582820484141761069e5761069e614857565b600082614ac8577f4e487b7100000000000000000000000000000000000000000000000000000000600052601260045260246000fd5b500490565b7f416363657373436f6e74726f6c3a206d697373696e6720270000000000000000815260008251614b05816018850160208701614289565b7f2720726f6c6500000000000000000000000000000000000000000000000000006018939091019283015250601e01919050565b67ffffffffffffffff831115614b5157614b51614899565b614b6583614b5f83546148c8565b8361491b565b6000601f841160018114614bb75760008515614b815750838201355b7fffffffffffffffffffffffffffffffffffffffffffffffffffffffffffffffff600387901b1c1916600186901b178355610fe4565b6000838152602090207fffffffffffffffffffffffffffffffffffffffffffffffffffffffffffffffe0861690835b82811015614c065786850135825560209485019460019092019101614be6565b5086821015614c41577fffffffffffffffffffffffffffffffffffffffffffffffffffffffffffffffff60f88860031b161c19848701351681555b505060018560011b0183555050505050565b6000808454614c61816148c8565b60018281168015614c795760018114614cac57614cdb565b7fffffffffffffffffffffffffffffffffffffffffffffffffffffffffffffff0084168752821515830287019450614cdb565b8860005260208060002060005b85811015614cd25781548a820152908401908201614cb9565b50505082870194505b505050508351614cef818360208801614289565b01949350505050565b600060208284031215614d0a57600080fd5b8151610bff816146f2565b600073ffffffffffffffffffffffffffffffffffffffff808716835280861660208401525083604083015260806060830152614d5460808301846142ad565b9695505050505050565b600060208284031215614d7057600080fd5b8151610bff8161423e565b60008085851115614d8b57600080fd5b83861115614d9857600080fd5b5050820193919092039150565b60008251614db7818460208701614289565b919091019291505056fea2646970667358221220516828a1ea4230c3caa76bd447979f609f611c82e31c45616d9b53a4581b145b64736f6c63430008110033",
  "linkReferences": {},
  "deployedLinkReferences": {}
}